:020000040800F2
:100000000000022071810008757B0008777B0008E2
:10001000797B00087B7B00087D7B000800000000E6
:100020000000000000000000000000007F7B0008CE
:10003000817B000800000000837B0008C18100086C
:10004000C1810008C1810008C1810008C181000888
:10005000C1810008C1810008C1810008C181000878
:10006000C1810008C1810008C1810008C181000868
:10007000C1810008C1810008C1810008C181000858
:10008000C1810008C1810008C1810008857B00088A
:10009000C1810008957B0008C1810008C18100086A
:1000A000C1810008A57B0008C1810008C18100084A
:1000B000C1810008C1810008C1810008C181000818
:1000C000C1810008C1810008C1810008C181000808
:1000D000C1810008C1810008C1810008C1810008F8
:1000E000C1810008C181000800000000C181000832
:1000F000C1810008C1810008C1810008C1810008D8
:10010000C1810008C1810008C1810008C1810008C7
:10011000C1810008C1810008C1810008C1810008B7
:10012000C1810008C1810008C1810008C1810008A7
:10013000C1810008C1810008C1810008C181000897
:1001400000000000000000000000000000000000AF
:10015000C1810008C1810008C1810008C181000877
:10016000C1810008C1810008C1810008C181000867
:10017000C1810008B57B0008C1810008C181000869
:10018000C1810008C1810008C1810008C181000847
:10019000C1810008C1810008C1810008C181000837
:1001A000C1810008C1810008C1810008C181000827
:1001B000C1810008C1810008C1810008C181000817
:1001C000C1810008C1810008C1810008C181000807
:1001D000C1810008C1810008C1810008C1810008F7
:1001E000C1810008C1810008C1810008C1810008E7
:1001F000C1810008C1810008C1810008C1810008D7
:10020000C1810008C1810008C1810008C1810008C6
:10021000C1810008C1810008C1810008C1810008B6
:10022000C1810008C1810008C181000800000000F0
:10023000C1810008C181000800000000C1810008E0
:10024000C1810008C1810008C1810008C181000886
:10025000C1810008C1810008C1810008C181000876
:10026000C1810008C1810008C1810008C181000866
:10027000C1810008C1810008C181000800000000A0
:10028000C1810008C1810008C18100080000000090
:0802900000000000C18100081C
:1002A00010B5054C237833B9044B13B10448AFF3B0
:1002B00000800123237010BDEC010020000000002D
:1002C000E090000808B5034B1BB103490348AFF3A6
:1002D000008008BD00000000F0010020E090000850
:1002E00053B94AB9002908BF00281CBF4FF0FF319D
:1002F0004FF0FF3000F072B9ADF1080C6DE904CE9B
:1003000000F006F8DDF804E0DDE9022304B07047F0
:100310002DE9F047089E04468846002B4BD18A42BF
:10032000154667D9B2FA82F24AB1C2F1200701FA42
:1003300002F320FA07F7954047EA030894404FEA92
:10034000154E230CB8FBFEF71FFA85FC0EFB178831
:1003500043EA084307FB0CF1994209D9EB1807F16E
:10036000FF3080F01B81994240F21881023F2B44FC
:100370005B1AA4B2B3FBFEF00EFB103344EA034455
:1003800000FB0CFCA44509D92C1900F1FF3380F0C7
:100390000781A44540F2048102382C4440EA07401A
:1003A000A4EB0C0400271EB1D4400023C6E900438F
:1003B0003946BDE8F0878B4209D9002E00F0EB806A
:1003C0000027C6E9000138463946BDE8F087B3FA90
:1003D00083F7002F47D18B4202D3824200F2FA808A
:1003E000841A61EB030301209846002EE0D0C6E991
:1003F0000048DDE702B9FFDEB2FA82F2002A40F0DF
:100400008F80491B4FEA154E1FFA85F80127B1FB73
:10041000FEFC230C0EFB1C1143EA014308FB0CF10C
:10042000994207D9EB180CF1FF3002D2994200F241
:10043000CD808446591AA3B2B1FBFEF00EFB101416
:1004400043EA044408FB00F8A04507D92C1900F141
:10045000FF3302D2A04500F2B6801846A4EB080490
:1004600040EA0C409FE7C7F1200CBB4022FA0CFE8B
:100470004EEA030E01FA07F420FA0CF521FA0CF308
:100480004FEA1E482543B3FBF8F92C0C08FB19333F
:100490001FFA8EFA44EA034309FB0AF49C4202FA6B
:1004A00007F200FA07F10BD91EEB030309F1FF3045
:1004B00080F087809C4240F28480A9F10209734455
:1004C0001B1BADB2B3FBF8F008FB103345EA034445
:1004D00000FB0AFAA24508D91EEB040400F1FF3321
:1004E0006BD2A24569D90238744440EA0940A0FBA6
:1004F0000289A4EB0A044C45C2464B4654D351D062
:10050000002E69D0B1EB0A0564EB030404FA0CFC7D
:10051000FD40FC404CEA0505C6E90054002747E7CA
:10052000C2F1200320FA03F7954001FA02F021FA04
:1005300003F34FEA154E3843010CB3FBFEF71FFAE5
:1005400085F80EFB173341EA034107FB08F38B42A2
:1005500004FA02F407D9691807F1FF3C2FD28B4245
:100560002DD9023F2944CB1A81B2B3FBFEF00EFB1A
:10057000103341EA034100FB08F38B4207D96918A5
:1005800000F1FF3C17D28B4215D902382944C91A11
:1005900040EA07473BE73746304609E70746E7E6C4
:1005A0001846FBE64145ABD2B8EB020A69EB0E02F6
:1005B00001381346A4E76046E9E7184695E7674621
:1005C000D1E781467CE702382C4447E7ACF1020CC6
:1005D0002B442FE7384608E73746E9E6704700BF67
:1005E00001F0FF01102A2BDB10F0070F08D010F8E4
:1005F000013B013A8B422DD010F0070F42B3F6D1E8
:10060000F0B441EA012141EA014122F007047FF000
:1006100000070023F0E80256083C85EA010586EA57
:10062000010685FA47F5A3FA87F586FA47F6A5FA93
:1006300087F68EB9EED1F0BC01F0FF0102F007029F
:1006400032B110F8013B013A83EA010313B1F8D14A
:100650000020704701387047002D06BF354603382B
:10066000073815F0010F07D1013015F4807F02BF64
:10067000013015F4C03F0130F0BC0138704700BFB5
:1006800010B5032000F056F802F082F90F498B698B
:10069000C3F303230E4AD35C03F01F03D8408B69D6
:1006A00003F00F03D35C03F01F0320FA03F3094A9E
:1006B0001360094B1860002007F01CFA10B10124E8
:1006C000204610BD044607F0A3F8F9E7004402589D
:1006D0007C910008200100201C010020034B1B78A6
:1006E000034A11680B441360704700BF04000020E8
:1006F00008060020014B1868704700BF080600205C
:1007000038B50446FFF7F6FF0546B4F1FF3F02D0C7
:10071000044B1B781C44FFF7EDFF401BA042FAD3AB
:1007200038BD00BF04000020014B1868000C704762
:100730000010005C0649CB6823F4E0631B041B0C2B
:10074000000200F4E0600343024A1A43CA607047A3
:1007500000ED00E00000FA0530B4154BDB68C3F390
:100760000223C3F10704042C28BF04241D1D062DF9
:1007700014D9033B4FF0FF3505FA04F421EA0401D4
:10078000994005FA03F322EA03031943002807DB23
:100790000901C9B2074B195430BC70470023E9E77F
:1007A00000F00F000901C9B2034B1954F4E700BF70
:1007B00000ED00E000E400E014ED00E0002807DBBD
:1007C00000F01F02400901239340024A42F8203002
:1007D000704700BF00E100E030B4446B0268D2F81B
:1007E00084106F4B194041EA8401C2F884100268FA
:1007F000D2F8841021F47F01856B41EA0541C2F8EB
:100800008410826B22440468D4F88810194041EAAD
:100810008201C4F888100468D4F8881021F4FE011D
:10082000C56B41EA0541C4F88810C16B02EB410277
:100830000468D4F8A010194041EA8201C4F8A0105D
:100840000468D4F8A01021F4FE01056C41EA0541CA
:10085000C4F8A010046C416C01FB04240268D2F8B7
:10086000B010194041EA8401C2F8B0100268D2F811
:10087000B01021F4FE01856C41EA0541C2F8B010C8
:10088000826CC16C01FB02440268D2F8AC101940C2
:1008900041EA8401C2F8AC10026D416D01FB0242D5
:1008A0000468D4F8F010194041EA8201C4F8F0104D
:1008B0000468D4F8F01021F47C11856D41EA0541FB
:1008C000C4F8F010816D02EB41020468D4F8C01046
:1008D0000B4043EA8202C4F8C0200268D2F8C0305C
:1008E00023F47C13C16D43EA0143C2F8C0300268AF
:1008F000D2F8C03023F07C53016E43EA0163C2F8A2
:10090000C030436B274A1A449200C266836B02EBE5
:1009100083030367C16B03EBC1034367046C416C42
:1009200001FB04F103EB81038367846CC16C01FB61
:1009300004F103EB8103C367046D416D01FB04F116
:1009400003EB8103C0F88030816D03EBC103C0F875
:100950008430C46D856E05FB04F403EB8403C0F89A
:100960008830016E01FB05F103EB8103C0F8903084
:100970000D498B420DD9D0F89C3043F02003C0F8CC
:100980009C30032380F89830012007E0002342F8D0
:10099000043BD0F890309342F8D8002030BC704728
:1009A0000300FFFF002B0010FCD30040F0B44C68A4
:1009B000E4B90E698C6826430C6846EA84460D6AE1
:1009C000CC6944EA05648D692C434D692C43CD689C
:1009D0002C43D0F88470806E03FB00F307EB830593
:1009E00047F823606C600835002015E00E698C68BC
:1009F00026430C68264346F08046E0E71418E67864
:100A0000A3781B0443EA0663647843EA0423145C76
:100A1000234345F8043B0430CB89034CE35C834219
:100A2000ECD8F0BC704700BFF890000830B595B026
:100A300004464C22A04901A807F010FC002C00F04D
:100A4000388123689D4A934220D094F898300BB3A4
:100A50002268936923F010039361FFF74BFE05466C
:100A600023689A6912F0080F1AD0FFF743FE401B63
:100A70000A28F5D9D4F89C3043F00103C4F89C301F
:100A8000032384F89830012015B030BD03F580733E
:100A90006360DAE784F89930204606F0CBFED7E7AA
:100AA0009A6942F001029A61FFF724FE0546236825
:100AB0009A6912F0010F0FD1FFF71CFE401B0A28A4
:100AC000F5D9D4F89C3043F00103C4F89C300323DB
:100AD00084F898300120D7E79A6942F002029A61BF
:100AE000237C012B40D02268936943F0400393613B
:100AF000637C012B3ED02268936923F48043936189
:100B0000A37C012B3CD02268936943F4805393610A
:100B10002268936923F44073A1680B4393612268B0
:100B2000936923F0A40393612268136923F01003EF
:100B30001361E368012B29D0002B2CD0022B00F08D
:100B40009B802268936943F0800393612268136954
:100B500043F010031361E368032B1CD122689369EF
:100B600043F02003936116E02268936923F0400369
:100B70009361BDE72268936943F480439361BFE7C3
:100B80002268936923F480539361C1E722689369D3
:100B900043F004039361A3695A1EE369013B1B02FE
:100BA00043EA4263226A013A13436269013A2168C7
:100BB00043EA0243CB61A368B3F5407F62D0236E62
:100BC00033B12268D2F8C030616E0B43C2F8C03036
:100BD000E36D226ED3420DD02168D1F8C83023F0E6
:100BE0000703A26E14A800EB820252F84C2C1343A8
:100BF000C1F8C830236C6BB12168D1F8BC3023F048
:100C00000703626C14A800EB820252F84C2C1343C9
:100C1000C1F8BC30A36C73B12168D1F8BC3023F0AB
:100C20007003E26C14A800EB820252F84C2C43EAE9
:100C30000213C1F8BC30236D73B12168D1F8BC3008
:100C400023F4E063626D14A800EB820252F84C2C8E
:100C500043EA0223C1F8BC302268184B9A4222D0E2
:100C60000023C4F89430C4F89C30012384F89830F1
:100C70002046FFF7B1FD07E72268936943F02003A0
:100C8000936188E7A36A013BE26A013A43EA0223DF
:100C9000226B013A43EA0213626A013A216843EA8D
:100CA0000243CB608BE76268936823F00303936091
:100CB000D6E70120E8E600BF0891000800A0004048
:100CC00090F89830013BDBB2012B07D9D0F89C306B
:100CD00043F00203C0F89C3001207047CB680A68DB
:100CE000D2B9072B0ED08A68DB0643EA82730A6901
:100CF00043EA02434A691343C26E496842F821300D
:100D0000002070470A69CB691B0243EA02438A69E3
:100D1000134343F06053EFE710B40A6942EA4372A9
:100D2000072B0ED08C684B6943EA8473006F4968C7
:100D300000EBC10440F83120636000205DF8044BF3
:100D400070478B69F2E710B490F89840E4B2012C38
:100D500009D0D0F89C3043F00403C0F89C30012047
:100D60005DF8044B7047920042EA011141EA4303E7
:100D7000026801990B43C2F880300020F0E790F838
:100D80009830DBB2012B07D0D0F89C3043F004033D
:100D9000C0F89C3001207047022380F89830026828
:100DA000936923F0010393610023C0F89C30184637
:100DB000704738B590F89830DBB2022B07D0D0F8E6
:100DC0009C3043F00803C0F89C30012038BD036814
:100DD000D3F8C04014F07C5F0CD0D3F8C44014F4B6
:100DE000001F0FD0D0F89C3043F40073C0F89C3043
:100DF0000120EBE7D0F89C3043F02003C0F89C3092
:100E00000120E3E70546D3F8C440C4F30444234675
:100E1000FFF7CCFD2A680123A340C2F8D030C5F803
:100E200094300020D2E70000F0B490F89840E4B28B
:100E3000022C08D0D0F89C3043F00803C0F89C3056
:100E40000120F0BC7047402939D0412964D0046D9D
:100E50008C4240F28E80C46F456D01FB05F504EBBA
:100E600085044FF0000C256805F080455560002D85
:100E700040F087802568C5F38A451560256805F030
:100E800000559560256805F000451561A588D56178
:100E9000656805F47025D560656805F480155561B1
:100EA000656805F400159561E57905F07F05156223
:100EB0006568ED0F556204F10805002469E00468D7
:100EC000D4F8A05015F4FE0F16D0D4F8A45015F0A5
:100ED0007F0F19D0D4F8A45015F0807F01D0D4F83A
:100EE000A050D4F8A440C4F3052C446F456C0CFB0F
:100EF00005F504EB8504B6E7D0F89C3043F02003F9
:100F0000C0F89C3001209CE7D0F89C3043F48073FB
:100F1000C0F89C30012094E70468D4F8B05015F470
:100F2000FE0F16D0D4F8B45015F07F0F19D0D4F8B6
:100F3000B45015F0807F01D0D4F8B050D4F8B4404C
:100F4000C4F3052C846FC56C0CFB05F504EB85041C
:100F500089E7D0F89C3043F02003C0F89C30012092
:100F60006FE7D0F89C3043F48073C0F89C300120C8
:100F700067E7D0F89C3043F02003C0F89C30012094
:100F80005FE7256825F06045156077E72E5D1E5503
:100F90000134D689124FBE5DA642F7D840290BD046
:100FA00041290ED01F2911D80268012303FA01F14B
:100FB000C2F89810002044E70368C3F8A8C00020D6
:100FC0003FE70368C3F8B8C000203AE701F01F010B
:100FD0000268012303FA01F1C2F89C10002030E7F7
:100FE000F890000890F89830013BDBB2012B07D94C
:100FF000D0F89C3043F00203C0F89C3001207047C9
:1010000010B403689C6D0C4224D1DC6D44F00104E3
:10101000DC6511F4007F05D00468D4F8E030134398
:10102000C4F8E03011F4806F05D00468D4F8E430DF
:101030001A43C4F8E4200068436D0C4A0A40134385
:1010400043650B4A536943EA9171516100205DF891
:10105000044B70479C6D31EA040402D00324DC6524
:10106000D7E7DC6D44F00204DC65D2E7FFFFCF3F39
:1010700000A800407047704770477047704770473E
:1010800070477047704770477047704770477047A8
:10109000704770472DE9F0470446954B1A695B6924
:1010A0004FEA837A0AEA827A03681A6D02F4704979
:1010B0005A6D09EA02091A6D02F00F085A6D08EA22
:1010C00002081F6D07F0F0075A6D17401D6D05F0FF
:1010D00071555A6D15401E6D06F060765A6D1640BA
:1010E0005A6D12F4807F03D01A6D12F4807F78D18C
:1010F00023685A6D12F4806F03D01A6D12F4806F5A
:1011000078D1BAF1000F40F08480B9F1000F40F0BF
:101110008C80B8F1000F40F09480002F40F09D804B
:1011200023685A6D12F4006F04D01A6D12F4006F28
:1011300040F09D8023685A6D12F4007F04D01A6D30
:1011400012F4007F40F09D8023685A6D12F4002F46
:1011500004D01A6D12F4002F40F0A28023685A6D5B
:1011600012F4803F04D01A6D12F4803F40F0A28048
:1011700023685A6D12F4802F04D01A6D12F4802F58
:1011800040F0A28023685A6D12F4003F0FD01A6D10
:1011900012F4003F0BD04FF400321A65544B00227A
:1011A0001A61D4F89C3043F08003C4F89C30002EC0
:1011B00040F094804DB123681D65AA0F4C4B1A6115
:1011C000D4F89C301D43C4F89C502268494B9A4285
:1011D00000F09280D4F89C30002B40F0ED80BDE808
:1011E000F0874FF480721A65414B00221A61FFF7B5
:1011F0004AFF7DE7D3F8DC10D3F8E4204FF4806099
:1012000018653B4B0020186111402046FFF737FF5F
:1012100077E7236800221A654FEA9A72344B1A6105
:1012200051462046FFF726FF6FE72368C3F850902A
:101230004FEA99722E4B1A6149462046FFF71BFF71
:1012400067E72368C3F850804FEA9872284B1A6109
:101250004146204606F072FA5FE723681F65BA0F21
:10126000234B1A6139462046FFF706FF58E74FF433
:1012700000621A651E4B00221A612046FFF7FDFE30
:1012800058E7D3F8D810D3F8E0204FF40070186571
:10129000174B0020186111402046FFF7EFFE53E77F
:1012A0004FF400221A65124B00221A612046FFF704
:1012B000E7FE53E74FF480321A650D4B00221A61A6
:1012C0002046FFF7DEFE53E74FF480221A65084BF5
:1012D00000221A612046FFF7D5FE53E723681E65FA
:1012E000B20F034B1A6131462046FFF7CEFE61E78D
:1012F00000A8004000A0004063689A6812F0030F45
:101300003FF468AF196A01F00F015A6A186A00F0D9
:101310003008586A08EA00081F6A07F4C077586A5C
:1013200007401E6A06F4FC46586A06401D6A05F42A
:10133000F025586A054011401FD1B8F1000F21D1A6
:1013400063685A6A12F0400F03D01A6A12F0400F15
:1013500020D157BB36B163681E62D4F89C301E435F
:10136000C4F89C60002D3FF435AF63681D62D4F86B
:101370009C301D43C4F89C502CE719622046FFF7AF
:1013800085FEDAE76368C3F8208041462046FFF710
:101390007EFED5E7D96BDA6B4020186202F03F027F
:1013A000090C2046FFF774FED3E763681F623946D5
:1013B0002046FFF76EFECDE72046FFF765FE0EE7FD
:1013C000F0B583B000233AE0092400E00024B440E3
:1013D0003C4302356E4E46F825406E4C2568D4439A
:1013E00004EA05064F6817F4803F01D042EA05067B
:1013F000684D2E606E6804EA06054F6817F4003FDA
:1014000001D042EA0605634E75604FF0B0452D6885
:1014100004EA05064F6817F4801F01D042EA05066A
:101420004FF0B0452E606D682C404E6816F4001FDA
:1014300001D042EA05044FF0B042546001330A681B
:1014400032FA03F400F0A28001249C402240F5D03F
:101450004D686E1E112D18BF012E01D9122D12D10B
:1014600086685F000325BD4026EA0506CD68BD40BD
:1014700035438560466826EA04064D68C5F30014C6
:101480009C4034434460C6685F000325BD40EC4384
:1014900026408D68BD403543C5604D68122D18BF8C
:1014A000022D13D1DE08083650F826E003F00705B8
:1014B0004FEA850C0F2505FA0CF52EEA050E0D698D
:1014C00005FA0CF545EA0E0540F82650056825405A
:1014D0004C6804F00304BC402C4304604C6814F0D6
:1014E000805FABD02C4CD4F8F45045F00205C4F822
:1014F000F450D4F8F44004F002040194019C9D08D7
:10150000AE1C234C54F8267003F00304A6000F24ED
:10151000B44027EA0407214CA0423FF457AF04F53A
:101520008064A04222D004F58064A04220D004F55B
:101530008064A0421ED004F58064A0421CD004F553
:101540008064A0421AD004F58064A04218D004F54B
:101550008064A04216D004F58064A04214D004F543
:101560008064A0423FF430AF0A2430E701242EE724
:1015700002242CE703242AE7042428E7052426E78D
:10158000062424E7072422E7082420E703B0F0BD5F
:10159000000400588000005800440258000002581F
:1015A00012B909048161704781617047002857D0E2
:1015B00010B5044690F84130002B41D0242384F824
:1015C00041302268136823F00103136063682268C6
:1015D00023F0706313612268936823F400439360DF
:1015E000E368012B31D0A368226843F4044393607D
:1015F000E368022B2FD0226851681A4B0B435360CB
:101600002268D36823F40043D360236962691343DB
:10161000A169226843EA0123D360E369216A226851
:101620000B4313602268136843F00103136000202A
:101630006064202384F84130206384F8420010BDA8
:1016400080F8403006F07EF9B8E7A368226843F4DA
:1016500000439360CCE723684FF400625A60CAE706
:10166000012070470080000290F84130DBB2202B4F
:1016700024D190F84030012B22D0012380F8403053
:10168000242380F841300268136823F001031360BB
:101690000268136823F480531360026813681943C7
:1016A00011600268136843F001031360202380F87F
:1016B0004130002380F840301846704702207047C0
:1016C0000220704790F84130DBB2202B22D190F8F5
:1016D0004030012B20D0012380F84030242380F8B3
:1016E00041300268136823F0010313600268136835
:1016F00023F4706343EA012111600268136843F028
:1017000001031360202380F84130002380F840302B
:101710001846704702207047022070472DE9F047B5
:1017200082B00768CA00521A930003445A6D1B6DB9
:101730009A4257D8B8469B1AC1EBC104A200024492
:10174000526C9A4200D31A460C46064602F1030A2E
:101750004FEA9A0A16E009F1030A4FEA9A0AE300EF
:101760001B1B9D003544A96C337C00931FFA89F341
:10177000E2B2384604F092FAAB6C4B44AB646B6D4A
:101780004B446B6508EB441303F510639B699BB2F4
:10179000534513D3E3001B1B9A003244516D136D64
:1017A00099420BD253B15B1AC4EBC4018A00324494
:1017B000D2F844909945CED39946CCE7E3001B1B61
:1017C00098000644326D736D9A420FD804F00F04EE
:1017D0000121A140D7F8344824EA0104C7F834486D
:1017E000002000E0012002B0BDE8F0870020FAE709
:1017F000F0B58BB0002800F091800446056890F8A1
:10180000BD3323B3032384F8BD33EB6B13F4807F24
:1018100001D100232361206803F0DEFF254655F83F
:10182000107B6E460FCD0FC60FCD0FC695E8030097
:1018300086E80300231D0ECB384603F00BFF58B19A
:10184000022384F8BD33012528460BB0F0BD80F893
:10185000BC3306F0A3FAD5E70021206803F0C2FFED
:10186000002315E0D900C81A82002244012082F822
:101870003D0082F83C30A2F84230002082F83F0060
:1018800050649064CA1A9100214408650133DBB2A8
:101890006568AB42E6D3002315E0D800C11A8A0080
:1018A0002244002182F8FD1182F8FC3182F8FF11F8
:1018B000C2F80412C2F80812C21A90002044C0F8FC
:1018C00010120133DBB29D42E7D8254655F8107B54
:1018D0006E460FCD0FC60FCD0FC695E8030086E804
:1018E0000300231D0ECB384603F0C2FF054660B946
:1018F000002384F83830012384F8BD33636A012B58
:1019000008D0206804F075FB9EE7022384F8BD33FD
:10191000012599E7204600F0CFFCF2E7012593E787
:10192000026890F8BC33012B19D010B5012380F860
:10193000BC33836A012B0AD00446006804F04DFBD7
:10194000206803F043FF002084F8BC0310BD8369C6
:10195000012BF1D0936B43F480339363ECE70220C7
:101960007047000070B504460D460068066C00EB39
:10197000411303F530639A682169012911D0374971
:101980008E4254D03DB9C5EBC50293002344D3F831
:101990001032002B5CD0E9B2204606F049FA002054
:1019A00070BD12F0080F09D02D498E42F7D912F4FC
:1019B000004FF4D04FF400429A60F0E712F0200F8D
:1019C00028D112F0280FEAD125498E4202D912F40B
:1019D000004F22D1E900491B8A002244D2F80412A8
:1019E0001B69C3F31203C91AC2F81412D2F8041205
:1019F000D2F808320B44C2F8083235B9C5EBC5023B
:101A000093002344D3F810325BB1E9B2204606F0CC
:101A10000FFAC4E720229A60C1E74FF400429A60AF
:101A2000BDE704F57172012104F034FBEDE712F417
:101A3000004F09D112F0200F01D020229A60E9B2A4
:101A4000204606F0F5F9AAE74FF400429A60A6E7AF
:101A500004F57172002104F01DFB9CE70A31544F1C
:101A60000A30544F38B5044603681D6C03EB41112E
:101A7000D1F8082B0E4B9D4207D901F5306112F4C5
:101A8000004F02D04FF400438B60204606F0C8F9A7
:101A9000074B9D4202D92369012B01D0002038BD9C
:101AA00004F571720121206804F0F4FAF6E700BF32
:101AB0000A30544F2DE9F84F04460568284604F0D3
:101AC000D5FA08B1BDE8F88F2F460646206804F025
:101AD0009CFA0028F6D0206804F097FA10F0020F64
:101AE00004D02268536903F002035361206804F0B4
:101AF0008CFA10F0100F15D02268936923F01003B0
:101B00009361D5F8208008F00F09C8F34343022BF6
:101B100000F08580062B00F0A5802268936943F0D1
:101B200010039361206804F070FA10F4002F40F065
:101B3000AD80206804F069FA10F4802F40F0F18045
:101B4000206804F062FA0028C0F25F81206804F087
:101B50005CFA10F4006F0AD0D5F8083813F0010FC2
:101B600040F06D812268536903F40063536120687B
:101B700004F04BFA10F0006F15D02268536903F09F
:101B80000063536194F8F433002B40F05C81012131
:101B900084F8F41323685B6DC3F38303C4F8F8334C
:101BA000204600F09DFB206804F02FFA10F4805FBF
:101BB00040F04D81206804F028FA10F4005F40F0F6
:101BC000AB81206804F021FA10F0080F40F0BC81CE
:101BD000206804F01AFA10F4801F40F0BE812068DB
:101BE00004F013FA10F4001F40F0C181206804F0E3
:101BF0000CFA10F0804F40F0C481206804F005FA20
:101C000010F0040F3FF45EAF23685D6815F0040F19
:101C100040F0C081226853682B43536052E747F677
:101C2000F07318EA030F3FF478AF4FEAC90BABEB40
:101C300009034FEA830AA2444FEA1818C8F30A02BC
:101C4000DAF80812284604F049F9C8F30A08DAF865
:101C500008324344CAF80832DAF814324344CAF866
:101C600014325AE7082204F57171284604F036F957
:101C7000C8F30A184FEAC903A3EB09018A002244FA
:101C8000D2F814324344C2F8143246E7206804F014
:101C9000C0F98046B14617E007EB49130122C3F8AB
:101CA000082B49462046FFF75DFE1DE007EB491370
:101CB0000822C3F8082B49462046FFF7D3FE16E05A
:101CC00009F101094FEA5808B8F1000F3FF431AFAC
:101CD00018F0010FF4D05FFA89F1206804F0A9F937
:101CE000824610F0010FD7D11AF0080FDED11AF09A
:101CF000100F04D007EB49131022C3F8082B1AF079
:101D0000200F04D007EB49132022C3F8082B1AF444
:101D1000005FD5D007EB49134FF40052C3F8082BEE
:101D2000CEE7206804F07DF98046B1462AE05946A6
:101D3000204606F089F81AF0080F04D007EB491383
:101D40000822C3F808291AF0100F04D007EB491332
:101D50001022C3F808291AF0400F04D007EB4913EA
:101D60004022C3F808291AF0020F04D007EB4913E8
:101D70000222C3F808291AF0800F41D109F10109A4
:101D80004FEA5808B8F1000F3FF4DAAE18F0010F2F
:101D9000F4D05FFA89FB5946206804F053F9824673
:101DA00010F0010FC7D009F00F03012101FA03F26F
:101DB000D7F8343823EA0203C7F8343807EB49135D
:101DC000C3F8081923698B42B1D14FEAC902A2EBCB
:101DD000090293002344596C9A6C0A449A64B9F13D
:101DE000000FA4D1C9EBC902930023441B6D002B43
:101DF0009DD104F571720121206804F04BF996E73A
:101E000049462046FFF78AFCB8E7D5F8043823F0A6
:101E10000103C5F8043894F8F433012B08D02046A8
:101E200006F052F82268536903F0004353618DE6CF
:101E3000002184F8F413204600F052FAF2E720461D
:101E400006F02AF88EE6204606F026F8ABE605F501
:101E50000068D8F8043023F00103C8F804301021DA
:101E6000206803F0D7FC20E007EB46134FF67F31E4
:101E7000C3F80819D3F8002922F40012C3F8002986
:101E8000D3F8002942F00062C3F80029C3F8081B08
:101E9000D3F8002B22F40012C3F8002BD3F8002B48
:101EA00042F00062C3F8002B01366368B342DBD80E
:101EB000D8F81C3043F00113C8F81C30236BEBB189
:101EC000D8F8843043F00B03C8F88430D8F8443095
:101ED00043F00B03C8F84430D5F8003823F4FE6310
:101EE000C5F8003804F57172217C206804F0D2F83E
:101EF0002268536903F4805353615BE6D8F81420D9
:101F000042F22B031343C8F81430D8F8103043F0D2
:101F10000B03C8F81030DFE7206804F0ABF8206846
:101F200003F06AFDE060256800F072FF227B014645
:101F3000284603F0D5FB204605F097FF2268536939
:101F400003F4005353613CE6204605F088FF226805
:101F5000536903F0080353613AE60021204605F077
:101F6000BFFF2268536903F48013536137E60021F1
:101F7000204605F0AFFF2268536903F40013536154
:101F800034E6204605F0B2FF2268536903F080432F
:101F9000536132E6204605F0AFFF3BE690F8BC33D4
:101FA000012B0DD010B50446012380F8BC3380F816
:101FB0003810006804F001F8002084F8BC0310BD5C
:101FC00002207047F8B511F0800F28D101F00F06FC
:101FD000F500AF1BBC00274604F5FC740444043430
:101FE0003E460644002586F8FD5101F00F012170A0
:101FF000A260E370627802B1E180022B1ED090F8FB
:10200000BC33012B1DD00546012380F8BC3321468B
:10201000006803F001FD002085F8BC03F8BD01F065
:102020000F06F500AF1BBC002746383404440434C7
:102030003E460644012586F83D50D6E7002323712D
:10204000DDE70220EAE738B511F0800F21D101F079
:102050000F05EA00541BA3001C4603F5FC73034460
:10206000043325460544002285F8FD2101F00F01C7
:10207000197090F8BC23012A1AD00446012280F876
:10208000BC231946006803F00FFD002084F8BC0350
:1020900038BD01F00F04E200151BAB001D463833BC
:1020A000034404332C460444012284F83D20DDE738
:1020B0000220EDE770B501F00F05EE00711B8C00FA
:1020C00004F5FC740444211D761BB4000444C4F8D8
:1020D0000822C4F810320023C4F8143284F8FD3109
:1020E00084F8FC510369012B06D065B1DAB20068AF
:1020F00003F0E8FD002070BDC5EBC506B400044444
:10210000C4F80C22F1E7DAB2006803F03BFDF1E716
:1021100001F00F01C1EBC1018B001844D0F814028B
:10212000704770B501F00F05EE00711B8C0038345C
:102130000444211D761BB4000444A26423650023DB
:102140006365012384F83D3084F83C500369012B1A
:1021500006D05DB1DAB2006803F0B4FD002070BDB6
:10216000C5EBC506B4000444E264F2E7DAB20068E5
:1021700003F008FDF2E738B501F00F0543689D4212
:1021800036D811F0800F20D1CA00541AA3001C4683
:1021900003F5FC730344043322460244002182F811
:1021A000FD1101229A701D7090F8BC23012A21D0E4
:1021B0000446012280F8BC231946006803F0A2FE01
:1021C0007DB1002084F8BC0313E0EA00511B8B00B2
:1021D00019463833034404330144012281F83D2079
:1021E000DFE704F57172217C206803F053FFE8E714
:1021F000012038BD0220FCE710B501F00F04436850
:102200009C422CD811F0800F1DD1E3001A1B9100C5
:102210000A4601F5FC71014404310244002382F8AE
:10222000FD3100238B700C7090F8BC33012B18D05B
:102230000446012380F8BC33006803F090FE0020C0
:1022400084F8BC030CE0E3001A1B91000A46383105
:10225000014404310244012382F83D30E1E70120CA
:1022600010BD0220FCE730B40468606A29B10D4655
:10227000A36A00EB134000230CE040EA0240A06296
:1022800012E003F1400104EB8101496800EB1140C9
:102290000133DBB2691E8B42F3D340EA024005F101
:1022A0003F0104EB81014860002030BC70470368A7
:1022B0005962002070470000024603680121C0F8FF
:1022C000FC13002082F8F4039A6942F000629A61DC
:1022D000596D024A0A435A65704700BF0300001057
:1022E00070470000134BDB6813F0040F07D1114B4C
:1022F000DB6803F0070383421AD00120704710B552
:102300000C4AD36823F007031843D060FEF7F2F9B4
:102310000446084B5B6813F4005F07D1FEF7EAF947
:10232000001BB0F57A7FF4D9012000E0002010BD39
:102330000020704700480258024AD36843F0807377
:10234000D360704700480258002800F00C8338B56D
:102350000446036813F0010F25D09D4A136903F06A
:102360003803926A102B15D0182B0FD06368B3F581
:10237000803F3FD0002B53D1954B1A6822F4803216
:102380001A601A6822F480221A6038E002F0030210
:10239000022AEBD18E4B1B6813F4003F03D0636815
:1023A000002B00F0E282236813F0020F00F08B8014
:1023B000874A1369926A13F038035AD0182B55D004
:1023C000E368002B00F0C88081490A6822F01902F6
:1023D00013430B60FEF78EF905467D4B1B6813F027
:1023E000040F40F09780FEF785F9401B0228F4D9CE
:1023F0000320BFE2764A136843F4803313606368B6
:102400002BB3FEF777F90546714B1B6813F4003FB9
:10241000C9D1FEF76FF9401B6428F5D90320A9E262
:10242000B3F5A02F09D06A4B1A6822F480321A60E3
:102430001A6822F480221A60E1E7654B1A6842F4B8
:1024400080221A601A6842F480321A60D7E7FEF7D9
:1024500051F905465E4B1B6813F4003FA3D0FEF70D
:1024600049F9401B6428F5D9032083E212F0030FD9
:10247000A6D1574B1B6813F0040F03D0E368002B61
:1024800000F07582FEF750F941F20303984212D82A
:102490002269402A07D04E494B6823F47C3343EA33
:1024A00002334B600FE04A4A536823F47C3343F411
:1024B0000033536007E0464A536823F0FE43216926
:1024C00043EA01635360236813F0100F00F08A8021
:1024D0003F4A136903F03803926A082B54D0182B33
:1024E0004ED0E369002B00F0BA80394A136843F0FC
:1024F00080031360FEF7FEF80546354B1B6813F4A6
:10250000807F40F08A80FEF7F5F8401B0228F4D95E
:1025100003202FE2FEF708F941F20303984212D894
:102520002269402A07D02A494B6823F47C3343EAC6
:1025300002334B60C7E7264A536823F47C3343F4E5
:1025400000335360BFE7224A536823F0FE432169FA
:1025500043EA01635360B6E71D4A136823F00103A1
:102560001360FEF7C7F80546194B1B6813F0040FFC
:10257000A9D0FEF7BFF8401B0228F5D90320F9E1E6
:1025800002F00302012AACD1114B1B6813F4807FC7
:1025900004D0E369802B01D00120EBE1FEF7C4F801
:1025A00041F20303984215D8226A202A07D008492D
:1025B0004B6823F0F84343EA82634B6012E0044A1D
:1025C000536823F0F84343F0804353600AE000BFB0
:1025D000004402589A4AD36823F07C53216A43EAA4
:1025E0000163D360236813F0080F60D06369002B88
:1025F00049D0934A536F43F001035367FEF77AF8CB
:1026000005468F4B5B6F13F0020F50D1FEF772F847
:10261000401B0228F5D90320ACE1FEF785F841F212
:102620000303984212D8226A202A07D084494B68B3
:1026300023F0F84343EA82634B60D3E7804A536850
:1026400023F0F84343F080435360CBE77C4AD368E0
:1026500023F07C53216A43EA0163D360C2E7784ADE
:10266000136823F080031360FEF744F80546744BAB
:102670001B6813F4807FB5D0FEF73CF8401B02289E
:10268000F5D9032076E16E4A536F23F001035367B7
:10269000FEF730F805466A4B5B6F13F0020F06D069
:1026A000FEF728F8401B0228F5D9032062E12368D1
:1026B00013F0200F29D0A3699BB1614A136843F43A
:1026C00080531360FEF716F805465D4B1B6813F444
:1026D000005F1AD1FEF70EF8401B0228F5D903203F
:1026E00048E1574A136823F480531360FEF702F859
:1026F0000546534B1B6813F4005F06D0FDF7FAFF45
:10270000401B0228F5D9032034E1236813F0040F9D
:1027100021D1636A002B00F02C81494A126902F032
:102720003802182A00F0EE80022B75D0444A136854
:1027300023F080731360FDF7DDFF0446404B1B68F8
:1027400013F0007F00F0DC80FDF7D4FF001B0228AF
:10275000F4D903200EE13B4A136843F480731360FD
:10276000FDF7C8FF0546374B1B6813F4807F06D181
:10277000FDF7C0FF401B6428F5D90320FAE0A368E9
:10278000012B0AD00BBB2E4B1A6F22F001021A67E5
:102790001A6F22F004021A6704E0294A136F43F00B
:1027A00001031367A36833B3FDF7A4FF0546244B69
:1027B0001B6F13F0020FACD1FDF79CFF401B41F2E1
:1027C00088339842F3D90320D4E0052B09D01C4B61
:1027D0001A6F22F001021A671A6F22F004021A67B8
:1027E000E0E7174B1A6F42F004021A671A6F42F0C3
:1027F00001021A67D6E7FDF77DFF0546104B1B6FF8
:1028000013F0020F85D0FDF775FF401B41F28833AE
:102810009842F3D90320ADE0094A136823F080738E
:102820001360FDF767FF0546054B1B6813F0007F3B
:102830000AD0FDF75FFF401B0228F5D9032099E07D
:1028400000440258004802584E4B996A4E4A0A40CA
:10285000A16AE06A41EA00110A439A62226B013AD6
:10286000C2F30802616B0139490289B20A43A16BC4
:102870000139090401F4FE010A43E16B013909063B
:1028800001F0FE410A431A63DA6A22F00102DA62B9
:10289000596B3E4A0A40A16C42EAC1025A63DA6AA5
:1028A00022F00C02216C0A43DA62DA6A22F0020298
:1028B000616C0A43DA62DA6A42F48032DA62DA6A16
:1028C00042F40032DA62DA6A42F48022DA62DA6AC8
:1028D00042F00102DA621A6842F080721A60FDF773
:1028E00009FF0446274B1B6813F0007F06D1FDF754
:1028F00001FF001B0228F5D903203BE0002039E04E
:10290000002037E01F4A916A106B012B33D001F091
:102910000303A26A934201D001202BE0C1F3051109
:10292000E36A994201D0012024E0C0F30802236B3E
:10293000013B9A4201D001201CE0C0F34622636BA8
:10294000013B9A4201D0012014E0C0F30642A36B80
:10295000013B9A4211D1C0F30660E36B013B984200
:102960000DD0012006E001207047012002E0012087
:1029700000E0002038BD0120FCE70120FAE700203C
:10298000F8E700BF004402580CFCFFFF0700FFFF00
:10299000724B1B6903F03803102B00F0DB80182BFF
:1029A00010D00BB16E4870476C4B1B6813F0200FB2
:1029B00000F0D280694B1868C0F3C100694B23FA5C
:1029C00000F07047654A916A01F00301906AC0F314
:1029D0000510D36A03F00103526BC2F3CC0203FB70
:1029E00002F307EE903AF8EE677A002800F0B5801F
:1029F000012966D0F9B1022900F08F8007EE100A94
:102A0000F8EE476A9FED586A86EE267A534B1B6BA9
:102A1000C3F3080306EE903AF8EE666A9FED536A38
:102A200067EE867A76EEA77AF7EE006A77EEA67AF8
:102A300027EE277A61E0494B1B6813F0200F23D063
:102A400046490A68C2F3C102464BD34007EE103A2A
:102A5000F8EE476A07EE100AB8EE476A86EE867A05
:102A60000B6BC3F3080306EE903AF8EE666A9FED2F
:102A70003F6A67EE867A76EEA77AF7EE006A77EE1F
:102A8000A67A27EE277A38E007EE100AF8EE476AB2
:102A90009FED376A86EE267A304B1B6BC3F3080333
:102AA00006EE903AF8EE666A9FED306A67EE867A37
:102AB00076EEA77AF7EE006A77EEA67A27EE277A07
:102AC0001BE007EE100AF8EE476A9FED276A86EED4
:102AD000267A224B1B6BC3F3080306EE903AF8EEFE
:102AE000666A9FED226A67EE867A76EEA77AF7EE3F
:102AF000006A77EEA67A27EE277A184B1B6BC3F392
:102B00004623013307EE903AF8EE677AC7EE276A5C
:102B1000FCEEE67A17EE900A704707EE100AF8EE20
:102B2000476A9FED146A86EE267A0C4B1B6BC3F343
:102B3000080306EE903AF8EE666A9FED0C6A67EEBF
:102B4000867A76EEA77AF7EE006A77EEA67A27EE17
:102B5000277AD2E708487047024870470044025875
:102B600000093D000090D0030024744A00000039A1
:102B70000024744C0024F44A00127A00002800F06B
:102B8000368103469C4A126802F00F028A420CD238
:102B90009948026822F00F020A430260026802F0BC
:102BA0000F028A4201D00120704770B51A6812F0F6
:102BB000040F0CD01869914A926902F07002904299
:102BC00005D98E4CA26922F070021043A0611A68E8
:102BD00012F0080F0CD05869884AD26902F07002CE
:102BE000904205D9854CE26922F070021043E06101
:102BF0001A6812F0100F0CD09869804AD26902F45A
:102C0000E062904205D97D4CE26922F4E062104313
:102C1000E0611A6812F0200F0CD0D869774A126A66
:102C200002F07002904205D9744C226A22F07002C0
:102C3000104320621A6812F0020F0CD0D8686F4A55
:102C4000926902F00F02904205D96C4CA26922F001
:102C50000F021043A0611C460D461B6813F0010FC4
:102C600041D0664A936923F47063A1680B43936172
:102C70006368022B0AD0032B27D0012B2CD05F4A8C
:102C8000126812F0040F06D10120AFE0126812F4AE
:102C9000003F00F0AE8059490A6922F00702134351
:102CA0000B61FDF727FD0646544B1B6903F0380303
:102CB0006268B3EBC20F16D0FDF71CFD801B41F21A
:102CC00088339842F0D9032090E04C4A126812F001
:102CD000007FE0D1012089E0484A126812F4807F29
:102CE000D9D1012082E0236813F0020F0CD0E268F2
:102CF000424B9B6903F00F039A4205D23F498B690F
:102D000023F00F031A438A613B4B1B6803F00F0348
:102D1000AB420CD9384A136823F00F032B431360DE
:102D2000136803F00F03AB4201D001205EE023687B
:102D300013F0040F0CD02269304B9B6903F0700331
:102D40009A4205D22D498B6923F070031A438A6198
:102D5000236813F0080F0CD06269284BDB6903F07D
:102D600070039A4205D22549CB6923F070031A43B8
:102D7000CA61236813F0100F0CD0A2691F4BDB69E6
:102D800003F4E0639A4205D21C49CB6923F4E06363
:102D90001A43CA61236813F0200F0CD0E269174B65
:102DA0001B6A03F070039A4205D214490B6A23F0A0
:102DB00070031A430A62FFF7EBFD10498B69C3F3F6
:102DC00003230F4AD35C03F01F03D8408B6903F041
:102DD0000F03D35C03F01F0320FA03F3094A1360C7
:102DE000094B1860094B186804F084FE70BD01207F
:102DF00070470120FAE700BF00200052004402584B
:102E00007C910008200100201C0100200800002007
:102E100008B5FFF7BDFD0B4A9369C3F303230A49C5
:102E2000CB5C03F01F0320FA03F3926902F00F0258
:102E3000885C00F01F0023FA00F0044A1060044A86
:102E4000136008BD004402587C9100082001002056
:102E50001C01002008B5FFF7DBFF054BDB69C3F35E
:102E60000213044AD35C03F01F03D84008BD00BF1F
:102E7000004402587C91000808B5FFF7C9FF054BD4
:102E8000DB69C3F30223044AD35C03F01F03D84079
:102E900008BD00BF004402587C9100083F23036036
:102EA000114B1A6902F0070242609A6902F47062DB
:102EB00082609A6902F00F02C2609A6902F07002A1
:102EC0000261DA6902F070024261DA6902F4E062DA
:102ED00082611B6A03F07003C361044B1B6803F03B
:102EE0000F030B60704700BF0044025800200052DF
:102EF000404B9B6A03F00303032B79D070B50E4659
:102F000004463C4A136823F080631360FDF7F2FB2C
:102F10000546384B1B6813F0006F06D0FDF7EAFB3F
:102F2000401B0228F5D9032070BD324B9A6A22F467
:102F30007C32216842EA01329A626268013AC2F345
:102F40000802A1680139490289B20A43E1680139DE
:102F5000090401F4FE010A4321690139090601F05F
:102F6000FE410A439A63DA6A22F0C00261690A43A9
:102F7000DA62DA6A22F02002A1690A43DA62DA6AC6
:102F800022F01002DA62D96B1B4A0A40E16942EA78
:102F9000C102DA63DA6A42F01002DA62C6B91A468E
:102FA000DB6A43F40023D362124A136843F0806360
:102FB0001360FDF79FFB04460E4B1B6813F0006F78
:102FC00014D1FDF797FB001B0228F5D90320ABE7CE
:102FD000012E05D0074AD36A43F40013D362E3E716
:102FE000044AD36A43F48013D362DDE700209BE7F1
:102FF00001207047004402580700FFFF404B9B6AC6
:1030000003F00303032B79D070B50E4604463C4A07
:10301000136823F080531360FDF76CFB0546384BB3
:103020001B6813F0005F06D0FDF764FB401B02280D
:10303000F5D9032070BD324B9A6A22F07C72216868
:1030400042EA01529A626268013AC2F30802A16838
:103050000139490289B20A43E1680139090401F4DE
:10306000FE010A4321690139090601F0FE410A43C4
:103070001A64DA6A22F4406261690A43DA62DA6A3F
:1030800022F40072A1690A43DA62DA6A22F48072D9
:10309000DA62596C1B4A0A40E16942EAC1025A6489
:1030A000DA6A42F48072DA62C6B91A46DB6A43F41D
:1030B0008003D362124A136843F080531360FDF714
:1030C00019FB04460E4B1B6813F0005F14D1FDF78B
:1030D00011FB001B0228F5D90320ABE7012E05D018
:1030E000074AD36A43F08073D362E3E7044AD36AA2
:1030F00043F40003D362DDE700209BE70120704723
:10310000004402580700FFFFF8B50446036813F0B7
:10311000006F2BD0436EB3F5801F18D007D9B3F5DD
:10312000001F1DD0B3F5401F2ED1002506E05BBB6C
:10313000934AD36A43F40033D3620025904A136D57
:1031400023F44013616E0B431365002610E0022147
:103150000430FFF7CDFE0546002DEFD02E4607E0E8
:1031600002212430FFF74AFF0546F5E700263546E1
:10317000236813F4807F17D0636D042B32D8DFE807
:1031800003F006242A0B0B0001263546F0E77C4AA3
:10319000D36A43F40033D3623DBB794A136D23F005
:1031A0000703616D0B431365236813F4007F33D06D
:1031B000A36D802B44D01AD80BB3402B1CD1002117
:1031C000201DFFF795FE05461EE00021201DFFF79C
:1031D0008FFE0546E0E7002104F12400FFF70EFF13
:1031E0000546D9E701263546DEE72E46DCE7C02B4B
:1031F0000AD0B3F5807F07D0012635460CE0604A3F
:10320000D36A43F40033D3620DBB5D4A136D23F4DC
:10321000E073A16D0B431365236813F4806F2FD007
:10322000D4F8A430B3F5800F3ED012D8D3B1B3F5A3
:10323000001F14D10021201DFFF75AFE054616E09D
:10324000002104F12400FFF7D9FE0546DCE72E46F5
:10325000E2E7B3F5C00F0AD0B3F5000F07D001269F
:1032600035460DE0464AD36A43F40033D36215BBBA
:10327000434A936D23F46003D4F8A4100B43936581
:10328000236813F4006F2FD0D4F8A830B3F1007F77
:1032900037D012D8D3B1B3F1807F14D10021201DD3
:1032A000FFF726FE054616E0002104F12400FFF793
:1032B000A5FE0546DBE72E46E2E7B3F1407F0AD0E4
:1032C000B3F1806F07D0012635460DE02C4AD36A52
:1032D00043F40033D362DDB9294A936D23F0E063F0
:1032E000D4F8A8100B439365236813F0007F2AD00D
:1032F000A36C102B12D00DD9202B1DD0302B12D047
:1033000009E0002104F12400FFF778FE0546E2E71A
:103310002E46E9E73BB10126354614E0184AD36A48
:1033200043F40033D3626DB9154AD36C23F03003F4
:10333000A16C0B43D36406E00221201DFFF7D8FDEA
:103340000546F0E72E46236813F4805F27D0E36D2F
:10335000B3F5005F3ED009D8A3B1B3F5805F0BD1C0
:103360000021201DFFF7C4FD054610E0B3F5405FC6
:103370000DD0B3F5804F0AD0012635460FE000BFCF
:1033800000440258934AD36A43F40033D36245BBE6
:10339000904A136D23F4E043E16D0B4313652368FA
:1033A00013F4005F33D0236EB3F5003F27D01AD853
:1033B0003BB1B3F5803F1FD10121201DFFF798FDE0
:1033C00005461DBB834A136D23F4E023216E0B4396
:1033D00013651CE0002104F12400FFF70FFE0546F1
:1033E000D5E72E46DBE7B3F5802FEAD0B3F5A02F63
:1033F000E7D0B3F5403FE4D00126354607E0012190
:1034000004F12400FFF7FAFD0546DAE72E462368AB
:1034100013F4804F2CD0D4F8AC30B3F1005F1FD040
:1034200012D83BB1B3F1805F17D10121201DFFF706
:103430005FFD0546DDB9674A936D23F0E043D4F89C
:10344000AC100B43936513E0B3F1804FF2D0B3F1AE
:10345000A04FEFD0B3F1405FECD00126354607E036
:10346000012104F12400FFF7C9FD0546E2E72E46DD
:10347000236813F4004F1FD0E36EB3F1805F06D0D2
:10348000B3F1005F11D03BB10126354614E0514A3B
:10349000D36A43F40033D3626DB94E4A136D23F0FF
:1034A0004053E16E0B43136506E00121201DFFF739
:1034B0001FFD0546F0E72E46236813F0807F1ED0DF
:1034C000636C032B17D8DFE803F007021007414AAB
:1034D000D36A43F40033D36285B93E4AD36C23F0F8
:1034E0000303616C0B43D36409E00221201DFFF745
:1034F000FFFC0546F0E70126354600E02E4623682E
:1035000013F4800F1FD1236813F0010F00F09E8089
:10351000A36F282B00F29680DFE803F08494949444
:10352000949494947F949494949494948D94949477
:10353000949494948494949494949494849494946B
:10354000949494948400244A136843F48073136021
:10355000FDF7D0F80746204B1B6813F4807F05D198
:10356000FDF7C8F8C01B6428F5D90325002D50D1FC
:10357000184B1B6FD4F8B020534013F4407F0CD08D
:10358000144B1A6F22F44072196F41F4803119679D
:10359000196F21F4803119671A67D4F8B030B3F588
:1035A000807F1BD0002D36D1D4F8B03003F44072A8
:1035B000B2F5407F23D0074A136923F47C5313618B
:1035C00004490B6FD4F8B020C2F30B0213430B670E
:1035D00099E700BF0044025800480258FDF78AF8F6
:1035E0000746AC4B1B6F13F0020FDBD1FDF782F8DF
:1035F000C01B41F288339842F3D90325D2E7A5488E
:10360000026922F47C52A44901EA131313430361B3
:10361000D6E72E4677E72E4675E70121201DFFF7F6
:1036200067FC05468DB99B4A536D23F03803A16FA3
:103630000B4353650AE0012104F12400FFF7DEFC8F
:103640000546EFE70126354600E02E46236813F0D5
:10365000020F20D0636F052B19D8DFE803F00803B1
:10366000110808080121201DFFF742FC05468DB90D
:10367000884A536D23F00703616F0B4353650AE0DB
:10368000012104F12400FFF7B9FC0546EFE701260C
:10369000354600E02E46236813F0040F22D0D4F8FC
:1036A0009030052B1AD8DFE803F008031208080849
:1036B0000121201DFFF71CFC054695B9754A936D45
:1036C00023F00703D4F890100B4393650AE001211F
:1036D00004F12400FFF792FC0546EEE7012635468B
:1036E00000E02E46236813F0200F2CD0D4F88C3045
:1036F000B3F1005F1FD012D83BB1B3F1805F17D197
:103700000021201DFFF7F4FB0546DDB9614A536D2A
:1037100023F0E043D4F88C100B43536513E0B3F16E
:10372000804FF2D0B3F1A04FEFD0B3F1405FECD0B7
:103730000126354607E0022104F12400FFF75EFC74
:103740000546E2E72E46236813F0400F2CD0D4F84C
:103750009830B3F5006F1FD012D83BB1B3F5806F2E
:1037600017D10021201DFFF7C3FB0546DDB9494AEB
:10377000936D23F4E053D4F898100B43936513E052
:10378000B3F5805FF2D0B3F5A05FEFD0B3F5406F33
:10379000ECD00126354607E0022104F12400FFF7B2
:1037A0002DFC0546E2E72E46236813F0800F2CD04F
:1037B000D4F89C30B3F5804F1FD012D83BB1B3F58D
:1037C000005F17D10021201DFFF792FB0546DDB9F0
:1037D000304A936D23F46043D4F89C100B439365F7
:1037E00013E0B3F5004FF2D0B3F5204FEFD0B3F5AF
:1037F000C04FECD00126354607E0022104F1240039
:10380000FFF7FCFB0546E2E72E46236813F0080F9E
:103810000CD0D4F88030B3F5805F28D01D4A536DAA
:1038200023F44053D4F880100B435365236813F0FE
:10383000100F0CD0D4F89430B3F5807F20D0154A07
:10384000936D23F44073D4F894100B43936523686D
:1038500013F4002F39D0D4F8A030B3F5803F2CD02A
:10386000B3F5003F1FD0CBB1012635462DE0022134
:1038700004F12400FFF7C2FB0028CFD00126CDE7DA
:10388000022104F12400FFF7B9FB0028D7D001265C
:10389000D5E700BF00440258CFFFFF000021201DE4
:1038A000FFF726FB05467DB9644A936D23F4403348
:1038B000D4F8A0100B43936507E0022104F1240023
:1038C000FFF79CFB0546EEE72E46236813F4802F96
:1038D00024D0D4F88430B3F5001F17D0B3F5401FBF
:1038E0000AD0B3F5801F02D00126354616E0534AB0
:1038F000D36A43F40033D3627DB9504A536D23F445
:103900004013D4F884100B43536507E0012104F100
:103910002400FFF773FB0546EEE72E46236813F4F9
:10392000803F14D0E36C2BB1B3F5803F23D0012648
:1039300035460CE0414AD36A43F40033D36205BBF9
:103940003E4AD36C23F48033E16C0B43D364236889
:1039500013F0005F17D1236813F4003F2DD0E36FFD
:10396000B3F5807F1BD017D9B3F5007F1CD0B3F51A
:10397000407F12D118E00221201DFFF7B9FA054659
:10398000DDE72E46E3E7022104F12400FFF736FBD2
:103990000028E0D00126DEE733B101260DE0274AFA
:1039A000D36A43F40033D362002D3DD1234A536DD3
:1039B00023F44073E16F0B435365236813F4801FB6
:1039C00006D01E4A136D23F00043216F0B4313658D
:1039D000236813F0805F07D0184A136923F48043EB
:1039E000D4F8B4100B431361236813F4001F06D0FE
:1039F000124A136D23F08073A16E0B431365236885
:103A000013F0804F09D00D4B1A6922F400421A615D
:103A10001A69D4F8B8100A431A612368002B05DB31
:103A200006B101263046F8BD2E46C6E7034AD36CE0
:103A300023F04053216D0B43D364F1E70044025857
:103A400008B5FFF7E5F9054B1B6AC3F30213044AF7
:103A5000D35C03F01F03D84008BD00BF00440258E8
:103A60007C91000810B478498C6A8A6AC2F30532E6
:103A7000CB6AC3F30013C96BC1F3CC0103FB01F3A1
:103A8000002A00F0DB8004F0030407EE903AF8EE21
:103A9000677A012C66D0FCB1022C00F0B28007EEF0
:103AA000102AB8EE477A9FED696AC6EE076A664B40
:103AB0009B6BC3F3080307EE103AB8EE477A9FED0D
:103AC000646A67EE867A77EE277AB7EE007A77EE49
:103AD000877A66EEA76A61E05B4B1B6813F0200FE4
:103AE00023D0594C2168C1F3C1015A4BCB4007EE9A
:103AF000103AB8EE477A06EE902AB8EE666AC7EE3C
:103B0000066AA36BC3F3080307EE103AB8EE477AD0
:103B10009FED4F6A67EE867A77EE277AB7EE007AE6
:103B200077EE877A66EEA76A38E007EE102AB8EEDD
:103B3000477A9FED496AC6EE076A434B9B6BC3F316
:103B4000080307EE103AB8EE477A9FED416A67EE38
:103B5000867A77EE277AB7EE007A77EE877A66EE86
:103B6000A76A1BE007EE102AB8EE477A9FED376A86
:103B7000C6EE076A344B9B6BC3F3080307EE103A9B
:103B8000B8EE477A9FED326A67EE867A77EE277A4B
:103B9000B7EE007A77EE877A66EEA76A2A4A936BC9
:103BA000C3F3462307EE103AB8EE477AB7EE006A41
:103BB00037EE067AC6EE877AFCEEE77AC0ED007A39
:103BC000936BC3F3064307EE103AB8EE477A37EE2D
:103BD000067AC6EE877AFCEEE77AC0ED017A936B3F
:103BE000C3F3066307EE903AF8EE677A77EE867ACB
:103BF00086EEA77ABCEEC77A80ED027A5DF8044BB8
:103C0000704707EE102AB8EE477A9FED146AC6EEA9
:103C1000076A0D4B9B6BC3F3080307EE103AB8EE2F
:103C2000477A9FED0B6A67EE867A77EE277AB7EED2
:103C3000007A77EE877A66EEA76AAFE70023036023
:103C400043608360DAE700BF004402580024744AEE
:103C5000000000390090D0030024744C0024F44A82
:103C600010B478498C6A8A6AC2F30552CB6AC3F3EE
:103C70000023496CC1F3CC0103FB01F3002A00F0DF
:103C8000DB8004F0030407EE903AF8EE677A012C2B
:103C900066D0FCB1022C00F0B28007EE102AB8EE1C
:103CA000477A9FED696AC6EE076A664B1B6CC3F3E1
:103CB000080307EE103AB8EE477A9FED646A67EEA4
:103CC000867A77EE277AB7EE007A77EE877A66EE15
:103CD000A76A61E05B4B1B6813F0200F23D0594C9F
:103CE0002168C1F3C1015A4BCB4007EE103AB8EE40
:103CF000477A06EE902AB8EE666AC7EE066A236C2B
:103D0000C3F3080307EE103AB8EE477A9FED4F6A07
:103D100067EE867A77EE277AB7EE007A77EE877AC3
:103D200066EEA76A38E007EE102AB8EE477A9FEDF4
:103D3000496AC6EE076A434B1B6CC3F3080307EEE0
:103D4000103AB8EE477A9FED416A67EE867A77EED1
:103D5000277AB7EE007A77EE877A66EEA76A1BE0DD
:103D600007EE102AB8EE477A9FED376AC6EE076A6B
:103D7000344B1B6CC3F3080307EE103AB8EE477AD6
:103D80009FED326A67EE867A77EE277AB7EE007A91
:103D900077EE877A66EEA76A2A4A136CC3F3462346
:103DA00007EE103AB8EE477AB7EE006A37EE067AB9
:103DB000C6EE877AFCEEE77AC0ED007A136CC3F3A7
:103DC000064307EE103AB8EE477A37EE067AC6EEAB
:103DD000877AFCEEE77AC0ED017A136CC3F30663D1
:103DE00007EE903AF8EE677A77EE867A86EEA77A53
:103DF000BCEEC77A80ED027A5DF8044B704707EE9F
:103E0000102AB8EE477A9FED146AC6EE076A0D4B8A
:103E10001B6CC3F3080307EE103AB8EE477A9FED28
:103E20000B6A67EE867A77EE277AB7EE007A77EE3E
:103E3000877A66EEA76AAFE700230360436083607A
:103E4000DAE700BF004402580024744A0000003939
:103E50000090D0030024744C0024F44A38B5044682
:103E60000268D36823F0A003D360FCF743FC054647
:103E70002368DB6813F0200F07D1FCF73BFC401BE5
:103E8000B0F57A7FF4D9032000E0002038BD70B58A
:103E90000368DA6812F0400F02D00026304670BD89
:103EA00004464FF0FF32DA60FCF724FC054600269A
:103EB0002368DB6813F0400FF0D1FCF71BFC401BBC
:103EC000B0F57A7FF4D9032684F82160F0E700008A
:103ED00010B50446114BDA6822F04002DA609B68A4
:103EE00013F0200F07D1FFF7B9FF0346A0B103235A
:103EF00084F8213010E0094A936823F0200393608E
:103F0000FFF7ACFF034610B1032384F821300349C7
:103F10008A6842F020028A60184610BD00400058AE
:103F200038B5002846D0044690F82130B3B10223BA
:103F300084F821302368CA225A62236853225A62C5
:103F40002046FFF7A4FF034668B12268FF215162B3
:103F500013B9012284F82120184638BD80F820309A
:103F600003F02AFDE3E722689168134B0B4093604E
:103F700021688A68636820690343A0690343134387
:103F80008B60A168E368226843EA0143136120461D
:103F9000FFF79EFF03460028D7D12168CA6C22F0A4
:103FA0000302CA642068C26CE169656929430A4357
:103FB000C264CAE70123CFE7BFFF8FFF002302E0FF
:103FC00001330A38C0B20928FAD81B01DBB2184302
:103FD0007047000090F82030012B5ED070B5164677
:103FE0000D460446012380F82030022380F821305A
:103FF0000368CA225A62036853225A62FFF747FFD6
:10400000034660BB002E36D123689B6813F0400F37
:1040100001D10023EB702878FFF7D0FF0604687801
:10402000FFF7CCFF46EA0026A878FFF7C7FF30432A
:10403000EB7840EA83502268194B034013602268F2
:10404000936823F48023936021688B68EA68286969
:10405000024313438B602046FFF73AFF0346226872
:10406000FF21516213B9012284F82120002284F833
:104070002020184670BD23689B6813F0400F01D1C3
:104080000023EB702B786878000240EA0340AB789D
:104090001843EB7840EA8350CDE702231846704777
:1040A0007F7F7F0090F82030012B4DD070B5012329
:1040B00080F82030022380F821303AB94B7813F091
:1040C000100F03D003F0EF030A334B700E46044683
:1040D00032BBC878FFF772FF05047078FFF76EFFF8
:1040E00045EA0025B078FFF769FF0543307845EAD7
:1040F00040352368CA225A62236853225A622046F6
:10410000FFF7C5FE0346B0B12268FF21516213B923
:10411000012284F82120002284F82020184670BD56
:10412000C8784D782D0245EA00458878054308781F
:1041300045EA4035DDE72268054B2B4053602046B9
:10414000FFF7C6FE0346DFE702231846704700BFAD
:104150003FFFFF00C36B5B09C0680830C00803FB6A
:1041600000007047002800F0978070B504460023D7
:10417000836205684C4B4D4E9D4218BFB54214BF3B
:104180000126002607D0A3F574439D4203D0C368DF
:104190000F2B00F283802046FFF7DCFF26B1444B53
:1041A0009D4201D008287BD83F4A404B9D4218BF12
:1041B000954203D003F580639D4201D1102871D848
:1041C00094F88130002B54D0022384F88130226887
:1041D000136823F001031360A369B3F1806F4ED01D
:1041E000E369A26A1343E26B1343E16822680B435D
:1041F0009360636B626A1343A26B1343A269134318
:104200002269134362691343226A134362681343AA
:10421000E26C1343A2681343A26C1343A16D22689E
:104220000B43D36063686BB92268936823F4C0536F
:1042300043F4006393602268936823F4C06343F4FB
:10424000806393602268136D23F001031365636834
:1042500013F4800F06D02268D36823F00043616D09
:104260000B43D3600020C4F88400012384F881301C
:1042700070BD84F88030204603F0AEFBA4E763688D
:10428000B3F5800FACD1A36B002BA9D122681368C2
:1042900043F480531360A3E7012070470120E7E750
:1042A0000120E5E70120E3E700300140003800404D
:1042B000003C0040F0B4036A23F001030362036A88
:1042C000446885691E4A2A400E68164323F002039B
:1042D0008D682B431B4A1C4DA84218BF90420CBF4F
:1042E000012200220CD005F58045A84214BF00250C
:1042F0000125164FB84203D015B9154DA84205D176
:1043000023F00803CD682B4323F004035AB9114A64
:10431000904214BF002201220C4DA84203D012B9D2
:104320000B4A904205D124F440724C6914438A69C7
:104330001443446086614A6842630362F0BC70477C
:104340008CFFFEFF000001400004014000400140DE
:10435000004801400044014070B4036A23F48073B4
:104360000362036A4468C26922F073020E6816434E
:1043700023F400738A6843EA0223164A164DA842C2
:1043800018BF90420CBF0122002206D123F4006323
:10439000CD6843EA052323F480635AB90F4A90425B
:1043A00014BF002201220E4DA84203D012B90D4ABB
:1043B000904207D124F440544A6944EA02148A69BD
:1043C00044EA02144460C6614A68C263036270BC76
:1043D000704700BF0000014000040140004401405C
:1043E000004001400048014070B4036A23F4805348
:1043F0000362036A4468C26922F4E6420D6842EA35
:10440000052223F400538D6843EA05330F4E104D07
:10441000A84218BFB0420DD005F58045A84214BF90
:104420000025012506F58046B04203D015B9094D97
:10443000A84204D124F480444D6944EA85144460C0
:10444000C2614A680264036270BC704700000140A8
:10445000000401400048014070B4036A23F4803333
:104460000362036A4268446D24F070040D682C43B3
:1044700023F400338D6843EA0543104E104DA842E3
:1044800018BFB0420DD005F58045A84214BF0025E5
:10449000012506F58046B04203D015B9094DA84262
:1044A00004D122F480324D6942EA0522426044651B
:1044B0004A688265036270BC704700BF000001401B
:1044C000000401400048014070B4036A23F48013E3
:1044D0000362036A4468426D22F4E0420D6842EAD6
:1044E000052223F400138D6843EA05530F4E104D47
:1044F000A84218BFB0420DD005F58045A84214BFB0
:104500000025012506F58046B04203D015B9094DB6
:10451000A84204D124F400344D6944EA852444605F
:1045200042654A68C265036270BC70470000014082
:10453000000401400048014010B4036A046A24F0FA
:1045400001040462846924F0F00444EA021223F0B6
:104550000A030B43826103625DF8044B704710B499
:10456000036A23F0100303628469036A24F470442D
:1045700044EA023223F0A00343EA0113826103629A
:104580005DF8044B704700008268034B13401943E9
:1045900041F00701816070478FFFCFFF90F83D30F9
:1045A000DBB2012B01D001207047022380F83D309F
:1045B00002689168074B0B40062B18BFB3F5803F8C
:1045C00005D0136843F001031360002070470020FA
:1045D000704700BF0700010090F83D30DBB2012BAF
:1045E00001D001207047022380F83D300268D36873
:1045F00043F00103D36002689168074B0B40062B20
:1046000018BFB3F5803F05D0136843F00103136072
:104610000020704700207047070001007047704776
:1046200070477047704710B5044603681A6912F066
:10463000020F11D0DA6812F0020F0DD06FF00202F3
:104640001A610123037703689B6913F0030F79D084
:10465000FFF7E6FF0023237723681A6912F0040F9F
:1046600012D0DA6812F0040F0ED06FF004021A6153
:104670000223237723689B6913F4407F68D0204688
:10468000FFF7CEFF0023237723681A6912F0080F83
:1046900012D0DA6812F0080F0ED06FF008021A611B
:1046A000042323772368DB6913F0030F57D02046D8
:1046B000FFF7B6FF0023237723681A6912F0100F63
:1046C00012D0DA6812F0100F0ED06FF010021A61DB
:1046D000082323772368DB6913F4407F46D0204604
:1046E000FFF79EFF0023237723681A6912F0010F5A
:1046F00003D0DA6812F0010F3FD123681A6912F073
:10470000800F03D0DA6812F0800F3DD123681A6958
:1047100012F4807F03D0DA6812F0800F3BD1236857
:104720001A6912F0400F03D0DA6812F0400F39D145
:1047300023681A6912F0200F03D0DA6812F0200FF4
:1047400037D110BDFFF76BFF2046FFF76AFF81E707
:104750002046FFF764FF2046FFF763FF92E72046FD
:10476000FFF75DFF2046FFF75CFFA3E72046FFF75A
:1047700056FF2046FFF755FFB4E76FF001021A61BC
:10478000204603F009F8B8E76FF080021A6120466E
:1047900000F04DFABAE76FF480721A61204600F01B
:1047A00047FABCE76FF040021A612046FFF73AFF74
:1047B000BEE76FF020021A61204600F037FAC0E72A
:1047C00070B40368374CA04214BF00240124B0F138
:1047D000804F14BF224644F00102AAB9324DA842CC
:1047E00014BF00250125314EB0420DD065B905F149
:1047F000804505F58235A84214BF0025012506F540
:104800000066B04200D01DB123F070034D682B4309
:1048100012BB254A904214BF00220122234DA84218
:104820001AD0CAB902F1804202F58232904214BF16
:104830000022012205F50065A8420DD062B91C4A8C
:10484000904214BF0022012205F59A35A84203D0F8
:1048500012B9184A904203D123F44073CA68134333
:1048600023F080034A69134303608A68C2620A68BE
:104870008262114B984214BF234644F001035BB996
:104880000B4B984214BF002301230C4A904203D0E3
:1048900013B9084B984201D10B69036301234361AB
:1048A00070BC704700000140000800400004004058
:1048B0000044014000480140000401400040014024
:1048C00058B310B5044690F83D300BB3022384F87A
:1048D0003D30211D2068FFF773FF012384F8483025
:1048E00084F83E3084F83F3084F8403084F841301A
:1048F00084F8423084F8433084F8443084F84530FA
:1049000084F8463084F8473084F83D30002010BDEC
:1049100080F83C3003F09AF8D8E70120704758B38C
:1049200010B5044690F83D300BB3022384F83D30B7
:10493000211D2068FFF744FF012384F8483084F8E4
:104940003E3084F83F3084F8403084F8413084F8B9
:10495000423084F8433084F8443084F8453084F899
:10496000463084F8473084F83D30002010BD80F890
:104970003C30FFF753FED8E70120704770B4036A5C
:1049800023F010030362036A446885691A4A2A40C7
:104990000E6842EA062623F020038A6843EA0213DF
:1049A000164A174DA84218BF90420CBF01220022A0
:1049B00006D123F08003CD6843EA051323F04003BA
:1049C0005AB9104A904214BF002201220E4DA8424B
:1049D00003D012B90D4A904207D124F440644A69C9
:1049E00044EA82048A6944EA8204446086614A682F
:1049F0008263036270BC7047FF8CFFFE00000140C1
:104A000000040140004401400040014000480140D2
:104A100090F83C30012B2ED010B50446012380F8CD
:104A20003C30142A0FD8DFE802F00B0E0E0E120EE7
:104A30000E0E160E0E0E1A0E0E0E1E0E0E0E22006C
:104A40000068FFF737FC002084F83C0010BD0068C8
:104A5000FFF794FFF7E70068FFF77EFCF3E70068D5
:104A6000FFF7C2FCEFE70068FFF7F6FCEBE7006832
:104A7000FFF72AFDE7E70220704710B4846824F4AA
:104A80007F4442EA03230B43234383605DF8044BD6
:104A90007047000090F83C30012B74D010B50446EC
:104AA000012380F83C30022380F83D300268906892
:104AB000364B034093600B68602B50D01DD9B3F187
:104AC000101F2ED035D8B3F5005F3CD0B3F5801F52
:104AD00027D0702B0AD1CB684A6889682068FFF715
:104AE000CCFF2268936843F077039360012384F836
:104AF0003D30002084F83C0010BD202B11D00DD992
:104B0000402B36D0502B11D1CA6849682068FFF776
:104B100013FD50212068FFF737FDE7E70BB1102B9D
:104B2000E4D119462068FFF72FFDDFE7302BDDD1F8
:104B3000F7E7174A9342F4D010329342F1D0203A6B
:104B40009342D3D1EDE7CB684A6889682068FFF7C4
:104B500094FF2268936843F480439360C6E7CA6871
:104B600049682068FFF7FBFC60212068FFF70CFD17
:104B7000BCE7CA6849682068FFF7DEFC402120686E
:104B8000FFF702FDB2E70220704700BF8800CEFFAA
:104B90003000100090F83C30012B41D070B401235C
:104BA00080F83C30022380F83D3003685A689D68E5
:104BB0001C4E1D4CA34218BFB34203D122F4700215
:104BC0004C68224322F070020C6822435A6003684A
:104BD000144AB3F1804F18BF934213D0A2F57C4220
:104BE00093420FD002F5806293420BD002F58062AF
:104BF000934207D002F57842934203D0A2F56C426B
:104C0000934204D125F080058A6815439D600123F5
:104C100080F83D30002380F83C30184670BC704767
:104C200002207047000001400004014070477047B7
:104C3000704700002DE9F04387B00446016883689F
:104C40000269134342691343C2691343426E13431B
:104C50000868884A02401A430A602268536823F4AD
:104C60004053E1680B435360A1692268824B9A422A
:104C700001D0236A19439068804B03400B43936033
:104C80002268D36A23F00F03616A0B43D36223685F
:104C90007B4A93421FD07B4A934259D07A4A93422F
:104CA00070D07A4A934200F08780794A934200F0AC
:104CB0009D80784A934200F0B380774A934200F097
:104CC000F180764A934200F004816B4A934200F0EF
:104CD000178180222DE1724A526D02F03802282A93
:104CE00034D8DFE812F029003300330033003300FA
:104CF0003300330033002501330033003300330029
:104D00003300330033002B00330033003300330013
:104D10003300330033002D00330033003300330001
:104D20003300330033002F003300330033003300EF
:104D300033003300330031000122FAE00822F8E0AA
:104D40001022F6E02022F4E04022F2E08022F0E09F
:104D5000534A526D02F00702052A11D8DFE812F01B
:104D60000600370108000A000C000E000022E0E0F7
:104D70000822DEE01022DCE02022DAE04022D8E047
:104D80008022D6E0464A526D02F00702052A11D869
:104D9000DFE812F006001F0108000A000C000E00F8
:104DA0000022C6E00822C4E01022C2E02022C0E0B7
:104DB0004022BEE08022BCE0394A526D02F0070278
:104DC000052A11D8DFE812F00600070108000A00E2
:104DD0000C000E000022ACE00822AAE01022A8E09D
:104DE0002022A6E04022A4E08022A2E02C4A526DBC
:104DF00002F00702052A11D8DFE812F00600EF00E2
:104E000008000A000C000E00002292E0082290E048
:104E100010228EE020228CE040228AE0802288E06E
:104E20001F4A526D02F03802282A20D8DFE802F02B
:104E3000151F1F1F1F1F1F1FD71F1F1F1F1F1F1FD4
:104E4000171F1F1F1F1F1F1F191F1F1F1F1F1F1F80
:104E50001B1F1F1F1F1F1F1F1D00012269E00822AB
:104E600067E0102265E0202263E0402261E08022BA
:104E70005FE000BFF369FFCF000C0058FFF4FF11A3
:104E8000001001400044004000480040004C004039
:104E9000005000400014014000780040007C0040B9
:104EA00000440258824A526D02F00702052A0ED8C9
:104EB000DFE802F003970507090B002239E008221A
:104EC00037E0102235E0202233E0402231E080221A
:104ED0002FE0774A526D02F00702052A0ED8DFE86C
:104EE00002F003820507090B002222E0082220E0DD
:104EF00010221EE020221CE040221AE0802218E04E
:104F000002F50E32926D02F00702052A0ED8DFE894
:104F100002F0036C0507090B02220AE0082208E0F0
:104F2000102206E0202204E0402202E0802200E07D
:104F3000042260498B425AD0E369B3F5004F00F078
:104F4000C380402A00F27981DFE812F027014B018B
:104F5000770177014E0177017701770153017701DE
:104F600077017701770177017701770158017701A0
:104F70007701770177017701770177017701770171
:104F800077017701770177017701770125017701B3
:104F90007701770177017701770177017701770151
:104FA0007701770177017701770177017701770141
:104FB0007701770177017701770177017701770131
:104FC0007701770177017701770177016401042286
:104FD000AFE70422ADE70422ABE70422A9E70422ED
:104FE000A7E70422A5E70422A3E70422A1E7082AF1
:104FF00048D007D9202A0ED0402A54D0102A46D0B3
:105000000120E3E0022A08D0042AF9D103A8FEF720
:1050100029FD049803E0284804E0FEF711FD00286C
:1050200000F0FD80626A254B33F81220B0FBF2F3EA
:10503000656805EB4501994200F2F380B3EB053F4B
:1050400000F2F1804FF0000892B200234146FBF7D6
:1050500047F90F0247EA1067060268082A464346E6
:1050600016EB000847F1000940464946FBF738F9BE
:10507000A0F54072124B9A4200F2D7802368D860A4
:105080000020A3E06846FEF7EBFD0198C7E7084B58
:105090001B6813F0200F09D0054B1B68C3F3C10335
:1050A0000848D840BBE74FF40040BBE70548B9E7E4
:1050B00000440258000C005800093D0054910008BB
:1050C000FFFC0F000090D003402A00F2B080DFE820
:1050D00002F02344AEAE47AEAEAE4CAEAEAEAEAE18
:1050E000AEAE51AEAEAEAEAEAEAEAEAEAEAEAEAE3D
:1050F000AEAE21AEAEAEAEAEAEAEAEAEAEAEAEAE5D
:10510000AEAEAEAEAEAEAEAEAEAEAEAEAEAEAEAEBF
:10511000AEAE5D004C4804E0FDF79CFE002800F0B8
:105120008880626A494B33F81230B0FBF3F0626852
:10513000530803EB4003B3FBF2F39BB2A3F110015E
:105140004FF6EF72914276D823F00F02C3F3420379
:1051500013432268D360002038E0FDF78DFEDDE7C1
:1051600003A8FEF77FFC0498D8E76846FEF778FDB1
:105170000198D3E7364B1B6813F0200F09D0344B4E
:105180001B68C3F3C1033348D840C7E74FF400405E
:10519000C7E73048C5E72C4803E0FDF75BFE002871
:1051A0004DD0626A294B33F81230B0FBF3F06368DC
:1051B00000EB5300B0FBF3F080B2A0F110024FF609
:1051C000EF739A423DD82368D86000200123A4F8E9
:1051D0006A30A4F868300023E366236707B0BDE8AF
:1051E000F083FDF749FEDAE703A8FEF73BFC0498DD
:1051F000D5E76846FEF734FD0198D0E7144B1B68ED
:1052000013F0200F09D0124B1B68C3F3C1031148E0
:10521000D840C4E74FF40040C3E70E48C1E7002080
:10522000D4E70120D2E70120D0E70120CEE701201A
:10523000CCE70020CAE70120C8E70120C6E700202C
:10524000C4E70120C2E700BF00093D0054910008F7
:10525000004402580090D003836A13F0010F06D077
:105260000268536823F40033C16A0B435360836AB6
:1052700013F0020F06D00268536823F48033016BE9
:105280000B435360836A13F0040F06D0026853681F
:1052900023F48023416B0B435360836A13F0080FA0
:1052A00006D00268536823F40043816B0B435360BC
:1052B000836A13F0100F06D00268936823F48053BA
:1052C000C16B0B439360836A13F0200F06D0026812
:1052D000936823F40053016C0B439360836A13F0CB
:1052E000400F0AD00268536823F48013416C0B43CB
:1052F0005360436CB3F5801F0BD0836A13F0800FAB
:1053000006D00268536823F40023C16C0B4353603A
:1053100070470268536823F4C003816C0B435360E9
:10532000EBE72DE9F04104460F4616469846069DE8
:105330002368DB6937EA03030CBF01230023B34270
:105340003FD1B5F1FF3FF3D0FBF7D4F9A0EB080054
:10535000A84222D80DB323681A6812F0040FE7D0D0
:10536000DA6912F4006FE3D04FF400621A62226827
:10537000136823F4D07313602268936823F0010349
:1053800093602023C4F88030C4F88430C4F8883097
:10539000002384F87C30032014E02268136823F48F
:1053A000D07313602268936823F001039360202375
:1053B000C4F88030C4F88430002384F87C300320A3
:1053C00000E00020BDE8F08130B583B00446002342
:1053D000C0F88830FBF78EF9054623681B6813F088
:1053E000080F0ED123681B6813F0040F17D1202378
:1053F000C4F88030C4F88430002084F87C0003B006
:1054000030BD6FF07E430093034600224FF400113D
:105410002046FFF786FF0028E4D00320EFE76FF077
:105420007E4300932B4600224FF480012046FFF775
:1054300078FF0028DBD00320E1E7002842D038B510
:105440000446C369B3F5004F3ED08368002B3DD1BD
:105450000D46D0F8803063B32423C4F8803022682E
:10546000136823F0010313602046FFF7E3FB0128D4
:105470002DD0A36A13BB2268536823F400635360E2
:105480002268936823F02A0393602268536843F4E8
:10549000804353602368596821F0200129435960F3
:1054A0002268136843F0010313602046FFF78CFF66
:1054B0000DE080F87C3002F0E1FACDE72046FFF7FE
:1054C000CBFED8E701207047012000E0012038BD65
:1054D00010B485B002461A4B93E8030004AC04E90B
:1054E00003006C46083393E8030084E80300536E1E
:1054F000FBB111688B68C3F34263886804A901EBB0
:10550000507010F8081C090110F8100C91FBF0F114
:10551000A2F86A1004A90B4413F8081C090113F837
:10552000103C91FBF3F3A2F8683005B05DF8044B32
:1055300070470123A2F86A30A2F86830F5E700BF8F
:105540006C91000890F87C30012B18D0012380F872
:105550007C302423C0F8803003681A68196821F071
:105560000101196022F000520023436601680A60BD
:105570002022C0F8802080F87C3018467047022036
:10558000704738B590F87C30012B1DD004460123BC
:1055900080F87C302423C0F8803003681D681A68C6
:1055A00022F001021A600268936823F060431943F5
:1055B0009160FFF78DFF23681D602023C4F88030C1
:1055C000002084F87C0038BD0220FCE738B590F854
:1055D0007C30012B1DD00446012380F87C3024232D
:1055E000C0F8803003681D681A6822F001021A6052
:1055F0000268936823F0606319439160FFF768FFC6
:1056000023681D602023C4F88030002084F87C00CB
:1056100038BD0220FCE70000002301330C4A93420E
:1056200011D80269002AF8DA036943F00103036123
:1056300000230133064A934207D8026912F0010F92
:10564000F7D100207047032070470320704700BF48
:10565000400D030084B010B5044603A880E80E0096
:10566000089B012B1DD1A36B23F48033A363E26855
:105670001A4B1340E360E36823F44013E3600F9B8D
:10568000012B09D02046FFF7C7FF069B012B1BD03B
:10569000BDE8104004B07047E36843F48013E36052
:1056A000F0E7E36843F04003E3602046FFF7B4FF10
:1056B0000C9B23B9A36B43F48033A363E5E7A36B8F
:1056C00023F48033A363E0E7A36843F00603A360F9
:1056D000A36843F02003A360DAE700BFBFFFBDFF6C
:1056E000022A0AD00921C26822F47052C260C3683B
:1056F00043EA8123C36000207047274B0B44274AAD
:10570000934239D9264B0B44264A934236D9264B2D
:105710000B44264A934233D9254B0B4402F5C3323E
:10572000A03293422ED9234B0B44234A93422BD9C8
:10573000224B0B4402F5922202F57872934225D94E
:105740001F4B0B4402F5C32202F5207293421FD96E
:105750001C4B0B4402F5B71202F55872934219D94B
:10576000194B0B4402F5122202F5F862934201D95B
:105770000621B8E70721B6E70F21B4E70E21B2E70B
:105780000D21B0E70C21AEE70B21ACE70A21AAE717
:105790000921A8E70821A6E7405327FFFF340C00A2
:1057A000401E1BFF3F420F0000DC0BFF7F4F12002B
:1057B000808CF9FE60B6E5FE5FE3160000D3CEFEF6
:1057C000C05BB3FE00CA91FEE05459FE836843F00B
:1057D0000103836000207047836823F00103836026
:1057E0000020704708B5C36823F0C043C360012997
:1057F00009D069B9C36843F08043C3603220FAF727
:105800007FFF002008BDC36843F00053C360F5E785
:105810000120F7E7890141F02001016100230133F4
:10582000054A934205D8026912F0200FF7D10020F3
:1058300070470320704700BF400D03001023036131
:1058400000230133054A934205D8026912F0100F74
:10585000F7D1002070470320704700BF400D0300C0
:10586000D0F800381943C0F8001800207047000035
:1058700084B02DE9F041044607A880E80E002546D3
:10588000002306E003F1400204EB82020021516094
:1058900001330E2BF6D9119B23BBD4F8043843F007
:1058A0000203C4F80438A36B23F40013A363236832
:1058B00043F040032360236843F080032360002308
:1058C000C4F8003E04F50066D4F80038C4F8003887
:1058D0000C9B012B10D1099B4BB900212046FFF7EF
:1058E000BFFF0DE0A36B43F40013A363E7E70121BF
:1058F0002046FFF7B5FF03E003212046FFF7B0FF86
:1059000010212046FFF786FF804608B14FF00108BE
:105910002046FFF793FF08B14FF0010800233361E1
:105920007361F3610AE0C3B94FF00060C2F8000987
:1059300000220A614FF67F328A600133079999424B
:1059400010D905EB431202F51061D2F800090028C6
:10595000E9DB0020C2F80009EAE74FF09040C2F806
:105960000009E5E700230AE0BBB14FF09047C2F819
:10597000007B002202614FF67F3282600133994240
:1059800010D905EB431202F53060D2F8007B002FEE
:10599000EADB0027C2F8007BEBE74FF00067C2F8B4
:1059A000007BE6E7336923F4807333610023A3614E
:1059B0006FF0804363610A9B1BB9A36943F0100336
:1059C000A361A2690A4B1343A3610D9B1BB1A36999
:1059D00043F00803A361119B012B04D04046BDE8AE
:1059E000F04104B07047A269024B1343A361F5E78D
:1059F00000383C8004000040D0F8083813F006035B
:105A000005D0062B18BF022B03D1022070470020BF
:105A100070470F207047000070B40B784A78012A55
:105A200020D0D0F81C2803F00F060124B44042EA2D
:105A30000442C0F81C2800EB4310D0F8003B13F4DC
:105A4000004F0CD1D0F8002B8B68C3F30A03C97840
:105A500043EA81431343134A1A43C0F8002B002042
:105A600070BC7047D0F81C4803F00F06B24092B2E9
:105A70002243C0F81C2800EB4310D0F8002912F490
:105A8000004FECD1D0F800498A68C2F30A02C97805
:105A900042EA814242EA83532343024A1A43C0F84E
:105AA0000029DCE70080001030B40B784A78012A26
:105AB00024D000EB4313D3F8002B002A50DBD0F89E
:105AC0003C580A7802F00F02012404FA02F225EA97
:105AD0000242C0F83C28D0F81C28097801F00F01D8
