:020000040800F2
:1000000000000220DD830008D57D0008D77D0008B0
:10001000D97D0008DB7D0008DD7D000800000000C0
:10002000000000000000000000000000DF7D00086C
:10003000E17D000800000000E37D00082D84000839
:100040002D8400082D8400082D8400082D840008CC
:100050002D8400082D8400082D8400082D840008BC
:100060002D8400082D8400082D8400082D840008AC
:100070002D8400082D8400082D8400082D8400089C
:100080002D8400082D8400082D840008E57D0008DB
:100090002D840008F57D00082D8400082D840008BB
:1000A0002D840008057E00082D8400082D8400089A
:1000B0002D8400082D8400082D8400082D8400085C
:1000C0002D8400082D8400082D8400082D8400084C
:1000D0002D8400082D8400082D8400082D8400083C
:1000E0002D8400082D840008000000002D840008E5
:1000F0002D8400082D8400082D8400082D8400081C
:100100002D8400082D8400082D8400082D8400080B
:100110002D8400082D8400082D8400082D840008FB
:100120002D8400082D8400082D8400082D840008EB
:100130002D8400082D8400082D8400082D840008DB
:1001400000000000000000000000000000000000AF
:100150002D8400082D8400082D8400082D840008BB
:100160002D8400082D8400082D8400082D840008AB
:100170002D840008157E00082D8400082D840008B9
:100180002D8400082D8400082D8400082D8400088B
:100190002D8400082D8400082D8400082D8400087B
:1001A0002D8400082D8400082D8400082D8400086B
:1001B0002D8400082D8400082D8400082D8400085B
:1001C0002D8400082D8400082D8400082D8400084B
:1001D0002D8400082D8400082D8400082D8400083B
:1001E0002D8400082D8400082D8400082D8400082B
:1001F0002D8400082D8400082D8400082D8400081B
:100200002D8400082D8400082D8400082D8400080A
:100210002D8400082D8400082D8400082D840008FA
:100220002D8400082D8400082D84000800000000A3
:100230002D8400082D840008000000002D84000893
:100240002D8400082D8400082D8400082D840008CA
:100250002D8400082D8400082D8400082D840008BA
:100260002D8400082D8400082D8400082D840008AA
:100270002D8400082D8400082D8400080000000053
:100280002D8400082D8400082D8400080000000043
:08029000000000002D840008AD
:1002A00010B5054C237833B9044B13B10448AFF3B0
:1002B00000800123237010BDE80100200000000031
:1002C0003894000808B5034B1BB103490348AFF34A
:1002D000008008BD00000000EC01002038940008F8
:1002E00001F0FF01102A2BDB10F0070F08D010F8E7
:1002F000013B013A8B422DD010F0070F42B3F6D1EB
:10030000F0B441EA012141EA014122F007047FF003
:1003100000070023F0E80256083C85EA010586EA5A
:10032000010685FA47F5A3FA87F586FA47F6A5FA96
:1003300087F68EB9EED1F0BC01F0FF0102F00702A2
:1003400032B110F8013B013A83EA010313B1F8D14D
:100350000020704701387047002D06BF354603382E
:10036000073815F0010F07D1013015F4807F02BF67
:10037000013015F4C03F0130F0BC0138704700BFB8
:1003800053B94AB9002908BF00281CBF4FF0FF31FC
:100390004FF0FF3000F06EB9ADF1080C6DE904CEFE
:1003A00000F006F8DDF804E0DDE9022304B0704750
:1003B0002DE9F047089D04468C46002B40F08380D1
:1003C0008A42174647D9B2FA82F242B1C2F12000FE
:1003D00024FA00F09140974040EA010C94404FEA23
:1003E0001748230CBCFBF8F61FFA87FE08FB16C162
:1003F00043EA014306FB0EF1994209D9FB1806F1C5
:10040000FF3080F01981994240F21681023E3B4450
:100410005B1AA4B2B3FBF8F008FB103344EA0344C0
:1004200000FB0EFEA64509D93C1900F1FF3380F010
:100430000581A64540F2028102383C4440EA06406C
:10044000A4EB0E0400261DB1D4400023C5E90043EF
:100450003146BDE8F08702B9FFDEB2FA82F2002A27
:1004600050D1CB1B4FEA174E1FFA87F80126B3FB7A
:10047000FEFC210C0EFB1C3341EA034108FB0CF38C
:100480008B4207D979180CF1FF3002D28B4200F26F
:10049000E9808446C91AA3B2B1FBFEF00EFB10112D
:1004A00043EA014408FB00F8A04507D93C1900F1D4
:1004B000FF3302D2A04500F2D9801846A4EB08040D
:1004C00040EA0C40BFE78B4209D9002D00F0B18013
:1004D0000026C5E9000130463146BDE8F087B3FA91
:1004E00083F6002E4AD18B4202D3824200F2B880BA
:1004F000841A61EB030101208C46002DA8D0C5E9C8
:10050000004CA5E7C2F1200320FA03F6974001FA58
:1005100002F04FEA174ED9403043030CB1FBFEF610
:100520001FFA87F80EFB161143EA014306FB08F198
:10053000994204FA02F409D9FB1806F1FF3C80F055
:100540008D80994240F28A80023E3B445B1A81B220
:10055000B3FBFEF00EFB103341EA034100FB08F34E
:100560008B4207D9791800F1FF3C73D28B4271D9C5
:1005700002383944CB1A40EA064678E7C6F1200C27
:1005800003FA06F422FA0CF31C4320FA0CF701FAE2
:1005900006F34FEA144E21FA0CF11F433B0CB1FB5A
:1005A000FEF91FFA84F80EFB191143EA014109FB19
:1005B00008FA8A4502FA06F200FA06F308D9611829
:1005C00009F1FF3048D28A4546D9A9F102092144F0
:1005D000A1EB0A01BFB2B1FBFEF00EFB101147EA1E
:1005E000014700FB08F8B84507D9E71900F1FF31CA
:1005F0002ED2B8452CD90238274440EA0940A7EB4F
:100600000807A0FB02894F45C64649461AD317D0B2
:100610005DB1B3EB0E0267EB010707FA0CFCF24089
:100620004CEA0202F740C5E9002700263146BDE842
:10063000F0872E4628460BE70646E9E61846FDE613
:100640004345E5D2B8EB020E69EB04010138DFE760
:100650000846D2E760468DE78146B9E7664675E70A
:1006600030464AE7ACF1020C394413E702383C4407
:1006700024E700BF704700BF10B5032000F056F814
:1006800002F094F90F498B69C3F303230E4AD35C3C
:1006900003F01F03D8408B6903F00F03D35C03F012
:1006A0001F0320FA03F3094A1360094B1860002066
:1006B00007F050FB10B10124204610BD044607F09E
:1006C000CBF9F9E700440258CC9400081C01002043
:1006D00018010020034B1B78034A11680B44136078
:1006E000704700BF000000200C060020014B186876
:1006F000704700BF0C06002038B50446FFF7F6FF30
:100700000546B4F1FF3F02D0044B1B781C44FFF7B1
:10071000EDFF401BA042FAD338BD00BF000000200F
:10072000014B1868000C70470010005C0649CB684C
:1007300023F4E0631B041B0C000200F4E06003439D
:10074000024A1A43CA60704700ED00E00000FA0553
:1007500030B4154BDB68C3F30223C3F10704042C48
:1007600028BF04241D1D062D14D9033B4FF0FF356F
:1007700005FA04F421EA0401994005FA03F322EA98
:1007800003031943002807DB0901C9B2074B1954B9
:1007900030BC70470023E9E700F00F000901C9B23F
:1007A000034B1954F4E700BF00ED00E000E400E063
:1007B00014ED00E0002807DB00F01F0240090123D0
:1007C0009340024A42F82030704700BF00E100E049
:1007D00030B4446B0268D2F88410704B194041EA7F
:1007E0008401C2F884100268D2F8841021F47F01D9
:1007F000856B41EA0541C2F88410826B224404688B
:10080000D4F88810194041EA8201C4F888100468BD
:10081000D4F8881021F4FE01C56B41EA0541C4F803
:100820008810C16B02EB41020468D4F8A010194093
:1008300041EA8201C4F8A0100468D4F8A01021F4A1
:10084000FE01056C41EA0541C4F8A010046C416C3E
:1008500001FB04240268D2F8B010194041EA840177
:10086000C2F8B0100268D2F8B01021F4FE01856C15
:1008700041EA0541C2F8B010826CC16C01FB024430
:100880000268D2F8AC10194041EA8401C2F8AC10F9
:10089000026D416D01FB02420468D4F8F01019406A
:1008A00041EA8201C4F8F0100468D4F8F01021F491
:1008B0007C11856D41EA0541C4F8F010816D02EBB1
:1008C00041020468D4F8C0100B4043EA8202C4F825
:1008D000C0200268D2F8C03023F47C13C16D43EA13
:1008E0000143C2F8C0300268D2F8C03023F07C5314
:1008F000016E43EA0163C2F8C030436B284A1A44D0
:100900009200C266836B02EB83030367C16B03EB48
:10091000C1034367046C416C01FB04F103EB8103E9
:100920008367846CC16C01FB04F103EB8103C36733
:10093000046D416D01FB04F103EB8103C0F88030CD
:10094000816D03EBC103C0F88430C46D856E05FB77
:1009500004F403EB8403C0F88830016E01FB05F159
:1009600003EB8103C0F890300E498B4207D8D0F8D2
:10097000903093420ED9002342F8043BF7E7D0F8B9
:100980009C3043F02003C0F89C30032380F898305B
:10099000012000E0002030BC704700BF0300FFFFD3
:1009A000002B0010FCD30040F0B44C68002C2FD179
:1009B0000E698C6826430C6846EA84460D6ACC6949
:1009C00044EA05648D692C434D692C43CD682C4362
:1009D000D0F88470806E03FB00F307EB830547F8C3
:1009E00023606C6008350020CB890E4CE35C8342A9
:1009F00016D91418E678A3781B0443EA06636478D2
:100A000043EA0423145C234345F8043B0430EBE73A
:100A10000C698E6826430C68264346F08046CDE775
:100A2000F0BC70475094000830B595B004464C2295
:100A3000A04901A807F036FD002C00F0388123689A
:100A40009D4A934220D094F898300BB32268936962
:100A500023F010039361FFF749FE054623689A6966
:100A600012F0080F1AD0FFF741FE431B0A2BF5D9ED
:100A7000D4F89C3043F00103C4F89C30032384F87D
:100A80009830012015B030BD03F580736360DAE75C
:100A900084F89930204606F0F1FFD7E79A6942F0D2
:100AA00001029A61FFF722FE054623689A6912F057
:100AB000010F0FD1FFF71AFE401B0A28F5D9D4F811
:100AC0009C3043F00103C4F89C30032384F8983031
:100AD0000120D7E79A6942F002029A61237C012B38
:100AE00040D02268936943F040039361637C012BFB
:100AF0003ED02268936923F480439361A37C012B49
:100B00003CD02268936943F48053936122689369CF
:100B100023F44073A1680B4393612268936923F027
:100B2000A40393612268136923F010031361E3683F
:100B3000012B29D0002B2CD0022B00F09B802268A7
:100B4000936943F0800393612268136943F01003B3
:100B50001361E368032B1CD12268936943F02003DF
:100B6000936116E02268936923F040039361BDE727
:100B70002268936943F480439361BFE722689369D5
:100B800023F480539361C1E72268936943F004031F
:100B90009361A3695A1EE369013B1B0243EA426366
:100BA000226A013A13436269013A216843EA024327
:100BB000CB61A368B3F5407F62D0236E33B1226866
:100BC000D2F8C030616E0B43C2F8C030E36D226EC4
:100BD000D3420DD02168D1F8C83023F00703A26EAC
:100BE00014A800EB820252F84C2C1343C1F8C83011
:100BF000236C6BB12168D1F8BC3023F00703626C21
:100C000014A800EB820252F84C2C1343C1F8BC30FC
:100C1000A36C73B12168D1F8BC3023F07003E26C8F
:100C200014A800EB820252F84C2C43EA0213C1F8DC
:100C3000BC30236D73B12168D1F8BC3023F4E0637C
:100C4000626D14A800EB820252F84C2C43EA022396
:100C5000C1F8BC302268184B9A4222D00023C4F855
:100C60009430C4F89C30012384F898302046FFF774
:100C7000AFFD07E72268936943F02003936188E79B
:100C8000A36A013BE26A013A43EA0223226B013A7A
:100C900043EA0213626A013A216843EA0243CB60E5
:100CA0008BE76268936823F003039360D6E7012023
:100CB000E8E600BF6094000800A0004090F898307B
:100CC000013BDBB2012B07D9D0F89C3043F0020383
:100CD000C0F89C3001207047CB680A68D2B9072B56
:100CE0000ED08A68DB0643EA82730A6943EA02434C
:100CF0004A691343C26E496842F8213000207047A8
:100D00000A69CB691B0243EA02438A69134343F031
:100D10006053EFE710B40A6942EA4372072B0ED022
:100D20008C684B6943EA8473006F496800EBC10427
:100D300040F83120636000205DF8044B70478B69F8
:100D4000F2E710B490F89840E4B2012C09D0D0F842
:100D50009C3043F00403C0F89C3001205DF8044B44
:100D60007047920042EA011242EA43020368019985
:100D70000A43C3F880200020F0E790F89830DBB2F7
:100D8000012B07D0D0F89C3043F00403C0F89C300E
:100D900001207047022380F898300268936923F09D
:100DA000010393610023C0F89C301846704738B5A2
:100DB000044690F89830DBB2022B2BD10368D3F8AD
:100DC000C00010F07C5F0CD0D3F8C40010F4001FFA
:100DD0000FD0D4F89C3043F40073C4F89C30012049
:100DE0001FE0D4F89C3043F02003C4F89C3001206D
:100DF00017E0D3F8C450C5F304452B462046FFF74F
:100E0000D3FD22680123AB40C2F8D030C4F894303F
:100E1000002006E0D0F89C3043F00803C0F89C3076
:100E2000012038BDF0B490F89840E4B2022C40F0B4
:100E3000D28040290CD041293CD0046D8C426BD823
:100E4000D0F89C3043F02003C0F89C300120C9E06A
:100E50000468D4F8A05015F4FE0F0CD0D4F8A450B8
:100E600015F07F0F0FD1D0F89C3043F48073C0F899
:100E70009C300120B6E0D0F89C3043F02003C0F84D
:100E80009C300120AEE0D4F8A450C5F3006C15F0FE
:100E9000807F03D0D4F8A0504FF0000CD4F8A440C9
:100EA000C4F30524A444446F456C0CFB05F504EB26
:100EB000850439E00468D4F8B05015F4FE0F0CD066
:100EC000D4F8B45015F07F0F0FD1D0F89C3043F414
:100ED0008073C0F89C30012084E0D0F89C3043F04F
:100EE0002003C0F89C3001207CE0D4F8B450C5F356
:100EF000006C15F0807F03D0D4F8B0504FF0000C98
:100F0000D4F8B440C4F30524A444846FC56C0CFB2E
:100F100005F504EB850407E0C46F456D01FB05F59D
:100F200004EB85044FF0000C256805F08045556002
:100F3000002D2CD12568C5F38A451560256805F07C
:100F400000559560256805F000451561A588D561B7
:100F5000656805F47025D560656805F480155561F0
:100F6000656805F400159561E57905F07F05156262
:100F70006568ED0F556204F108050024D6891A4F03
:100F8000BE5DA64208D92E5D1E550134F6E72568E0
:100F900025F060451560D1E740290AD041290DD0E0
:100FA0001F290FD80268012303FA01F1C2F8981033
:100FB00002E00368C3F8A8C0002013E00368C3F888
:100FC000B8C0F9E701F01F010268012303FA01F13B
:100FD000C2F89C10F0E7D0F89C3043F00803C0F84A
:100FE0009C300120F0BC70475094000890F8983075
:100FF000013BDBB2012B07D9D0F89C3043F0020350
:10100000C0F89C300120704710B403689C6D0C42FE
:1010100024D1DC6D44F00104DC6511F4007F05D0BF
:101020000468D4F8E0301343C4F8E03011F4806F62
:1010300005D00468D4F8E4301A43C4F8E42000680A
:10104000436D0C4A0A40134343650B4A536943EA14
:101050009171516100205DF8044B70479C6D31EA3D
:10106000040402D00324DC65D7E7DC6D44F00204FD
:10107000DC65D2E7FFFFCF3F00A800407047704714
:1010800070477047704770477047704770477047A8
:101090007047704770477047704770472DE9F047B9
:1010A0000446954B1A695B694FEA837A0AEA827AA9
:1010B00003681A6D02F470495A6D09EA02091A6D43
:1010C00002F00F085A6D08EA02081F6D07F0F007DA
:1010D0005A6D17401D6D05F071555A6D15401E6D06
:1010E00006F060765A6D16405A6D12F4807F03D078
:1010F0001A6D12F4807F78D123685A6D12F4806FD4
:1011000003D01A6D12F4806F78D1BAF1000F40F05D
:101110008480B9F1000F40F08C80B8F1000F40F0EE
:101120009480002F40F09D8023685A6D12F4006F68
:1011300004D01A6D12F4006F40F09D8023685A6D40
:1011400012F4007F04D01A6D12F4007F40F09D80ED
:1011500023685A6D12F4002F04D01A6D12F4002F78
:1011600040F0A28023685A6D12F4803F04D01A6DBB
:1011700012F4803F40F0A28023685A6D12F4802F51
:1011800004D01A6D12F4802F40F0A28023685A6DAB
:1011900012F4003F0FD01A6D12F4003F0BD04FF441
:1011A00000321A65544B00221A61D4F89C3043F087
:1011B0008003C4F89C30002E40F094804DB1236829
:1011C0001D65AA0F4C4B1A61D4F89C301D43C4F81E
:1011D0009C502268494B9A4200F09280D4F89C308F
:1011E000002B40F0ED80BDE8F0874FF480721A6567
:1011F000414B00221A61FFF74AFF7DE7D3F8DC106C
:10120000D3F8E4204FF4806018653B4B0020186150
:1012100011402046FFF737FF77E7236800221A6561
:101220004FEA9A72344B1A6151462046FFF726FF67
:101230006FE72368C3F850904FEA99722E4B1A61FA
:1012400049462046FFF71BFF67E72368C3F8508035
:101250004FEA9872284B1A614146204606F08EFBF1
:101260005FE723681F65BA0F234B1A613946204692
:10127000FFF706FF58E74FF400621A651E4B002285
:101280001A612046FFF7FDFE58E7D3F8D810D3F8CF
:10129000E0204FF400701865174B002018611140D2
:1012A0002046FFF7EFFE53E74FF400221A65124B7A
:1012B00000221A612046FFF7E7FE53E74FF4803221
:1012C0001A650D4B00221A612046FFF7DEFE53E738
:1012D0004FF480221A65084B00221A612046FFF75E
:1012E000D5FE53E723681E65B20F034B1A613146E2
:1012F0002046FFF7CEFE61E700A8004000A00040B6
:1013000063689A6812F0030F3FF468AF196A01F03E
:101310000F015A6A186A00F03008586A08EA000893
:101320001F6A07F4C077586A07401E6A06F4FC4635
:10133000586A06401D6A05F4F025586A05401140B8
:101340001FD1B8F1000F21D163685A6A12F0400F23
:1013500003D01A6A12F0400F20D157BB36B1636830
:101360001E62D4F89C301E43C4F89C60002D3FF4EC
:1013700035AF63681D62D4F89C301D43C4F89C509F
:101380002CE719622046FFF785FEDAE76368C3F8A9
:10139000208041462046FFF77EFED5E7D96BDA6B09
:1013A0004020186202F03F02090C2046FFF774FE4D
:1013B000D3E763681F6239462046FFF76EFECDE72C
:1013C0002046FFF765FE0EE7F0B583B000233AE054
:1013D000092400E00024B4403C4302356F4E46F837
:1013E00025406F4C2568D44325EA02064F6817F460
:1013F000803F01D042EA0506694D2E606E6804EA1E
:1014000006054F6817F4003F01D042EA0605644E16
:1014100075604FF0B0452D6804EA05064F6817F473
:10142000801F01D042EA05064FF0B0452E606D687E
:101430002C404E6816F4001F01D042EA05044FF01C
:10144000B042546001330A6832FA03F400F0A3801A
:1014500001249C402240F5D04D686E1E112D18BF0E
:10146000012E01D9122D12D186685F000325BD40DF
:1014700026EA0506CD68BD4035438560466826EA04
:1014800004064D68C5F300149C4034434460C768AB
:101490005E000325B540EC4327EA05078D68B5409B
:1014A0003D43C5604D68122D18BF022D13D1DF08D2
:1014B000083750F827E003F007054FEA850C0F25A1
:1014C00005FA0CF52EEA050E0D6905FA0CF545EA4C
:1014D0000E0540F82750056825404C6804F00304C9
:1014E000B4402C4304604C6814F0805FAAD02D4CAB
:1014F000D4F8F45045F00205C4F8F450D4F8F440A0
:1015000004F002040194019C9D08AE1C234C54F885
:10151000267003F00304A6000F24B44027EA040752
:10152000214CA0423FF456AF04F58064A04222D083
:1015300004F58064A04220D004F58064A0421ED04F
:1015400004F58064A0421CD004F58064A0421AD047
:1015500004F58064A04218D004F58064A04216D03F
:1015600004F58064A04214D004F58064A0423FF4E6
:101570002FAF0A242FE701242DE702242BE70324B1
:1015800029E7042427E7052425E7062423E7072481
:1015900021E708241FE703B0F0BD00BF0004005896
:1015A000800000580044025800000258002857D01C
:1015B00010B5044690F84130002B41D0242384F824
:1015C00041302268136823F00103136063682268C6
:1015D00023F0706313612268936823F400439360DF
:1015E000E368012B31D0A368226843F4044393607D
:1015F000E368022B2FD0226851681A4B0B435360CB
:101600002268D36823F40043D360236962691343DB
:10161000A169226843EA0123D360E369216A226851
:101620000B4313602268136843F00103136000202A
:101630006064202384F84130206384F8420010BDA8
:1016400080F8403006F0A8FAB8E7A368226843F4AF
:1016500000439360CCE723684FF400625A60CAE706
:10166000012070470080000290F84130DBB2202B4F
:1016700024D190F84030012B22D0012380F8403053
:10168000242380F841300268136823F001031360BB
:101690000268136823F480531360026813681943C7
:1016A00011600268136843F001031360202380F87F
:1016B0004130002380F840301846704702207047C0
:1016C0000220704790F84130DBB2202B22D190F8F5
:1016D0004030012B20D0012380F84030242380F8B3
:1016E00041300268136823F0010313600268136835
:1016F00023F4706343EA012111600268136843F028
:1017000001031360202380F84130002380F840302B
:101710001846704702207047022070472DE9F047B5
:1017200082B0D0F80080C1EBC10300EB83035A6D97
:101730001B6D9A4255D807460C46C1469B1AC1EB11
:10174000C10200EB8202526C9A4200D31A4602F1A7
:10175000030A4FEA9A0A15E006F1030A4FEA9A0AC9
:10176000C4EBC40507EB8505A96C3B7C0093B3B2C1
:10177000E2B2404604F0C6FAAB6C3344AB646B6D26
:101780001E446E6509EB441303F510639B699BB21D
:10179000534512D3C4EBC40207EB8202516D136DA3
:1017A00099420AD24BB15B1AC4EBC40207EB820226
:1017B000566C9E42D0D31E46CEE7C4EBC40007EB66
:1017C00080073A6D7B6D9A420FD804F00F04012315
:1017D000A340D8F8344824EA0304C8F83448002069
:1017E00000E0012002B0BDE8F0870020FAE7F0B584
:1017F0008BB0002800F093800546046890F8BD3354
:101800002BB3032385F8BD33E36B13F4807F01D141
:1018100000232B61286804F00FF82C4654F8107B45
:101820006E460FCC0FC60FCC0FC694E8030086E8B7
:1018300003002B1D0ECB384603F040FF044658B181
:10184000022385F8BD33012420460BB0F0BD80F89B
:10185000BC3306F0D5FBD4E70021286803F0F2FF83
:10186000234616E0C3EBC30205EB8202012182F896
:101870003D1082F83C30A2F84230002182F83F103F
:1018800051649164C3EBC30205EB8202116501331D
:10189000DBB269688B42E5D316E0C4EBC40305EB09
:1018A0008303002283F8FD2183F8FC4183F8FF21A4
:1018B000C3F80422C3F80822C4EBC40305EB830376
:1018C000C3F810220134E4B2A142E6D82C4654F801
:1018D000107B6E460FCC0FC60FCC0FC694E80300EA
:1018E00086E803002B1D0ECB384603F0F1FF0446BB
:1018F00060B9002385F83830012385F8BD336B6A61
:10190000012B08D0286804F0A3FB9DE7022385F88B
:10191000BD33012498E7284600F0DAFCF2E7012401
:1019200092E7026890F8BC33012B19D010B5044639
:10193000012380F8BC33836A012B09D0206804F0AE
:101940007BFB206803F072FF002084F8BC0310BD0D
:101950008369012BF2D0936B43F480339363EDE7FB
:101960000220704770B504460D460068066C00EB17
:10197000411303F530639A682169012911D0354973
:101980008E4250D03DB9C5EBC50304EB8303D3F8B9
:101990001032002B58D0E9B2204606F07FFB002021
:1019A00070BD12F0080F09D02B498E42F7D912F4FE
:1019B000004FF4D04FF400429A60F0E712F0200F8D
:1019C00002D020229A60EAE712F0280FE7D12249DC
:1019D0008E4206D912F4004F03D04FF400429A60B1
:1019E000DDE7C5EBC50204EB8202D2F804121B69E5
:1019F000C3F31203C91AC2F81412D2F80412D2F8AF
:101A000008320B44C2F8083215B9D2F8103223B1AB
:101A1000E9B2204606F042FBC1E704F571720121EC
:101A200004F068FBF4E712F4004F03D04FF40042D7
:101A30009A60B4E712F0200F01D020229A60E9B238
:101A4000204606F02BFBAAE704F57172002104F092
:101A500051FBA0E70A31544F0A30544F38B50446C1
:101A600003681D6C03EB4113D3F8081B0E4A954223
:101A700007D903F5306311F4004F02D04FF4004250
:101A80009A60204606F002FB074B9D4202D923696B
:101A9000012B01D0002038BD04F5717201212068AE
:101AA00004F028FBF6E700BF0A30544F2DE9F04F51
:101AB00083B004460568284604F007FB10B103B064
:101AC000BDE8F08F2F460646206804F0CDFA0028C6
:101AD000F5D0206804F0C8FA10F0020F04D0226894
:101AE000536903F002035361206804F0BDFA10F05B
:101AF000100F15D02268936923F010039361D5F875
:101B0000208008F00F09C8F34343022B00F08580C2
:101B1000062B00F0AA802268936943F010039361BA
:101B2000206804F0A1FA10F4002F40F0B080206883
:101B300004F09AFA10F4802F40F0F480206804F04A
:101B400093FA0028C0F26081206804F08DFA10F446
:101B5000006F0AD0D5F8083813F0010F40F06E81FD
:101B60002268536903F400635361206804F07CFA2F
:101B700010F0006F15D02268536903F000635361C1
:101B800094F8F433002B40F05D81012184F8F413C4
:101B900023685B6DC3F38303C4F8F833204600F079
:101BA000ABFB206804F060FA10F4805F40F04E81D7
:101BB000206804F059FA10F4005F40F0AC8120680E
:101BC00004F052FA10F0080F40F0BD81206804F0D4
:101BD0004BFA10F4801F40F0BF81206804F044FAF3
:101BE00010F4001F40F0C281206804F03DFA10F0AC
:101BF000804F40F0C581206804F036FA10F0040FE1
:101C00003FF45DAF23685D6815F0040F40F0C181BB
:101C1000226853682B43536051E747F6F07318EA84
:101C2000030F3FF478AF4FEA181B4FEAC903019343
:101C3000C9EBC90A04EB8A0AC8F30A12DAF80812D7
:101C4000284604F07DF9CBF30A0BDAF808325B443E
:101C5000CAF80832019BA3EB090304EB8303D3F812
:101C600014325B44CAF8143255E7082204F5717146
:101C7000284604F065F9C8F30A18C9EBC90204EB59
:101C80008202D2F814324344C2F8143243E7206887
:101C900004F0EEF98046B14617E007EB4913012244
:101CA000C3F8082B49462046FFF75CFE1DE007EB12
:101CB00049130822C3F8082B49462046FFF7CEFEF9
:101CC00016E009F101094FEA5808B8F1000F3FF496
:101CD0002EAF18F0010FF4D05FFA89F1206804F0FC
:101CE000D7F9824610F0010FD7D11AF0080FDED1D4
:101CF0001AF0100F04D007EB49131022C3F8082B79
:101D00001AF0200F04D007EB49132022C3F8082B48
:101D10001AF4005FD5D007EB49134FF40052C3F813
:101D2000082BCEE7206804F0ABF98046B1462AE0E4
:101D30005946204606F0BEF91AF0080F04D007EB0A
:101D400049130822C3F808291AF0100F04D007EB32
:101D500049131022C3F808291AF0400F04D007EBEA
:101D600049134022C3F808291AF0020F04D007EBE8
:101D700049130222C3F808291AF0800F3FD109F154
:101D800001094FEA5808B8F1000F3FF4D7AE18F038
:101D9000010FF4D05FFA89FB5946206804F081F9FD
:101DA000824610F0010FC7D009F00F03012101FA9C
:101DB00003F2D7F8343823EA0203C7F8343807EBC4
:101DC0004913C3F8081923698B42B1D1C9EBC90380
:101DD00004EB8303596C9A6C0A449A64B9F1000FBE
:101DE000A6D1C9EBC90304EB83031B6D002B9FD164
:101DF00004F571720121206804F07CF998E74946E6
:101E00002046FFF78BFCBAE7D5F8043823F001032E
:101E1000C5F8043894F8F433012B08D0204606F0B6
:101E200089F92268536903F0004353618CE600216D
:101E300084F8F413204600F05FFAF2E7204606F03B
:101E400061F98DE6204606F05DF9AAE605F5006821
:101E5000D8F8043023F00103C8F8043010212068BA
:101E600003F008FD20E007EB46134FF67F31C3F87F
:101E70000819D3F8002922F40012C3F80029D3F876
:101E8000002942F00062C3F80029C3F8081BD3F808
:101E9000002B22F40012C3F8002BD3F8002B42F0E1
:101EA0000062C3F8002B01366368B342DBD8D8F870
:101EB0001C3043F00113C8F81C30236BEBB1D8F889
:101EC000843043F00B03C8F88430D8F8443043F032
:101ED0000B03C8F84430D5F8003823F4FE63C5F886
:101EE000003804F57172217C206804F003F922683F
:101EF000536903F4805353615AE6D8F8142042F230
:101F00002B031343C8F81430D8F8103043F00B03F8
:101F1000C8F81030DFE7206804F0DCF8206803F030
:101F20009FFDE060256800F085FF0146227B284682
:101F300003F00AFC204606F0CEF82268536903F449
:101F4000005353613BE6204606F0BFF82268536910
:101F500003F00803536139E60021204606F0F6F845
:101F60002268536903F48013536136E6002120464A
:101F700006F0E6F82268536903F40013536133E670
:101F8000204606F0E9F82268536903F08043536164
:101F900031E6204606F0E6F83AE690F8BC33012B2D
:101FA0000DD010B50446012380F8BC3380F83810FA
:101FB000006804F031F8002084F8BC0310BD022052
:101FC0007047F8B507460C4611F0800F27D101F095
:101FD0000F05C5EBC506B60006F5FC760644311DB7
:101FE000C5EBC50500EB8505002085F8FD0104F073
:101FF0000F040C708A60CB704A7802B1CC80022B3F
:102000001DD097F8BC33012B1CD0012387F8BC33BB
:10201000386803F035FD002087F8BC03F8BD01F0F7
:102020000F00C0EBC0018900383139440431C0EBE6
:10203000C00007EB8000012580F83D50D7E7002362
:102040000B71DEE70220E9E710B504460A4611F0FD
:10205000800F20D101F00F00C0EBC0039B0003F5FF
:10206000FC732344191DC0EBC00004EB8000002367
:1020700080F8FD3102F00F020A7094F8BC33012B96
:1020800019D0012384F8BC33206803F041FD0020FF
:1020900084F8BC0310BD01F00F00C0EBC0039B002F
:1020A00038332344191DC0EBC00004EB800001232A
:1020B00080F83D30DEE70220ECE738B501F00F0490
:1020C000C4EBC401890001F5FC7101440431C4EB87
:1020D000C40500EB8505C5F80822C5F810320023B9
:1020E000C5F8143285F8FD3185F8FC410369012BF0
:1020F00006D064B9DAB2006803F078FD002038BD7C
:10210000C4EBC40500EB8505C5F80C22F1E7DAB293
:10211000006803F00BFEF1E701F00F01C1EBC10114
:1021200000EB8101D1F81402704738B501F00F04BB
:10213000C4EBC4018900383101440431C4EBC40547
:1021400000EB8505AA642B6500236B65012385F8E8
:102150003D3085F83C400369012B06D05CB9DAB20A
:10216000006803F043FD002038BDC4EBC40500EB5C
:102170008505EA64F2E7DAB2006803F0D7FDF2E71A
:1021800038B501F00F054268954239D804460B4630
:1021900011F0800F1FD1C1EBC101890001F5FC7165
:1021A00001440431C3EBC30300EB8303002283F833
:1021B000FD2101238B700D7094F8BC33012B21D0CD
:1021C000012384F8BC33206803F0CBFE8DB10020DE
:1021D00084F8BC0338BDC5EBC50189003831014422
:1021E0000431C5EBC50300EB8303012283F83D20D6
:1021F000DFE704F57172217C206803F07BFFE6E7DE
:102200000120E7E70220E5E701F00F03426893426F
:1022100031D810B5044611F0800F1ED1C3EBC301B5
:10222000890001F5FC7101440431C3EBC30200EBEA
:102230008202002082F8FD0100228A700B7094F85F
:10224000BC33012B19D0012384F8BC33206803F080
:10225000B5FE002084F8BC0310BDC3EBC3018900A8
:10226000383101440431C3EBC30200EB8202012088
:1022700082F83D00E0E7012070470220ECE730B42F
:102280000468606A19B940EA0240A06218E00D468D
:10229000A36A00EB13400023691E8B4209D203F1AD
:1022A000400104EB8101496800EB11400133DBB2CE
:1022B000F2E740EA024005F13F0104EB810148608A
:1022C000002030BC7047036859620020704700004E
:1022D000034602680121C0F8FC13002083F8F403D0
:1022E000936943F000639361516D024B0B43536557
:1022F000704700BF0300001070470000134BDB68FD
:1023000013F0040F07D1114BDB6803F0070383427E
:102310001AD00120704710B50C4AD36823F0070388
:102320001843D060FEF7E2F90446084B5B6813F4EB
:10233000005F07D1FEF7DAF9001BB0F57A7FF4D918
:10234000012000E0002010BD002070470048025826
:10235000024AD36843F08073D36070470048025844
:10236000002800F0048338B50446036813F0010F19
:1023700025D0AE4A136903F03803926A102B15D0AA
:10238000182B0FD06368B3F5803F3FD0002B53D19B
:10239000A64B1A6822F480321A601A6822F480224E
:1023A0001A6038E002F00302022AEBD19F4B1B684F
:1023B00013F4003F03D06368002B00F0DA82236837
:1023C00013F0020F00F08B80984A1369926A13F0A1
:1023D00038035AD0182B55D0E368002B00F0C88082
:1023E00092490A6822F0190213430B60FEF77EF946
:1023F00005468E4B1B6813F0040F40F09780FEF7E4
:1024000075F9401B0228F4D90320B9E2874A136802
:1024100043F48033136063682BB3FEF767F9054616
:10242000824B1B6813F4003FC9D1FEF75FF9401BD4
:102430006428F5D90320A3E2B3F5A02F09D07B4B84
:102440001A6822F480321A601A6822F480221A6014
:10245000E1E7764B1A6842F480221A601A6842F467
:1024600080321A60D7E7FEF741F905466F4B1B68CB
:1024700013F4003FA3D0FEF739F9401B6428F5D9C7
:1024800003207DE212F0030FA6D1684B1B6813F006
:10249000040F03D0E368002B00F06D82FEF740F9D3
:1024A00041F20303984212D82269402A07D05F49BB
:1024B0004B6823F47C3343EA02334B600FE05B4A02
:1024C000536823F47C3343F40033536007E0574AE6
:1024D000536823F0FE43216943EA01635360236894
:1024E00013F0100F00F08680504A136903F0380390
:1024F000926A082B54D0182B4ED0E369002B00F0C1
:10250000B9804A4A136843F080031360FEF7EEF87F
:102510000546464B1B6813F4807F40F08980FEF728
:10252000E5F8401B0228F4D9032029E2FEF7F8F869
:1025300041F20303984212D82269402A07D03B494E
:102540004B6823F47C3343EA02334B60C7E7374AD6
:10255000536823F47C3343F400335360BFE7334ABA
:10256000536823F0FE43216943EA01635360B6E7F1
:102570002E4A136823F001031360FEF7B7F80546EF
:102580002A4B1B6813F0040FA9D0FEF7AFF8401BCD
:102590000228F5D90320F3E102F00302012AACD1AD
:1025A000224B1B6813F4807F03D0E369802B40F03B
:1025B000E481FEF7B5F841F20303984212D8226A8B
:1025C000202A07D019494B6823F0F84343EA826375
:1025D0004B600FE0154A536823F0F84343F0804303
:1025E000536007E0114AD36823F07C53216A43EA21
:1025F0000163D360236813F0080F63D06369002B75
:102600004CD00A4A536F43F001035367FEF76EF84C
:102610000546064B5B6F13F0020F53D1FEF766F8C9
:10262000401B0228F5D90320AAE100BF004402584C
:10263000FEF776F841F20303984212D8226A202A64
:1026400007D085494B6823F0F84343EA82634B6027
:10265000D0E7814A536823F0F84343F08043536046
:10266000C8E77D4AD36823F07C53216A43EA0163BB
:10267000D360BFE7784A136823F080031360FEF746
:1026800035F80546744B1B6813F4807FB2D0FEF713
:102690002DF8401B0228F5D9032071E16E4A536FD3
:1026A00023F001035367FEF721F805466A4B5B6F81
:1026B00013F0020F06D0FEF719F8401B0228F5D9D7
:1026C00003205DE1236813F0200F29D0A3699BB19B
:1026D000614A136843F480531360FEF707F8054618
:1026E0005D4B1B6813F4005F1AD1FDF7FFFF401B21
:1026F0000228F5D9032043E1574A136823F4805395
:102700001360FDF7F3FF0546534B1B6813F4005F9E
:1027100006D0FDF7EBFF401B0228F5D903202FE17F
:10272000236813F0040F21D1636A002B00F0278186
:10273000494A126902F03802182A00F0EF80022B91
:1027400075D0454A136823F080731360FDF7CEFF00
:102750000446414B1B6813F0007F00F0DD80FDF75D
:10276000C5FF001B0228F4D9032009E13B4A136886
:1027700043F480731360FDF7B9FF0546374B1B68C0
:1027800013F4807F06D1FDF7B1FF401B6428F5D913
:102790000320F5E0A368012B0AD00BBB2E4B1A6F68
:1027A00022F001021A671A6F22F004021A6704E08D
:1027B000294A136F43F001031367A36833B3FDF78E
:1027C00095FF0546244B1B6F13F0020FACD1FDF7AC
:1027D0008DFF401B41F288339842F3D90320CFE0AC
:1027E000052B09D01C4B1A6F22F001021A671A6FD1
:1027F00022F004021A67E0E7174B1A6F42F0040256
:102800001A671A6F42F001021A67D6E7FDF76EFFEA
:102810000546114B1B6F13F0020F85D0FDF766FFC5
:10282000401B41F288339842F3D90320A8E00A4ABA
:10283000136823F080731360FDF758FF0546064BBD
:102840001B6813F0007F0BD0FDF750FF401B0228E0
:10285000F5D9032094E000BF004402580048025814
:102860004F4B996A4F4A0A40A16AE06A41EA001157
:102870000A439A62226B013AC2F30802616B013982
:10288000490289B20A43A16B0139090401F4FE012E
:102890000A43E16B0139090601F0FE410A431A635C
:1028A000DA6A22F00102DA62596B3F4A0A40A16CEF
:1028B00042EAC1025A63DA6A22F00C02216C0A432E
:1028C000DA62DA6A22F00202616C0A43DA62DA6AD8
:1028D00042F48032DA62DA6A42F40032DA62DA6AA8
:1028E00042F48022DA62DA6A42F00102DA621A689D
:1028F00042F080721A60FDF7F9FE0446284B1B680F
:1029000013F0007F06D1FDF7F1FE001B0228F5D978
:10291000032035E0002033E0002031E0204A916AB6
:10292000106B012B2DD001F00303A26A93422AD130
:10293000C1F30511E36A994227D1C0F30802236B62
:10294000013B9A4223D1C0F34622636B013B9A427A
:102950001FD1C0F30642A36B013B9A421BD1C0F3C7
:102960000660E36B013B984217D1002008E001208C
:102970007047012004E0012002E0012000E0002077
:1029800038BD0120FCE70120FAE70120F8E701202B
:10299000F6E70120F4E70120F2E70120F0E700BFAD
:1029A000004402580CFCFFFF0700FFFF744B1B693B
:1029B00003F03803102B00F0DF80182B10D00BB180
:1029C000704870476E4B1B6813F0200F00F0D680E4
:1029D0006B4B1868C0F3C1006B4B23FA00F07047D3
:1029E00010B4674A916A01F00301946AC4F30510B8
:1029F000D36A03F00103526BC2F3CC0203FB02F370
:102A000007EE903AF8EE677A14F47C7F00F0948039
:102A1000012966D0022900F09280E1B107EE100A88
:102A2000F8EE476A9FED596A86EE267A544B1B6B87
:102A3000C3F3080306EE903AF8EE666A9FED546A17
:102A400067EE867A76EEA77AF7EE006A77EEA67AD8
:102A500027EE277A61E04A4B1B6813F0200F23D042
:102A600047490A68C2F3C102474BD34007EE103A08
:102A7000F8EE476A07EE100AB8EE476A86EE867AE5
:102A80000B6BC3F3080306EE903AF8EE666A9FED0F
:102A9000406A67EE867A76EEA77AF7EE006A77EEFE
:102AA000A67A27EE277A38E007EE100AF8EE476A92
:102AB0009FED386A86EE267A314B1B6BC3F3080311
:102AC00006EE903AF8EE666A9FED316A67EE867A16
:102AD00076EEA77AF7EE006A77EEA67A27EE277AE7
:102AE0001BE007EE100AF8EE476A9FED286A86EEB3
:102AF000267A234B1B6BC3F3080306EE903AF8EEDD
:102B0000666A9FED236A67EE867A76EEA77AF7EE1D
:102B1000006A77EEA67A27EE277A194B1B6BC3F370
:102B20004623013307EE903AF8EE677AC7EE276A3C
:102B3000FCEEE67A17EE900A5DF8044B704707EE5C
:102B4000100AF8EE476A9FED146A86EE267A0C4B5F
:102B50001B6BC3F3080306EE903AF8EE666A9FED2E
:102B60000C6A67EE867A76EEA77AF7EE006A77EE61
:102B7000A67A27EE277AD0E70848704702487047C0
:102B80000044025800093D000090D0030024744A1C
:102B9000000000390024744C0024F44A00127A002A
:102BA000002800F0328170B50D4604469B4B1B682F
:102BB00003F00F038B420BD2984A136823F00F03E4
:102BC0000B431360136803F00F038B4240F01F8127
:102BD000236813F0040F0CD02269914B9B6903F01A
:102BE00070039A4205D98E498B6923F070031A430A
:102BF0008A61236813F0080F0CD06269884BDB6987
:102C000003F070039A4205D98549CB6923F070031C
:102C10001A43CA61236813F0100F0CD0A269804BCD
:102C2000DB6903F4E0639A4205D97D49CB6923F45B
:102C3000E0631A43CA61236813F0200F0CD0E269E5
:102C4000774B1B6A03F070039A4205D974490B6AEB
:102C500023F070031A430A62236813F0020F0CD0AA
:102C6000E2686F4B9B6903F00F039A4205D96C49E8
:102C70008B6923F00F031A438A61236813F0010F55
:102C800041D0674A936923F47063A1680B43936151
:102C90006368022B0AD0032B27D0012B2CD0604A6B
:102CA000126812F0040F06D10120ADE0126812F490
:102CB000003F00F0AE805A490A6922F00702134330
:102CC0000B61FDF713FD0646554B1B6903F03803F6
:102CD0006268B3EBC20F16D0FDF708FD801B41F20E
:102CE00088339842F0D903208EE04D4A126812F0E2
:102CF000007FE0D1012087E0494A126812F4807F0A
:102D0000D9D1012080E0236813F0020F0CD0E268D3
:102D1000434B9B6903F00F039A4205D240498B69EC
:102D200023F00F031A438A613C4B1B6803F00F0327
:102D3000AB420AD9394A136823F00F032B431360BF
:102D4000136803F00F03AB4265D1236813F0040F3F
:102D50000CD02269324B9B6903F070039A4205D272
:102D60002F498B6923F070031A438A61236813F09B
:102D7000080F0CD062692A4BDB6903F070039A429A
:102D800005D22749CB6923F070031A43CA6123682F
:102D900013F0100F0CD0A269214BDB6903F4E06340
:102DA0009A4205D21E49CB6923F4E0631A43CA61F3
:102DB000236813F0200F0CD0E269194B1B6A03F053
:102DC00070039A4205D216490B6A23F070031A4326
:102DD0000A62FFF7EBFD12498B69C3F30323114A23
:102DE000D35C03F01F03D8408B6903F00F03D35C5F
:102DF00003F01F0320FA03F30B4A13600B4B186018
:102E00000B4B186804F0A6FF70BD0120704701202D
:102E1000FAE70120F8E70120F6E700BF00200052A2
:102E200000440258CC9400081C0100201801002026
:102E30000400002008B5FFF7B9FD0B4A9369C3F3FE
:102E400003230A49CB5C03F01F0320FA03F39269C2
:102E500002F00F02885C00F01F0023FA00F0044A21
:102E60001060044A136008BD00440258CC94000866
:102E70001C0100201801002008B5FFF7DBFF054BFF
:102E8000DB69C3F30213044AD35C03F01F03D84089
:102E900008BD00BF00440258CC94000808B5FFF7F5
:102EA000C9FF054BDB69C3F30223044AD35C03F07B
:102EB0001F03D84008BD00BF00440258CC9400084E
:102EC0003F230360114B1A6902F0070242609A69BE
:102ED00002F4706282609A6902F00F02C2609A691D
:102EE00002F070020261DA6902F070024261DA698E
:102EF00002F4E06282611B6A03F07003C361044B59
:102F00001B6803F00F030B60704700BF00440258BA
:102F100000200052404B9B6A03F00303032B79D03F
:102F200070B505460E463C4A136823F08063136073
:102F3000FDF7DCFB0446384B1B6813F0006F06D02E
:102F4000FDF7D4FB031B022BF5D9032070BD324BD8
:102F50009A6A22F47C32296842EA01329A626A68EB
:102F6000013AC2F30802A9680139490289B20A4349
:102F7000E9680139090401F4FE010A4329690139AC
:102F8000090601F0FE410A439A63DA6A22F0C002A0
:102F900069690A43DA62DA6A22F02002A9690A43FF
:102FA000DA62DA6A22F01002DA62D96B1B4A0A404E
:102FB000E96942EAC102DA63DA6A42F01002DA62CF
:102FC000C6B91A46DB6A43F40023D362124A136877
:102FD00043F080631360FDF789FB04460E4B1B68CA
:102FE00013F0006F14D1FDF781FB001B0228F5D907
:102FF0000320ABE7012E05D0074AD36A43F4001340
:10300000D362E3E7044AD36A43F48013D362DDE773
:1030100000209BE701207047004402580700FFFF93
:10302000404B9B6A03F00303032B79D070B5054630
:103030000E463C4A136823F080531360FDF756FB9D
:103040000446384B1B6813F0005F06D0FDF74EFBBB
:10305000031B022BF5D9032070BD324B9A6A22F074
:103060007C72296842EA01529A626A68013AC2F3A4
:103070000802A9680139490289B20A43E96801399D
:10308000090401F4FE010A4329690139090601F026
:10309000FE410A431A64DA6A22F4406269690A430B
:1030A000DA62DA6A22F40072A9690A43DA62DA6A39
:1030B00022F48072DA62596C1B4A0A40E96942EADA
:1030C000C1025A64DA6A42F48072DA62C6B91A46F8
:1030D000DB6A43F48003D362124A136843F08053DF
:1030E0001360FDF703FB04460E4B1B6813F0005FF3
:1030F00014D1FDF7FBFA001B0228F5D90320ABE73A
:10310000012E05D0074AD36A43F08073D362E3E708
:10311000044AD36A43F40003D362DDE700209BE74F
:1031200001207047004402580700FFFFF8B504462D
:10313000036813F0006F30D0436EB3F5001F26D044
:103140000ED8EBB1B3F5801F07D102210430FFF791
:10315000E1FE054645B12E4621E0012635461EE03A
:10316000B3F5401F09D10025964A136D23F440138F
:10317000616E0B431365002611E0012635460EE013
:10318000904AD36A43F40033D3620025ECE702216E
:103190002430FFF745FF0546DCE700263546236867
:1031A00013F4807F14D0636D042B30D8DFE803F074
:1031B000032228080800834AD36A43F40033D36209
:1031C00045BB804A136D23F00703616D0B43136504
:1031D000236813F4007F2FD0A36D802B4AD01ED814
:1031E000002B41D0402B17D10021201DFFF792FE6C
:1031F000054619E00021201DFFF78CFE0546DFE79C
:10320000002104F12400FFF70BFF0546D8E7012653
:103210003546DDE72E46DBE7012635460CE0C02BC0
:1032200002D0B3F5807F1CD15DBB664A136D23F4D9
:10323000E073A16D0B431365236813F4806F34D0E2
:10324000D4F8A430B3F5800F4DD01FD8002B44D054
:10325000B3F5001F17D10021201DFFF75BFE0546C7
:103260001AE001263546E7E7564AD36A43F40033AD
:10327000D362D9E7002104F12400FFF7D1FE05460F
:10328000D2E72E46D8E7012635460EE0B3F5C00F4B
:1032900002D0B3F5000F1DD165BB4A4A936D23F4EC
:1032A0006003D4F8A4100B439365236813F4006FF4
:1032B00035D0D4F8A830B3F1007F53D01FD8002BFD
:1032C0004AD0B3F1807F17D10021201DFFF722FEE5
:1032D00005461AE001263546E7E73A4AD36A43F441
:1032E0000033D362D8E7002104F12400FFF798FEF1
:1032F0000546D1E72E46D8E7012635460FE0B3F163
:10330000407F02D0B3F1806F23D1002D31D12D4AFF
:10331000936D23F0E063D4F8A8100B439365236802
:1033200013F0007F2ED0A36C202B3FD026D833B1D2
:10333000102B20D1234AD36A43F40033D362002DEB
:103340003AD1204AD36C23F03003A16C0B43D364F1
:1033500018E001263546E2E71A4AD36A43F40033FF
:10336000D362D2E7002104F12400FFF759FE05469D
:10337000CBE72E46D3E70126354603E0302BDED0DF
:1033800001263546236813F4805F2CD0E36DB3F536
:10339000005F4DD018D8002B44D0B3F5805F0DD11D
:1033A0000021201DFFF7B6FD054613E00221201D78
:1033B000FFF7B0FD0546C2E72E46E3E70126354696
:1033C00011E000BF00440258B3F5405F02D0B3F5EE
:1033D000804F24D1002D32D1984A136D23F4E0435D
:1033E000E16D0B431365236813F4005F37D0236E40
:1033F000B3F5003F51D027D83BB1B3F5803F20D182
:103400000121201DFFF786FD0546002D4CD18B4A7A
:10341000136D23F4E023216E0B4313651FE0012697
:103420003546E0E7854AD36A43F40033D362D1E7F7
:10343000002104F12400FFF7F3FD0546CAE72E46FC
:10344000D1E7012635460AE0B3F5802FDDD0B3F58C
:10345000A02FDAD0B3F5403FD7D0012635462368F8
:1034600013F4804F30D0D4F8AC30B3F1005F44D0C7
:103470001FD83BB1B3F1805F18D10121201DFFF7A8
:1034800049FD0546002D3FD16C4A936D23F0E04382
:10349000D4F8AC100B43936516E0012104F124002D
:1034A000FFF7BEFD0546B0E72E46D8E701263546B4
:1034B0000AE0B3F1804FE5D0B3F1A04FE2D0B3F111
:1034C000405FDFD001263546236813F4004F09D052
:1034D000E36EB3F1805F19D0B3F1005F24D0D3B1B4
:1034E00001263546236813F0807F3DD0636C032BA3
:1034F00036D8DFE803F026212F26012104F124002D
:10350000FFF78EFD0546BDE72E46DDE74B4AD36A41
:1035100043F40033D3626DB9484A136D23F040532E
:10352000E16E0B431365DDE70121201DFFF7F2FC7F
:103530000546F0E72E46D5E7404AD36A43F4003308
:10354000D36285B93D4AD36C23F00303616C0B430E
:10355000D36409E00221201DFFF7DCFC0546F0E7FB
:103560000126354600E02E46236813F4800F1FD154
:10357000236813F0010F00F09B80A36F282B00F24B
:103580009580DFE803F083939393939393937E93D3
:103590009393939393938C93939393939393839312
:1035A000939393939393839393939393939383009E
:1035B000234A136843F480731360FDF797F80746B6
:1035C0001F4B1B6813F4807F05D1FDF78FF8C01BDC
:1035D0006428F5D90325002D4FD1184B1B6FD4F863
:1035E000B020534013F4407F0CD0144B1A6F22F4D8
:1035F0004072196F41F480311967196F21F48031DD
:1036000019671A67D4F8B030B3F5807F1AD0002D4F
:1036100035D1D4F8B03003F44072B2F5407F22D0F7
:10362000064A136923F47C53136104490B6FD4F8E1
:10363000B020C2F30B0213430B6799E70044025812
:1036400000480258FDF752F80746874B1B6F13F0EE
:10365000020FDCD1FDF74AF8C01B41F288339842D3
:10366000F3D90325D3E78048026922F47C527F49CD
:1036700001EA131313430361D7E72E4678E72E467A
:1036800076E70121201DFFF745FC0546E5B9764A9E
:10369000536D23F03803A16F0B43536508E00121FC
:1036A00004F12400FFF7BCFC0546EFE70126354690
:1036B000236813F0020F22D0636F052B1BD8DFE8BD
:1036C00003F00A05130A0A0A2E46F1E70121201D1C
:1036D000FFF720FC05468DB9634A536D23F00703BD
:1036E000616F0B4353650AE0012104F12400FFF7E9
:1036F00097FC0546EFE70126354600E02E46236895
:1037000013F0040F22D0D4F89030052B1AD8DFE83C
:1037100003F00803120808080121201DFFF7FAFB37
:10372000054695B9504A936D23F00703D4F89010DD
:103730000B4393650AE0012104F12400FFF770FCBC
:103740000546EEE70126354600E02E46236813F0D5
:10375000200F27D0D4F88C30B3F1005F40D016D8BA
:103760003BB1B3F1805F0FD10021201DFFF7D2FBE9
:103770000546002D3BD13C4A536D23F0E043D4F87D
:103780008C100B4353650DE0012635460AE0B3F17A
:10379000804FEED0B3F1A04FEBD0B3F1405FE8D053
:1037A00001263546236813F0400F30D0D4F8983006
:1037B000B3F5006F4BD01FD83BB1B3F5806F18D174
:1037C0000021201DFFF7A6FB0546002D46D1264A05
:1037D000936D23F4E053D4F898100B43936516E0EF
:1037E000022104F12400FFF71BFC0546C1E72E4629
:1037F000D8E7012635460AE0B3F5805FE5D0B3F59A
:10380000A05FE2D0B3F5406FDFD0012635462368D4
:1038100013F0800F37D0D4F89C30B3F5804F00F010
:10382000A28025D83BB1B3F5005F19D10021201D3E
:10383000FFF770FB0546002D40F09C800A4A936D0F
:1038400023F46043D4F89C100B4393651BE00221E2
:1038500004F12400FFF7E4FB0546B6E72E46D6E761
:10386000012635460FE000BF00440258CFFFFF009D
:10387000B3F5004FDFD0B3F5204FDCD0B3F5C04F28
:10388000D9D001263546236813F0080F0CD0D4F8A0
:103890008030B3F5805F6FD08E4A536D23F4405370
:1038A000D4F880100B435365236813F0100F0CD02D
:1038B000D4F89430B3F5807F67D0864A936D23F4B3
:1038C0004073D4F894100B439365236813F4002FCE
:1038D0000BD0D4F8A030B3F5803F6ED0B3F5003FE5
:1038E00061D0002B5AD001263546236813F4802F6F
:1038F0000CD0D4F88430B3F5001F76D0B3F5401F58
:1039000069D0B3F5801F61D001263546236813F4D2
:10391000803F07D0E36C002B70D0B3F5803F7BD0A5
:1039200001263546236813F0005F7DD1236813F428
:10393000003F00F08680E36FB3F5807F00F0BA802F
:103940007CD9B3F5007F03D0B3F5407F40F0B08061
:10395000002D40F0B5805F4A536D23F44073E16F52
:103960000B4353656DE0022104F12400FFF758FB7F
:10397000054660E72E4686E7022104F12400FFF7A2
:103980004FFB002888D0012686E7022104F124009D
:10399000FFF746FB002890D001268EE70021201D6E
:1039A000FFF7B8FA05467DB94A4A936D23F44033D0
:1039B000D4F8A0100B43936597E7022104F124008B
:1039C000FFF72EFB0546EEE72E468EE7414AD36A07
:1039D00043F40033D3627DB93E4A536D23F4401360
:1039E000D4F884100B43536590E7012104F12400BF
:1039F000FFF716FB0546EEE72E4687E7354AD36A02
:103A000043F40033D3626DB9324AD36C23F480336C
:103A1000E16C0B43D36485E70221201DFFF77AFA9E
:103A20000546F0E72E467DE7022104F12400FFF76A
:103A3000F7FA00283FF47AAF012677E7002B87D00A
:103A40000126236813F4801F06D0224A136D23F049
:103A50000043216F0B431365236813F0805F07D089
:103A60001C4A136923F48043D4F8B4100B43136148
:103A7000236813F4001F06D0164A136D23F08073D9
:103A8000A16E0B431365236813F0804F09D0114BCF
:103A90001A6922F400421A611A69D4F8B8100A436C
:103AA0001A612368002B0DDB06B101263046F8BDF4
:103AB0000126C6E7074AD36A43F40033D36247E7D7
:103AC0002E46BEE7034AD36C23F04053216D0B43CF
:103AD000D364E9E70044025808B5FFF7ABF9054B9A
:103AE0001B6AC3F30213044AD35C03F01F03D840DC
:103AF00008BD00BF00440258CC94000830B4784A96
:103B0000916A946AC4F30535D36AC3F30013D26B88
:103B1000C2F3CC0203FB02F314F47C3F00F0DA8022
:103B200001F0030107EE903AF8EE677A012966D0BA
:103B3000022900F0B280E1B107EE105AB8EE477AE0
:103B40009FED686AC6EE076A654B9B6BC3F308037B
:103B500007EE103AB8EE477A9FED636A67EE867A11
:103B600077EE277AB7EE007A77EE877A66EEA76A65
:103B700061E05B4B1B6813F0200F23D058490A68A3
:103B8000C2F3C102594BD34007EE103AB8EE477A60
:103B900006EE905AB8EE666AC7EE066A8B6BC3F300
:103BA000080307EE103AB8EE477A9FED4F6A67EECA
:103BB000867A77EE277AB7EE007A77EE877A66EE26
:103BC000A76A38E007EE105AB8EE477A9FED486AC8
:103BD000C6EE076A424B9B6BC3F3080307EE103A2D
:103BE000B8EE477A9FED406A67EE867A77EE277ADD
:103BF000B7EE007A77EE877A66EEA76A1BE007EEEB
:103C0000105AB8EE477A9FED376AC6EE076A344B12
:103C10009B6BC3F3080307EE103AB8EE477A9FEDAB
:103C2000326A67EE867A77EE277AB7EE007A77EE19
:103C3000877A66EEA76A2A4A936BC3F3462307EE98
:103C4000103AB8EE477AB7EE006A37EE067AC6EE5B
:103C5000877AFCEEE77AC0ED007A936BC3F30643F4
:103C600007EE103AB8EE477A37EE067AC6EE877A54
:103C7000FCEEE77AC0ED017A936BC3F3066307EEBF
:103C8000903AF8EE677A77EE867A86EEA77ABCEEFF
:103C9000C77A80ED027A30BC704707EE105AB8EE52
:103CA000477A9FED146AC6EE076A0D4B9B6BC3F310
:103CB000080307EE103AB8EE477A9FED0B6A67EEFD
:103CC000867A77EE277AB7EE007A77EE877A66EE15
:103CD000A76AB0E70023036043608360DBE700BFAF
:103CE000004402580024744A000000390090D003B8
:103CF0000024744C0024F44A30B4784A916A946ADF
:103D0000C4F30555D36AC3F30023526CC2F3CC024B
:103D100003FB02F314F07C7F00F0DA8001F0030172
:103D200007EE903AF8EE677A012966D0022900F092
:103D3000B280E1B107EE105AB8EE477A9FED686A9B
:103D4000C6EE076A654B1B6CC3F3080307EE103A17
:103D5000B8EE477A9FED636A67EE867A77EE277A48
:103D6000B7EE007A77EE877A66EEA76A61E05B4B82
:103D70001B6813F0200F23D058490A68C2F3C10210
:103D8000594BD34007EE103AB8EE477A06EE905AF8
:103D9000B8EE666AC7EE066A0B6CC3F3080307EE5B
:103DA000103AB8EE477A9FED4F6A67EE867A77EE63
:103DB000277AB7EE007A77EE877A66EEA76A38E060
:103DC00007EE105AB8EE477A9FED486AC6EE076ACA
:103DD000424B1B6CC3F3080307EE103AB8EE477A68
:103DE0009FED406A67EE867A77EE277AB7EE007A23
:103DF00077EE877A66EEA76A1BE007EE105AB8EEF8
:103E0000477A9FED376AC6EE076A344B1B6CC3F3E3
:103E1000080307EE103AB8EE477A9FED326A67EE74
:103E2000867A77EE277AB7EE007A77EE877A66EEB3
:103E3000A76A2A4A136CC3F3462307EE103AB8EE7A
:103E4000477AB7EE006A37EE067AC6EE877AFCEE5E
:103E5000E77AC0ED007A136CC3F3064307EE103A1D
:103E6000B8EE477A37EE067AC6EE877AFCEEE77A46
:103E7000C0ED017A136CC3F3066307EE903AF8EED7
:103E8000677A77EE867A86EEA77ABCEEC77A80EDFF
:103E9000027A30BC704707EE105AB8EE477A9FEDB1
:103EA000146AC6EE076A0D4B1B6CC3F3080307EEDA
:103EB000103AB8EE477A9FED0B6A67EE867A77EE96
:103EC000277AB7EE007A77EE877A66EEA76AB0E7D0
:103ED0000023036043608360DBE700BF00440258B7
:103EE0000024744A000000390090D0030024744C70
:103EF0000024F44A38B504460268D36823F0A003CE
:103F0000D360FCF7F3FB05462368DB6813F0200F52
:103F100007D1FCF7EBFB401BB0F57A7FF4D9032007
:103F200000E0002038BD70B50368DA6812F0400F79
:103F300002D00026304670BD04464FF0FF32DA60F2
:103F4000FCF7D4FB054600262368DB6813F0400F1E
:103F5000F0D1FCF7CBFB401BB0F57A7FF4D90326F8
:103F600084F82160F0E7000010B50446104BDA68D1
:103F700022F04002DA609B6813F0200F06D1FFF7B1
:103F8000B9FF98B1032084F821000FE0084A936834
:103F900023F020039360FFF7ADFF10B1032084F8F6
:103FA0002100034A936843F02003936010BD00BFD3
:103FB00000400058002844D038B5044690F821301D
:103FC000A3B1022384F821302368CA225A622368ED
:103FD00053225A622046FFF7A6FF60B12368FF22F2
:103FE0005A6210B9012384F8213038BD80F820309E
:103FF00003F00EFEE5E722689168134B0B409360D7
:1040000021688A68636820690343A06903431343F6
:104010008B60A168E368226843EA0143136120468C
:10402000FFF7A2FF0028D9D12268D36C23F0030345
:10403000D3642168CB6CE26965692A431343CB647E
:10404000CCE70120704700BFBFFF8FFF0023092886
:1040500003D901330A38C0B2F9E71B01DBB21843B8
:104060007047000090F82030012B5BD070B50446FB
:104070000D461646012380F82030022380F82130B7
:104080000368CA225A62036853225A62FFF74BFF41
:1040900058BB002E34D123689B6813F0400F01D128
:1040A0000023EB702878FFF7D1FF06046878FFF74C
:1040B000CDFF46EA0026A878FFF7C8FF3043EB782B
:1040C00040EA83502268184B0340136022689368CB
:1040D00023F48023936021688B68EA68286902438F
:1040E00013438B602046FFF73FFF2368FF225A628D
:1040F00010B9012384F82130002384F8203070BDEA
:1041000023689B6813F0400F01D10023EB702B78DC
:104110006878000240EA0340AB781843EB7840EA45
:104120008350CFE7022070477F7F7F0090F82030D8
:10413000012B4AD070B504460E46012380F820308A
:10414000022380F821303AB94B7813F0100F03D0D6
:1041500003F0EF030A334B7022BBF078FFF776FFD2
:1041600005047078FFF772FF45EA0025B078FFF785
:104170006DFF0543307845EA40352368CA225A620C
:10418000236853225A622046FFF7CDFEA8B1236868
:10419000FF225A6210B9012384F82130002384F8E9
:1041A000203070BDF37875782D0245EA0345B0786C
:1041B0000543307845EA4035DFE72268044B2B4061
:1041C00053602046FFF7D0FEE1E70220704700BFB2
:1041D0003FFFFF00C36B5B09C0680830C00803FBEA
:1041E00000007047002800F0978070B50446002357
:1041F000836205684C4B4D4E9D4218BFB54214BFBB
:104200000126002607D0A3F574439D4203D0C3685E
:104210000F2B00F283802046FFF7DCFF26B1444BD2
:104220009D4201D008287BD83F4A404B9D4218BF91
:10423000954203D003F580639D4201D1102871D8C7
:1042400094F88130002B54D0022384F88130226806
:10425000136823F001031360A369B3F1806F4ED09C
:10426000E369A26A1343E26B1343E16822680B43DC
:104270009360636B626A1343A26B1343A269134397
:104280002269134362691343226A1343626813432A
:10429000E26C1343A2681343A26C1343A16D22681E
:1042A0000B43D36063686BB92268936823F4C053EF
:1042B00043F4006393602268936823F4C06343F47B
:1042C000806393602268136D23F0010313656368B4
:1042D00013F4800F06D02268D36823F00043616D89
:1042E0000B43D3600020C4F88400012384F881309C
:1042F00070BD84F88030204603F09AFCA4E7636820
:10430000B3F5800FACD1A36B002BA9D12268136841
:1043100043F480531360A3E7012070470120E7E7CF
:104320000120E5E70120E3E70030014000380040CC
:10433000003C0040F0B4036A23F001030362036A07
:10434000446885691E4A2A400E68164323F002031A
:104350008D682B431B4A1C4DA84218BF90420CBFCE
:10436000012200220CD005F58045A84214BF00258B
:104370000125164FB84203D015B9154DA84205D1F5
:1043800023F00803CD682B4323F004035AB9114AE4
:10439000904214BF002201220C4DA84203D012B952
:1043A0000B4A904205D124F440724C6914438A6947
:1043B0001443446086614A6842630362F0BC7047FC
:1043C0008CFFFEFF0000014000040140004001405E
:1043D000004801400044014070B4036A23F4807334
:1043E0000362036A4468C26922F073020E681643CE
:1043F00023F400738A6843EA0223164A164DA84242
:1044000018BF90420CBF0122002206D123F40063A2
:10441000CD6843EA052323F480635AB90F4A9042DA
:1044200014BF002201220E4DA84203D012B90D4A3A
:10443000904207D124F440544A6944EA02148A693C
:1044400044EA02144460C6614A68C263036270BCF5
:10445000704700BF000001400004014000440140DB
:10446000004001400048014070B4036A23F48053C7
:104470000362036A4468C26922F4E6420D6842EAB4
:10448000052223F400538D6843EA05330F4E104D87
:10449000A84218BFB0420DD005F58045A84214BF10
:1044A0000025012506F58046B04203D015B9094D17
:1044B000A84204D124F480444D6944EA8514446040
:1044C000C2614A680264036270BC70470000014028
:1044D000000401400048014070B4036A23F48033B3
:1044E0000362036A4268446D24F070040D682C4333
:1044F00023F400338D6843EA0543104E104DA84263
:1045000018BFB0420DD005F58045A84214BF002564
:10451000012506F58046B04203D015B9094DA842E1
:1045200004D122F480324D6942EA0522426044659A
:104530004A688265036270BC704700BF000001409A
:10454000000401400048014070B4036A23F4801362
:104550000362036A4468426D22F4E0420D6842EA55
:10456000052223F400138D6843EA05530F4E104DC6
:10457000A84218BFB0420DD005F58045A84214BF2F
:104580000025012506F58046B04203D015B9094D36
:10459000A84204D124F400344D6944EA85244460DF
:1045A00042654A68C265036270BC70470000014002
:1045B000000401400048014030B4036A056A25F058
:1045C00001050562846924F0F00444EA021423F032
:1045D0000A030B438461036230BC704730B4056A40
:1045E00025F0100505628469036A24F4704444EAE6
:1045F000023423F0A00343EA01138461036230BC58
:10460000704700008268034B13400B4343F00703DD
:10461000836070478FFFCFFF90F83D30DBB2012BF6
:1046200011D1022380F83D3002689168084B0B409D
:10463000062B18BFB3F5803F07D0136843F0010382
:10464000136000207047012070470020704700BFB2
:104650000700010090F83D30DBB2012B16D1022398
:1046600080F83D300268D36843F00103D3600268EC
:104670009168084B0B40062B18BFB3F5803F07D05D
:10468000136843F001031360002070470120704756
:10469000002070470700010070477047704770475F
:1046A000704710B5044603681A6912F0020F11D062
:1046B000DA6812F0020F0DD06FF002021A610123C6
:1046C000037703689B6913F0030F79D0FFF7E6FFC8
:1046D0000023237723681A6912F0040F12D0DA68D6
:1046E00012F0040F0ED06FF004021A610223237738
:1046F00023689B6913F4407F68D02046FFF7CEFF04
:104700000023237723681A6912F0080F12D0DA68A1
:1047100012F0080F0ED06FF008021A6104232377FD
:104720002368DB6913F0030F57D02046FFF7B6FF6D
:104730000023237723681A6912F0100F12D0DA6869
:1047400012F0100F0ED06FF010021A6108232377B9
:104750002368DB6913F4407F46D02046FFF79EFFB5
:104760000023237723681A6912F0010F03D0DA6857
:1047700012F0010F3FD123681A6912F0800F03D0A5
:10478000DA6812F0800F3DD123681A6912F4807F35
:1047900003D0DA6812F0800F3BD123681A6912F057
:1047A000400F03D0DA6812F0400F39D123681A693C
:1047B00012F0200F03D0DA6812F0200F37D110BDAD
:1047C000FFF76BFF2046FFF76AFF81E72046FFF700
:1047D00064FF2046FFF763FF92E72046FFF75DFF87
:1047E0002046FFF75CFFA3E72046FFF756FF204671
:1047F000FFF755FFB4E76FF001021A61204603F09E
:10480000EBF8B8E76FF080021A61204600F053FA27
:10481000BAE76FF480721A61204600F04DFABCE7E7
:104820006FF040021A612046FFF73AFFBEE76FF0D3
:1048300020021A61204600F03DFAC0E770B4036818
:10484000374CA04214BF00240124B0F1804F14BFA4
:10485000224644F00102AAB9324DA84214BF0025F5
:104860000125314EB0420DD065B905F1804505F501
:104870008235A84214BF0025012506F50066B04226
:1048800000D01DB123F070034D682B4312BB254AA5
:10489000904214BF00220122234DA8421AD0CAB967
:1048A00002F1804202F58232904214BF00220122BE
:1048B00005F50065A8420DD062B91C4A904214BFAC
:1048C0000022012205F59A35A84203D012B9184AF0
:1048D000904203D123F44073CA68134323F080034A
:1048E0004A69134303608A68C2620A688262114B94
:1048F000984214BF234644F001035BB90B4B984226
:1049000014BF002301230C4A904203D013B9084B73
:10491000984201D10B6903630123436170BC704766
:104920000000014000080040000400400044014035
:1049300000480140000401400040014060B310B550
:10494000044690F83D3013B3022384F83D302146ED
:1049500051F8040BFFF772FF012384F8483084F804
:104960003E3084F83F3084F8403084F8413084F899
:10497000423084F8433084F8443084F8453084F879
:10498000463084F8473084F83D30002010BD80F870
:104990003C3003F089F9D7E70120704760B310B5C8
:1049A000044690F83D3013B3022384F83D3021468D
:1049B00051F8040BFFF742FF012384F8483084F8D4
:1049C0003E3084F83F3084F8403084F8413084F839
:1049D000423084F8433084F8443084F8453084F819
:1049E000463084F8473084F83D30002010BD80F810
:1049F0003C30FFF751FED7E70120704770B4036ADF
:104A000023F010030362036A446885691A4A2A4046
:104A10000E6842EA062623F020038A6843EA02135E
:104A2000164A174DA84218BF90420CBF012200221F
:104A300006D123F08003CD6843EA051323F0400339
:104A40005AB9104A904214BF002201220E4DA842CA
:104A500003D012B90D4A904207D124F440644A6948
:104A600044EA82048A6944EA8204446086614A68AE
:104A70008263036270BC7047FF8CFFFE0000014040
:104A80000004014000440140004001400048014052
:104A900090F83C30012B2ED010B50446012380F84D
:104AA0003C30142A0FD8DFE802F00B0E0E0E120E67
:104AB0000E0E160E0E0E1A0E0E0E1E0E0E0E2200EC
:104AC0000068FFF737FC002084F83C0010BD006848
:104AD000FFF794FFF7E70068FFF77EFCF3E7006855
:104AE000FFF7C2FCEFE70068FFF7F6FCEBE70068B2
:104AF000FFF72AFDE7E70220704710B4846824F42A
:104B00007F4442EA03220A43224382605DF8044B59
:104B10007047000090F83C30012B77D010B5044668
:104B2000012380F83C30022380F83D300268906811
:104B3000374B034093600B68602B53D00ED9B3F50D
:104B4000005F43D02DD9334A934225D037D9324A1A
:104B5000934221D0103293421ED013E0402B4BD011
:104B60000BD9502B0ED1CA6849682068FFF724FD85
:104B700050212068FFF746FD04E0202B0CD008D917
:104B8000302B09D0012384F83D30002084F83C000C
:104B900010BD0BB1102BF5D119462068FFF732FD7F
:104BA000F0E7702BEED1CB684A6889682068FFF780
:104BB000A4FF2268936843F077039360E2E7B3F5BC
:104BC000801FE9D0B3F1101FE6D0DBE7CB684A685D
:104BD00089682068FFF791FF2268936843F4804357
:104BE0009360CFE7CA6849682068FFF7F7FC602147
:104BF0002068FFF707FDC5E7CA6849682068FFF726
:104C0000DBFC40212068FFF7FDFCBBE7022070477A
:104C10008800CEFF200010003000100090F83C30DB
:104C2000012B41D070B4012380F83C30022380F87E
:104C30003D3003685A689D681C4E1D4CA34218BF46
:104C4000B34203D122F470024C68224322F0700276
:104C50000C6822435A600368144AB3F1804F18BFAE
:104C6000934213D0A2F57C4293420FD002F58062AA
:104C700093420BD002F58062934207D002F578424E
:104C8000934203D0A2F56C42934204D125F08005F3
:104C90008A6815439D60012380F83D30002380F829
:104CA0003C30184670BC704702207047000001403D
:104CB0000004014070477047704700002DE9F04143
:104CC00086B004460168836802691343426913434E
:104CD000C2691343426E13430868884A02401A436C
:104CE0000A602268536823F44053E1680B43536021
:104CF000A1692268824B9A4201D0236A19439068C5
:104D0000804B03400B4393602268D36A23F00F0368
:104D1000616A0B43D36222687B4B9A4221D07B4B62
:104D20009A4200F08C807A4B9A4200F0A280794B34
:104D30009A4200F0B580784B9A4200F0C880774BD9
:104D40009A4200F0F380764B9A4200F01881754B3E
:104D50009A4200F02B816A4B9A4200F03E818023F8
:104D600033E0714B5B6D03F03803282B65D8DFE827
:104D700013F02900640064006400640064006400AF
:104D800064004C016400640064006400640064001A
:104D900064002B006400640064006400640064002C
:104DA00064005E00640064006400640064006400E9
:104DB00064006000640064006400640064006400D7
:104DC00064006200012300E008234D498A4200F09C
:104DD0002E81E069B0F5004F00F0B081202B00F289
:104DE0000982202B00F25D82DFE813F02A023002F4
:104DF0005B025B0233025B025B025B0238025B0216
:104E00005B025B025B025B025B025B023D025B02D8
:104E10005B025B025B025B025B025B025B025B02AA
:104E20005B025B025B025B025B025B0249021023D6
:104E3000CBE72023C9E74023C7E78023C5E73A4BE8
:104E40005B6D03F00703052B11D8DFE813F00600B4
:104E5000E00008000A000C000E000023B5E708235C
:104E6000B3E71023B1E72023AFE74023ADE780236A
:104E7000ABE72D4B5B6D03F00703052B0ED8DFE886
:104E800003F003C80507090B00239EE708239CE7EE
:104E900010239AE7202398E7402396E7802394E79E
:104EA000214B5B6D03F00703052B0ED8DFE803F001
:104EB00003B30507090B002387E7082385E71023C1
:104EC00083E7202381E740237FE780237DE7164B9C
:104ED0005B6D03F00703052B0ED8DFE803F0039E9C
:104EE0000507090B002370E708236EE710236CE722
:104EF00020236AE7402368E7802366E7F369FFCF52
:104F0000000C0058FFF4FF11001001400044004065
:104F100000480040004C0040005000400014014098
:104F200000780040007C0040004402587E4B5B6DDE
:104F300003F03803282B20D8DFE803F0151F1F1FCC
:104F40001F1F1F1F711F1F1F1F1F1F1F171F1F1F27
:104F50001F1F1F1F191F1F1F1F1F1F1F1B1F1F1F6B
:104F60001F1F1F1F1D0001232FE708232DE71023FC
:104F70002BE7202329E7402327E7802325E76A4BF7
:104F80005B6D03F00703052B0ED8DFE803F0034A3F
:104F90000507090B002318E7082316E7102314E779
:104FA000202312E7402310E780230EE75E4B5B6D62
:104FB00003F00703052B0ED8DFE803F003350507E0
:104FC000090B002301E70823FFE61023FDE6202359
:104FD000FBE64023F9E68023F7E603F50E339B6DED
:104FE00003F00703052B0ED8DFE803F0031F0507C6
:104FF000090B0223E9E60823E7E61023E5E6202370
:10500000E3E64023E1E68023DFE60423DDE6042334
:10501000DBE60423D9E60423D7E60423D5E60423FC
:10502000D3E60423D1E60423CFE60423CDE6202BE8
:1050300027D8022BC0F02781023B1E2B00F22581CE
:10504000DFE813F05200230158002301230123015C
:105050005D002301230123012301230123012301F7
:1050600062002301230123012301230123012301E2
:105070002301230123012301230123012301230110
:105080006E00402B2ED14FF40040626A274B33F85C
:105090001220B0FBF2F3656805EB4501994200F27E
:1050A000F680B3EB053F00F2F4804FF0000892B2B7
:1050B00000234146FBF764F90F0247EA1067060236
:1050C00068082A464346301847F10001FBF758F9B3
:1050D000A0F54072164B9A4200F2DD802368D8603A
:1050E0004046A2E00120A0E0FEF7F6FC0028CCD16B
:1050F00000209AE003A8FEF701FD0498F6E7684651
:10510000FEF7FAFD0198F1E7074B1B6813F0200F3B
:1051100008D0054B1B68C3F3C1030648D840E5E738
:105120000548B2E70348B0E700440258AC940008D1
:10513000FFFC0F000090D00300093D00202B15D884
:10514000202B00F2AA80DFE803F03238A8A83BA8A1
:10515000A8A840A8A8A8A8A8A8A845A8A8A8A8A89A
:10516000A8A8A8A8A8A8A8A8A8A85100402B1CD106
:10517000626A4E4B33F81230B0FBF3F062685308AA
:1051800003EB4000B0FBF2F080B2A0F110024FF64A
:10519000EF739A4200F2838020F00F03C0F34200C5
:1051A00018432368D86000203FE001203DE0FDF770
:1051B00063FE0028DCD1002037E0FDF76FFEF8E742
:1051C00003A8FEF79BFC0498F3E76846FEF794FDFE
:1051D0000198EEE7364B1B6813F0200F08D0344BD4
:1051E0001B68C3F3C1033348D840E2E73248BFE746
:1051F0003048BDE7402B17D14FF40040626A2B4B7B
:1052000033F81230B0FBF3F0636800EB5300B0FBEF
:10521000F3F080B2A0F110024FF6EF739A4242D839
:105220002368D860002000E001200123A4F86A3040
:10523000A4F868300023E366236706B0BDE8F08178
:10524000FDF71AFE0028D9D10020EEE7FDF726FE73
:10525000F8E703A8FEF752FC0498F3E76846FEF768
:105260004BFD0198EEE7124B1B6813F0200F08D09E
:105270000F4B1B68C3F3C1030E48D840E2E70E484A
:10528000BCE70C48BAE70120CFE70120CDE70120B9
:10529000CBE70120C9E70120C7E70120C5E70120CE
:1052A000C3E70120C1E70120BFE700BFAC940008BD
:1052B000004402580090D00300093D00836A13F0B7
:1052C000010F06D00268536823F40033C16A0B4310
:1052D0005360836A13F0020F06D00268536823F408
:1052E0008033016B0B435360836A13F0040F06D0C5
:1052F0000268536823F48023416B0B435360836A35
:1053000013F0080F06D00268536823F40043816B42
:105310000B435360836A13F0100F06D00268936842
:1053200023F48053C16B0B439360836A13F0200F07
:1053300006D00268936823F40053016C0B4393601A
:10534000836A13F0400F0AD00268536823F4801375
:10535000416C0B435360436CB3F5801F0BD0836AE1
:1053600013F0800F06D00268536823F40023C16C49
:105370000B43536070470268536823F4C003816C89
:105380000B435360EBE72DE9F84305460F461646FD
:105390009946DDF820802C68E46937EA04030CBFE5
:1053A00001240024B44241D1B8F1FF3FF3D0FBF710
:1053B0009DF9A0EB0900404524D8B8F1000F21D099
:1053C0002B681A6812F0040FE5D0DA6912F4006F46
:1053D000E1D04FF400621A622A68136823F4D07394
:1053E00013602A68936823F0010393602023C5F8B3
:1053F0008030C5F88430C5F88830002385F87C30CB
:10540000032014E02A68136823F4D07313602A6819
:10541000936823F0010393602023C5F88030C5F81A
:105420008430002385F87C30032000E00020BDE8B4
:10543000F88330B583B004460023C0F88830FBF70A
:1054400055F9054623681B6813F0080F0ED1236831
:105450001B6813F0040F17D12023C4F88030C4F860
:105460008430002084F87C0003B030BD6FF07E43B0
:105470000093034600224FF400112046FFF783FFFC
:105480000028E4D00320EFE76FF07E4300932B4623
:1054900000224FF480012046FFF775FF0028DBD083
:1054A0000320E1E7002842D038B50D460446C36921
:1054B000B3F5004F3DD08368002B3CD1D0F880304D
:1054C00063B32423C4F880302268136823F00103F7
:1054D00013602046FFF7F2FB01281ED0A36A13BB1E
:1054E0002268536823F4006353602268936823F0B2
:1054F0002A0393602268536843F480435360226810
:10550000536823F020032B4353602268136843F051
:10551000010313602046FFF78CFF38BD80F87C3014
:1055200002F0DAFBCDE72046FFF7C8FED8E70120FE
:1055300070470120F1E70120EFE7000084B0034647
:10554000184A92E8030004AA02E9030016496A46D1
:1055500003C982E803005A6E32B90122A3F86A2017
:10556000A3F8682004B0704719688A68C2F34262E1
:10557000886804A901EB507010F8081C090110F8A4
:10558000100C91FBF0F1A3F86A1004A90A4412F878
:10559000081C090112F8102C91FBF2F2A3F8682004
:1055A000E0E700BFC4940008DC94000890F87C3069
:1055B000012B18D0012380F87C302423C0F88030E0
:1055C00003681A68196821F00101196022F000527D
:1055D0000023436601680A602022C0F8802080F81A
:1055E0007C30184670470220704738B590F87C3000
:1055F000012B1DD00446012380F87C302423C0F801
:10560000803003681D681A6822F001021A6002687F
:10561000936823F0604319439160FFF78FFF23687D
:105620001D602023C4F88030002084F87C0038BD41
:105630000220FCE738B590F87C30012B1DD00446E1
:10564000012380F87C302423C0F8803003681D6873
:105650001A6822F001021A600268936823F06063FE
:1056600019439160FFF76AFF23681D602023C4F887
:105670008030002084F87C0038BD0220FCE7000068
:10568000002301330C4A934211D80269002AF8DA48
:10569000036943F00103036100230133064A934287
:1056A00007D8026912F0010FF7D1002070470320DC
:1056B00070470320704700BF400D030084B010B551
:1056C000044603A880E80E00089B012B1DD1A36BA4
:1056D00023F48033A363E2681A4B1340E360E3686A
:1056E00023F44013E3600F9B012B09D02046FFF702
:1056F000C7FF069B012B1BD0BDE8104004B07047CC
:10570000E36843F48013E360F0E7E36843F04003A9
:10571000E3602046FFF7B4FF0C9B23B9A36B43F46F
:105720008033A363E5E7A36B23F48033A363E0E74F
:10573000A36843F00603A360A36843F02003A360BB
:10574000DAE700BFBFFFBDFF022A0AD00921C26805
:1057500022F47052C260C36843EA8123C360002010
:105760007047204B0B44204A934229D91F4B0B44CE
:105770001F4A934226D91F4B0B441F4A934223D9F9
:105780001E4B0B441E4A934220D31E4B0B441E4A11
:1057900093421DD91D4B0B441D4A93421AD31D4BF6
:1057A0000B441D4A934217D31C4B0B441C4A934293
:1057B00014D31C4B0B441C4A934211D20721C6E759
:1057C0000F21C4E70E21C2E70D21C0E70C21BEE77F
:1057D0000B21BCE70A21BAE70921B8E70821B6E79F
:1057E0000621B4E7405327FFFF340C00401E1BFF87
:1057F0003F420F0000DC0BFF7F4F1200808CF9FE50
:1058000020D6130060B6E5FE5FE3160000D3CEFE9F
:1058100040771B00C05BB3FEC091210000CA91FE1F
:1058200020753800E05459FEE09C4100836843F045
:105830000103836000207047836823F001038360C5
:105840000020704708B5C36823F0C043C360012936
:1058500009D069B9C36843F08043C3603220FAF7C6
:105860004BFF002008BDC36843F00053C360F5E759
:105870000120F7E7890141F0200101610023013394
:10588000054A934205D8026912F0200FF7D1002093
:1058900070470320704700BF400D030010230361D1
:1058A00000230133054A934205D8026912F0100F14
:1058B000F7D1002070470320704700BF400D030060
:1058C000D0F800381943C0F80018002070470000D5
:1058D00084B02DE9F843044609A880E80E00254667
:1058E000002306E003F1400204EB82020021516034
:1058F00001330E2BF6D9DDF84C80B8F1000F24D11E
:10590000D4F8043843F00203C4F80438A36B23F43A
:105910000013A363236843F040032360236843F02C
:10592000800323600023C4F8003E04F50066D4F829
:105930000038C4F800380E9B012B10D10B9B4BB9DB
:1059400000212046FFF7BCFF0DE0A36B43F40013DA
:10595000A363E7E701212046FFF7B2FF03E003213D
:105960002046FFF7ADFF10212046FFF783FF814659
:1059700008B14FF001092046FFF790FF08B14FF042
:105980000109002333617361F3610AE0C3B94FF089
:105990000060C2F8000900220A614FF67F328A6077
:1059A0000133099F9F4210D905EB431202F51061A4
:1059B000D2F800090028E9DB0020C2F80009EAE774
:1059C0004FF09040C2F80009E5E700230AE0BBB1C0
:1059D0004FF09040C2F8000B00220A614FF67F3270
:1059E0008A6001339F4210D905EB431202F5306102
:1059F000D2F8000B0028EADB0020C2F8000BEBE72E
:105A00004FF00060C2F8000BE6E7336923F48073BF
:105A100033610023A3616FF0804363610C9B1BB96A
:105A2000A36943F01003A361A2690B4B1343A36165
:105A30000F9B1BB1A36943F00803A361B8F1010FE9
:105A400004D04846BDE8F84304B07047A269034B50
:105A50001343A361F5E700BF00383C800400004019
:105A6000D0F8083813F0060305D0062B18BF022B18
:105A700003D102207047002070470F2070470000BC
:105A800070B40C784B78012B20D0D0F81C3804F07F
:105A90000F060122B24043EA0243C0F81C3800EB73
:105AA0004410D0F8003B13F4004F0CD1D0F8002B79
:105AB0008B68C3F30A03C97843EA81431343134A4B
:105AC0001A43C0F8002B002070BC7047D0F81C2887
:105AD00004F00F06B3409BB21343C0F81C3800EB30
