:020000040800F2
:1000000000000220E18D00083188000833880008D4
:10001000358800083788000839880008000000008B
:100020000000000000000000000000003B88000805
:100030003D880008000000003F880008318E00085D
:10004000318E0008318E0008318E0008318E000894
:10005000318E0008318E0008318E0008318E000884
:10006000318E0008318E0008318E0008318E000874
:10007000318E0008318E0008318E0008318E000864
:10008000318E0008318E0008318E0008418800084A
:10009000318E000851880008318E0008318E00082A
:1000A000318E000861880008318E0008318E00080A
:1000B000318E0008318E0008318E0008318E000824
:1000C000318E0008318E0008318E0008318E000814
:1000D000318E0008318E0008318E0008318E000804
:1000E000318E0008318E000800000000318E0008BB
:1000F000318E0008318E0008318E0008318E0008E4
:10010000318E0008318E0008318E0008318E0008D3
:10011000318E0008318E0008318E0008318E0008C3
:10012000318E0008318E0008318E0008318E0008B3
:10013000318E0008318E0008318E0008318E0008A3
:1001400000000000000000000000000000000000AF
:10015000318E0008318E0008318E0008318E000883
:10016000318E0008318E0008318E0008318E000873
:10017000318E000871880008318E0008318E000829
:10018000318E0008318E0008318E0008318E000853
:10019000318E0008318E0008318E0008318E000843
:1001A000318E0008318E0008318E0008318E000833
:1001B000318E0008318E0008318E0008318E000823
:1001C000318E0008318E0008318E0008318E000813
:1001D000318E0008318E0008318E0008318E000803
:1001E000318E0008318E0008318E0008318E0008F3
:1001F000318E0008318E0008318E0008318E0008E3
:10020000318E0008318E0008318E0008318E0008D2
:10021000318E0008318E0008318E0008318E0008C2
:10022000318E0008318E0008318E00080000000079
:10023000318E0008318E000800000000318E000869
:10024000318E0008318E0008318E0008318E000892
:10025000318E0008318E0008318E0008318E000882
:10026000318E0008318E0008318E0008318E000872
:10027000318E0008318E0008318E00080000000029
:10028000318E0008318E0008318E00080000000019
:0802900000000000318E00089F
:1002980010B5054C237833B9044B13B10448AFF3B8
:1002A80000800123237010BDE4010020000000003D
:1002B8004490000808B5034B1BB103490348AFF34A
:1002C800008008BD00000000E801002044900008FC
:1002D80053B94AB9002908BF00281CBF4FF0FF31A5
:1002E8004FF0FF3000F072B9ADF1080C6DE904CEA3
:1002F80000F006F8DDF804E0DDE9022304B07047F9
:100308002DE9F047089E04468846002B4BD18A42C7
:10031800154667D9B2FA82F24AB1C2F1200701FA4A
:1003280002F320FA07F7954047EA030894404FEA9A
:10033800154E230CB8FBFEF71FFA85FC0EFB178839
:1003480043EA084307FB0CF1994209D9EB1807F176
:10035800FF3080F01B81994240F21881023F2B4404
:100368005B1AA4B2B3FBFEF00EFB103344EA03445D
:1003780000FB0CFCA44509D92C1900F1FF3380F0CF
:100388000781A44540F2048102382C4440EA074022
:10039800A4EB0C0400271EB1D4400023C6E9004397
:1003A8003946BDE8F0878B4209D9002E00F0EB8072
:1003B8000027C6E9000138463946BDE8F087B3FA98
:1003C80083F7002F47D18B4202D3824200F2FA8092
:1003D800841A61EB030301209846002EE0D0C6E999
:1003E8000048DDE702B9FFDEB2FA82F2002A40F0E7
:1003F8008F80491B4FEA154E1FFA85F80127B1FB7C
:10040800FEFC230C0EFB1C1143EA014308FB0CF114
:10041800994207D9EB180CF1FF3002D2994200F249
:10042800CD808446591AA3B2B1FBFEF00EFB10141E
:1004380043EA044408FB00F8A04507D92C1900F149
:10044800FF3302D2A04500F2B6801846A4EB080498
:1004580040EA0C409FE7C7F1200CBB4022FA0CFE93
:100468004EEA030E01FA07F420FA0CF521FA0CF310
:100478004FEA1E482543B3FBF8F92C0C08FB193347
:100488001FFA8EFA44EA034309FB0AF49C4202FA73
:1004980007F200FA07F10BD91EEB030309F1FF304D
:1004A80080F087809C4240F28480A9F1020973445D
:1004B8001B1BADB2B3FBF8F008FB103345EA03444D
:1004C80000FB0AFAA24508D91EEB040400F1FF3329
:1004D8006BD2A24569D90238744440EA0940A0FBAE
:1004E8000289A4EB0A044C45C2464B4654D351D06A
:1004F800002E69D0B1EB0A0564EB030404FA0CFC86
:10050800FD40FC404CEA0505C6E90054002747E7D2
:10051800C2F1200320FA03F7954001FA02F021FA0C
:1005280003F34FEA154E3843010CB3FBFEF71FFAED
:1005380085F80EFB173341EA034107FB08F38B42AA
:1005480004FA02F407D9691807F1FF3C2FD28B424D
:100558002DD9023F2944CB1A81B2B3FBFEF00EFB22
:10056800103341EA034100FB08F38B4207D96918AD
:1005780000F1FF3C17D28B4215D902382944C91A19
:1005880040EA07473BE73746304609E70746E7E6CC
:100598001846FBE64145ABD2B8EB020A69EB0E02FE
:1005A80001381346A4E76046E9E7184695E7674629
:1005B800D1E781467CE702382C4447E7ACF1020CCE
:1005C8002B442FE7384608E73746E9E6704700BF6F
:1005D80010B5032000F056F802F02CF90F498B698A
:1005E800C3F303230E4AD35C03F01F03D8400D4B1B
:1005F80018608B6903F00F03D35C03F01F03D84026
:10060800094B1860002008F0CFF810B101242046EB
:1006180010BD044607F058FFF9E700BF0044025830
:10062800C8900008180100201C010020034B1B780B
:10063800034A11680B441360704700BF0000002094
:100648002C020020014B1868704700BF2C020020C4
:1006580038B50446FFF7F6FF0546B4F1FF3F02D070
:10066800044B1B781C44FFF7EDFF401BA042FAD354
:1006780038BD00BF00000020014B1868000C70470F
:100688000010005C0649CB6823F4E0631B041B0CD4
:10069800000200F4E0600343024A1A43CA6070474C
:1006A80000ED00E00000FA0530B4154BDB68C3F339
:1006B8000223C3F10704042C28BF04241D1D062DA2
:1006C80014D9033B4FF0FF3505FA04F421EA04017D
:1006D800994005FA03F322EA03031943002807DBCC
:1006E8000901C9B2074B195430BC70470023E9E728
:1006F80000F00F000901C9B2034B1954F4E700BF19
:1007080000ED00E000E400E014ED00E0002807DB65
:1007180000F01F02400901239340024A42F82030AA
:10072800704700BF00E100E030B4446B0268D2F8C3
:1007380084106F4B194041EA8401C2F884100268A2
:10074800D2F8841021F47F01856B41EA0541C2F893
:100758008410826B22440468D4F88810194041EA56
:100768008201C4F888100468D4F8881021F4FE01C6
:10077800C56B41EA0541C4F88810C16B02EB410220
:100788000468D4F8A010194041EA8201C4F8A01006
:100798000468D4F8A01021F4FE01056C41EA054173
:1007A800C4F8A010046C416C01FB04240268D2F860
:1007B800B010194041EA8401C2F8B0100268D2F8BA
:1007C800B01021F4FE01856C41EA0541C2F8B01071
:1007D800826CC16C01FB02440268D2F8AC1019406B
:1007E80041EA8401C2F8AC10026D416D01FB02427E
:1007F8000468D4F8F010194041EA8201C4F8F010F6
:100808000468D4F8F01021F47C11856D41EA0541A3
:10081800C4F8F010816D02EB41020468D4F8C010EE
:100828000B4043EA8202C4F8C0200268D2F8C03004
:1008380023F47C13C16D43EA0143C2F8C030026857
:10084800D2F8C03023F07C53016E43EA0163C2F84A
:10085800C030436B274A1A449200C266836B02EB8E
:1008680083030367C16B03EBC1034367046C416CEB
:1008780001FB04F103EB81038367846CC16C01FB0A
:1008880004F103EB8103C367046D416D01FB04F1BF
:1008980003EB8103C0F88030816D03EBC103C0F81E
:1008A8008430C46D856E05FB04F403EB8403C0F843
:1008B8008830016E01FB05F103EB8103C0F890302D
:1008C8000D498B420DD9D0F89C3043F02003C0F875
:1008D8009C30032380F89830012007E0002342F879
:1008E800043BD0F890309342F8D8002030BC7047D1
:1008F8000300FFFF002B0010FCD30040F0B44C684D
:10090800E4B90E698C6826430C6846EA84460D6A89
:10091800CC6944EA05648D692C434D692C43CD6844
:100928002C43D0F88470806E03FB00F307EB83053B
:1009380047F823606C600835002015E00E698C6864
:1009480026430C68264346F08046E0E71418E6780C
:10095800A3781B0443EA0663647843EA0423145C1F
:10096800234345F8043B0430CB89034CE35C8342C2
:10097800ECD8F0BC704700BF5C90000830B595B06B
:1009880004464C22A04901A808F08AFA002C00F07D
:10099800388123689D4A934220D094F898300BB34D
:1009A8002268936923F010039361FFF74BFE054615
:1009B80023689A6912F0080F1AD0FFF743FE401B0C
:1009C8000A28F5D9D4F89C3043F00103C4F89C30C8
:1009D800032384F89830012015B030BD03F58073E7
:1009E8006360DAE784F89930204607F07FFDD7E79F
:1009F8009A6942F001029A61FFF724FE05462368CE
:100A08009A6912F0010F0FD1FFF71CFE401B0A284C
:100A1800F5D9D4F89C3043F00103C4F89C30032383
:100A280084F898300120D7E79A6942F002029A6167
:100A3800237C012B40D02268936943F040039361E3
:100A4800637C012B3ED02268936923F48043936131
:100A5800A37C012B3CD02268936943F480539361B3
:100A68002268936923F44073A1680B439361226859
:100A7800936923F0A40393612268136923F0100398
:100A88001361E368012B29D0002B2CD0022B00F036
:100A98009B802268936943F08003936122681369FD
:100AA80043F010031361E368032B1CD12268936998
:100AB80043F02003936116E02268936923F0400312
:100AC8009361BDE72268936943F480439361BFE76C
:100AD8002268936923F480539361C1E7226893697C
:100AE80043F004039361A3695A1EE369013B1B02A7
:100AF80043EA4263226A013A13436269013A216870
:100B080043EA0243CB61A368B3F5407F62D0236E0A
:100B180033B12268D2F8C030616E0B43C2F8C030DE
:100B2800E36D226ED3420DD02168D1F8C83023F08E
:100B38000703A26E14A800EB820252F84C2C134350
:100B4800C1F8C830236C6BB12168D1F8BC3023F0F0
:100B58000703626C14A800EB820252F84C2C134372
:100B6800C1F8BC30A36C73B12168D1F8BC3023F054
:100B78007003E26C14A800EB820252F84C2C43EA92
:100B88000213C1F8BC30236D73B12168D1F8BC30B1
:100B980023F4E063626D14A800EB820252F84C2C37
:100BA80043EA0223C1F8BC302268184B9A4222D08B
:100BB8000023C4F89430C4F89C30012384F898309A
:100BC8002046FFF7B1FD07E72268936943F0200349
:100BD800936188E7A36A013BE26A013A43EA022388
:100BE800226B013A43EA0213626A013A216843EA36
:100BF8000243CB608BE76268936823F0030393603A
:100C0800D6E70120E8E600BF6C90000800A000408D
:100C180090F89830013BDBB2012B07D9D0F89C3013
:100C280043F00203C0F89C3001207047CB680A6883
:100C3800D2B9072B0ED08A68DB0643EA82730A69A9
:100C480043EA02434A691343C26E496842F82130B5
:100C5800002070470A69CB691B0243EA02438A698C
:100C6800134343F06053EFE710B40A6942EA437252
:100C7800072B0ED08C684B6943EA8473006F496870
:100C880000EBC10440F83120636000205DF8044B9C
:100C980070478B69F2E710B490F89840E4B2012CE1
:100CA80009D0D0F89C3043F00403C0F89C300120F0
:100CB8005DF8044B7047920042EA011141EA430390
:100CC800026801990B43C2F880300020F0E790F8E1
:100CD8009830DBB2012B07D0D0F89C3043F00403E6
:100CE800C0F89C3001207047022380F898300268D1
:100CF800936923F0010393610023C0F89C301846E0
:100D0800704738B590F89830DBB2022B07D0D0F88E
:100D18009C3043F00803C0F89C30012038BD0368BC
:100D2800D3F8C04014F07C5F0CD0D3F8C44014F45E
:100D3800001F0FD0D0F89C3043F40073C0F89C30EB
:100D48000120EBE7D0F89C3043F02003C0F89C303A
:100D58000120E3E70546D3F8C440C4F3044423461E
:100D6800FFF7CCFD2A680123A340C2F8D030C5F8AC
:100D780094300020D2E70000F0B490F89840E4B234
:100D8800022C08D0D0F89C3043F00803C0F89C30FF
:100D98000120F0BC7047402937D041295BD0046D51
:100DA8008C427ED9C46F456D01FB05F504EB8504C3
:100DB8004FF0000C256805F080455560002D78D16E
:100DC8002568C5F38A451560256805F000559560C6
:100DD800256805F000451561A588D561656805F4A5
:100DE8007025D560656805F480155561656805F45A
:100DF80000159561E57905F07F0515626568ED0FC9
:100E0800556204F1080500245BE00468D4F8A0509A
:100E180015F4FE0F0FD0D4F8A45015F07F0F12D0A0
:100E2800D4F8A440C4F3052C446F456C0CFB05F5BD
:100E380004EB8504BEE7D0F89C3043F02003C0F8EB
:100E48009C300120A5E7D0F89C3043F48073C0F8AB
:100E58009C3001209DE70468D4F8B05015F4FE0FCB
:100E68000FD0D4F8B45015F07F0F12D0D4F8B44096
:100E7800C4F3052C846FC56C0CFB05F504EB8504E5
:100E880098E7D0F89C3043F02003C0F89C3001204C
:100E98007FE7D0F89C3043F48073C0F89C30012081
:100EA80077E7D0F89C3043F02003C0F89C3001204D
:100EB8006FE7256825F06045156085E72E5D1E55AE
:100EC8000134D689124FBE5DA642F7D840290BD00F
:100ED80041290ED01F2911D80268012303FA01F114
:100EE800C2F89810002054E70368C3F8A8C000208F
:100EF8004FE70368C3F8B8C000204AE701F01F01B4
:100F08000268012303FA01F1C2F89C10002040E7AF
:100F18005C90000890F89830013BDBB2012B07D9B0
:100F2800D0F89C3043F00203C0F89C300120704791
:100F380010B403689C6D0C4224D1DC6D44F00104AC
:100F4800DC6511F4007F05D00468D4F8E030134361
:100F5800C4F8E03011F4806F05D00468D4F8E430A8
:100F68001A43C4F8E4200068436D0C4A0A4013434E
:100F780043650B4A536943EA9171516100205DF85A
:100F8800044B70479C6D31EA040402D00324DC65ED
:100F9800D7E7DC6D44F00204DC65D2E7FFFFCF3F02
:100FA80000A8004070477047704770477047704707
:100FB8007047704770477047704770477047704771
:100FC800704770472DE9F0470446954B1A695B69ED
:100FD8004FEA837A0AEA827A03681A6D02F4704942
:100FE8005A6D09EA02091A6D02F00F085A6D08EAEB
:100FF80002081F6D07F0F0075A6D17401D6D05F0C8
:1010080071555A6D15401E6D06F060765A6D164082
:101018005A6D12F4807F03D01A6D12F4807F78D154
:1010280023685A6D12F4806F03D01A6D12F4806F22
:1010380078D1BAF1000F40F08480B9F1000F40F088
:101048008C80B8F1000F40F09480002F40F09D8014
:1010580023685A6D12F4006F04D01A6D12F4006FF1
:1010680040F09D8023685A6D12F4007F04D01A6DF9
:1010780012F4007F40F09D8023685A6D12F4002F0F
:1010880004D01A6D12F4002F40F0A28023685A6D24
:1010980012F4803F04D01A6D12F4803F40F0A28011
:1010A80023685A6D12F4802F04D01A6D12F4802F21
:1010B80040F0A28023685A6D12F4003F0FD01A6DD9
:1010C80012F4003F0BD04FF400321A65544B002243
:1010D8001A61D4F89C3043F08003C4F89C30002E89
:1010E80040F094804DB123681D65AA0F4C4B1A61DE
:1010F800D4F89C301D43C4F89C502268494B9A424E
:1011080000F09280D4F89C30002B40F0ED80BDE8D0
:10111800F0874FF480721A65414B00221A61FFF77D
:101128004AFF7DE7D3F8DC10D3F8E4204FF4806061
:1011380018653B4B0020186111402046FFF737FF28
:1011480077E7236800221A654FEA9A72344B1A61CE
:1011580051462046FFF726FF6FE72368C3F85090F3
:101168004FEA99722E4B1A6149462046FFF71BFF3A
:1011780067E72368C3F850804FEA9872284B1A61D2
:101188004146204607F072F95FE723681F65BA0FEA
:10119800234B1A6139462046FFF706FF58E74FF4FC
:1011A80000621A651E4B00221A612046FFF7FDFEF9
:1011B80058E7D3F8D810D3F8E0204FF4007018653A
:1011C800174B0020186111402046FFF7EFFE53E748
:1011D8004FF400221A65124B00221A612046FFF7CD
:1011E800E7FE53E74FF480321A650D4B00221A616F
:1011F8002046FFF7DEFE53E74FF480221A65084BBE
:1012080000221A612046FFF7D5FE53E723681E65C2
:10121800B20F034B1A6131462046FFF7CEFE61E755
:1012280000A8004000A0004063689A6812F0030F0D
:101238003FF468AF196A01F00F015A6A186A00F0A2
:101248003008586A08EA00081F6A07F4C077586A25
:1012580007401E6A06F4FC46586A06401D6A05F4F3
:10126800F025586A054011401FD1B8F1000F21D16F
:1012780063685A6A12F0400F03D01A6A12F0400FDE
:1012880020D157BB36B163681E62D4F89C301E4328
:10129800C4F89C60002D3FF435AF63681D62D4F834
:1012A8009C301D43C4F89C502CE719622046FFF778
:1012B80085FEDAE76368C3F8208041462046FFF7D9
:1012C8007EFED5E7D96BDA6B4020186202F03F0248
:1012D800090C2046FFF774FED3E763681F6239469E
:1012E8002046FFF76EFECDE72046FFF765FE0EE7C6
:1012F800F0B482B000233AE0092400E00024B440AE
:101308003C4302356F4E46F825406F4C2568D44360
:1013180004EA05064F6817F4803F01D042EA050643
:10132800694D2E606E6804EA06054F6817F4003FA1
:1013380001D042EA0605644E75604FF0B0452D684D
:1013480004EA05064F6817F4801F01D042EA050633
:101358004FF0B0452E606D682C404E6816F4001FA3
:1013680001D042EA05044FF0B042546001330A68E4
:1013780032FA03F400F0A28001249C402240F5D008
:101388004D68122D18BF022D10D1DE08083650F80E
:1013980026C003F00705AF000F25BD402CEA050C59
:1013A8000D69BD4045EA0C0540F8265006685F0007
:1013B8000325BD40ED4305EA060C4E6806F003061A
:1013C800BE4046EA0C0606604E6806F1FF3C112E48
:1013D80018BFBCF1010F01D9122E11D1866805EA98
:1013E800060CCE68BE4046EA0C068660466826EAC9
:1013F800040C4E68C6F300149C4044EA0C04446094
:10140800C46825408C68BC402C43C4604C6814F008
:10141800805FABD02D4CD4F8F45045F00205C4F8E9
:10142800F450D4F8F44004F002040194019C9D089F
:10143800AE1C244C54F8267003F00304A6000F24B5
:10144800B44027EA0407224CA0423FF457AF04F502
:101458008064A04222D004F58064A04220D004F524
:101468008064A0421ED004F58064A0421CD004F51C
:101478008064A0421AD004F58064A04218D004F514
:101488008064A04216D004F58064A04214D004F50C
:101498008064A0423FF430AF0A2430E701242EE7ED
:1014A80002242CE703242AE7042428E7052426E756
:1014B800062424E7072422E7082420E702B0F0BC2A
:1014C800704700BF000400588000005800440258CC
:1014D8000000025812B909048161704781617047A0
:1014E800002857D010B5044690F84130002B41D061
:1014F800242384F841302268136823F00103136021
:101508006368226823F0706313612268936823F488
:1015180000439360E368012B31D0A368226843F449
:1015280004439360E368022B2FD0226851681A4B5A
:101538000B4353602268D36823F40043D3602369C4
:1015480062691343A169226843EA0123D360E3690E
:10155800216A22680B4313602268136843F0010371
:10156800136000206064202384F84130206384F8ED
:10157800420010BD80F8403007F040F8B8E7A36893
:10158800226843F400439360CCE723684FF4006279
:101598005A60CAE7012070470080000290F8413085
:1015A800DBB2202B24D190F84030012B22D001232C
:1015B80080F84030242380F841300268136823F013
:1015C800010313600268136823F4805313600268F0
:1015D8001368194311600268136843F0010313602C
:1015E800202380F84130002380F8403018467047A7
:1015F800022070470220704790F84130DBB2202B60
:1016080022D190F84030012B20D0012380F84030BF
:10161800242380F841300268136823F00103136023
:101628000268136823F4706343EA012111600268B9
:10163800136843F001031360202380F8413000232E
:1016480080F84030184670470220704702207047E3
:101658002DE9F04782B00768CA00521A9300034484
:101668005A6D1B6D9A4257D8B8469B1AC1EBC104F4
:10167800A2000244526C9A4200D31A460C4606460F
:1016880002F1030A4FEA9A0A16E009F1030A4FEA3F
:101698009A0AE3001B1B9D003544A96C337C009318
:1016A8001FFA89F3E2B2384605F058FAAB6C4B449E
:1016B800AB646B6D4B446B6508EB441303F5106327
:1016C8009B699BB2534513D3E3001B1B9A0032441A
:1016D800516D136D99420BD253B15B1AC4EBC4011F
:1016E8008A003244D2F844909945CED39946CCE743
:1016F800E3001B1B98000644326D736D9A420FD8A5
:1017080004F00F040121A140D7F8344824EA010469
:10171800C7F83448002000E0012002B0BDE8F08797
:101728000020FAE7F0B58BB0002800F0918004465D
:10173800056890F8BD3323B3032384F8BD33EB6BFE
:1017480013F4807F01D100232361206804F0C2FFD5
:10175800254655F8107B6E460FCD0FC60FCD0FC628
:1017680095E8030086E80300231D0ECB384604F0F5
:10177800EFFE58B1022384F8BD33012528460BB08B
:10178800F0BD80F8BC3307F03DF9D5E700212068AB
:1017980004F0A6FF002315E0D900C81A82002244ED
:1017A800012082F83D0082F83C30A2F84230002047
:1017B80082F83F0050649064CA1A91002144086579
:1017C8000133DBB26568AB42E6D3002315E0D800ED
:1017D800C11A8A002244002182F8FD1182F8FC31E6
:1017E80082F8FF11C2F80412C2F80812C21A900057
:1017F8002044C0F810120133DBB29D42E7D82546D9
:1018080055F8107B6E460FCD0FC60FCD0FC695E865
:10181800030086E80300231D0ECB384604F0A6FF1C
:10182800054660B9002384F83830012384F8BD33B5
:10183800636A012B08D0206805F03BFB9EE7022372
:1018480084F8BD33012599E7204600F0D5FCF2E77E
:10185800012593E7026890F8BC33012B19D010B525
:10186800012380F8BC33836A012B0AD00446006840
:1018780005F013FB206804F027FF002084F8BC0360
:1018880010BD8369012BF1D0936B43F480339363CC
:10189800ECE702207047000070B505460E46036865
:1018A800196C03EB461303F53064A3680269012A37
:1018B8000FD0354A914261D113F4004F5AD113F039
:1018C800200F01D02023A360F1B2284607F0E4F8E6
:1018D80057E013F0080F14D02C4A914205D913F49D
:1018E800004F02D04FF40043A360284607F0CCF81D
:1018F80005F571720121286805F038FB0823A360FB
:101908003FE013F0200F2ED113F0280F39D11F4AD2
:10191800914202D913F4004F28D1F200921B930090
:101928002B44D3F804222169C1F31201521AC3F8D7
:101938001422D3F80412D3F808220A44C3F8082260
:10194800F1B2284607F0A8F8DEB9C6EBC606B30020
:101958002B44D3F81032A3B905F571720121286818
:1019680005F004FB0DE02023A3600AE04FF40043D8
:10197800A36006E04FF40043A36002E0F1B207F071
:101988008BF8002070BD00BF0A31544F0A30544F05
:1019980038B5044603681D6C03EB411101F530614D
:1019A8008A680369012B0DD0124B9D4214D0204642
:1019B80007F06AF8104B9D4202D92369012B12D017
:1019C800002038BD0C4B9D42F1D912F4004FEED0E7
:1019D8004FF400438B60EAE712F4004FE7D04FF46E
:1019E80000438B60E3E704F571720121206805F07C
:1019F800BDFAE5E70A31544F0A30544F2DE9F84F44
:101A080004460568284605F091FA08B1BDE8F88F44
:101A18002F460646206805F058FA0028F6D02068B8
:101A280005F053FA10F0020F04D02268536903F04E
:101A380002035361206805F048FA10F4002F40F0C3
:101A48009180206805F041FA10F4802F40F0DE8084
:101A5800206805F03AFA0028C0F25081206805F0A5
:101A680034FA10F4006F0AD0D5F8083813F0010FD3
:101A780040F05E812268536903F400635361206873
:101A880005F023FA10F0006F15D02268536903F0AF
:101A98000063536194F8F433002B40F04D81012129
:101AA80084F8F41323685B6DC3F38303C4F8F83335
:101AB800204600F0B5FB206805F007FA10F4805FB7
:101AC80040F03E81206805F000FA10F4005F40F015
:101AD8009081206805F0F9F910F0100F14D02268F1
:101AE800936923F0100393612E6A06F00F07C6F37B
:101AF8004343022B00F09581062B00F0B381226846
:101B0800936943F010039361206805F0DEF910F043
:101B1800080F40F0B981206805F0D7F910F4801F4C
:101B280040F0BB81206805F0D0F910F4001F40F0A8
:101B3800BE81206805F0C9F910F0804F40F0C181DE
:101B4800206805F0C2F910F0040F3FF45FAF236876
:101B58005D6815F0040F40F0BD81226853682B437F
:101B6800536053E7206805F0B4F98046B14625E094
:101B780007EB49130122C3F8082B49462046FFF713
:101B88008BFE2BE049462046FFF702FF07EB49137F
:101B98000822C3F8082B24E007EB49132022C3F8D6
:101BA800082B1AF4005F05D007EB49134FF40052D5
:101BB800C3F8082B09F101094FEA5808B8F1000FDA
:101BC8003FF43FAF18F0010FF4D05FFA89F12068B5
:101BD80005F08FF9824610F0010FC9D11AF0080FED
:101BE800D0D11AF0100F04D007EB49131022C3F814
:101BF800082B1AF0200FD4D02369012BCCD104F57F
:101C080071720121206805F0B1F9C5E7206805F077
:101C180068F98046B14631E04FEAC902A2EB0902F1
:101C280093002344596C9A6C0A449A6449E01AF068
:101C3800080F04D007EB49130822C3F808291AF043
:101C4800100F04D007EB49131022C3F808291AF023
:101C5800400F04D007EB49134022C3F808291AF0B3
:101C6800020F04D007EB49130222C3F808291AF01F
:101C7800800F3ED109F101094FEA5808B8F1000F69
:101C88003FF4E6AE18F0010FF4D05FFA89FB59462D
:101C9800206805F037F9824610F0010FC7D009F027
:101CA8000F03012101FA03F2D7F8343823EA0203BB
:101CB800C7F8343807EB4913C3F8081923698B426E
:101CC800AAD05946204606F0F3FE2369012BAED16F
:101CD800B9F1000FABD1C9EBC902930023441B6DC6
:101CE800002BA4D104F571720121206805F03EF99A
:101CF8009DE749462046FFF7ABFCBBE7D5F804381B
:101D080023F00103C5F8043894F8F433012B08D004
:101D1800204606F00DFF2268536903F00043536123
:101D28009CE6002184F8F413204600F079FAF2E7E3
:101D3800204606F0E5FE9DE6204606F0E1FEBAE6FE
:101D480005F50068D8F8043023F00103C8F804301A
:101D58001021206804F0DCFC14E007EB46134FF672
:101D68007F31C3F80819D3F8002922F40012C3F808
:101D78000029C3F8081BD3F8002B22F40012C3F87B
:101D8800002B01366368B342E7D8D8F81C3043F01B
:101D98000113C8F81C30236BEBB1D8F8843043F03A
:101DA8000B03C8F88430D8F8443043F00B03C8F864
:101DB8004430D5F8003823F4FE63C5F8003804F53C
:101DC8007172217C206805F0D1F82268536903F408
:101DD8008053536176E6D8F8142042F22B0313435C
:101DE800C8F81430D8F8103043F00B03C8F8103096
:101DF800DFE7206805F09EF8206804F083FDE060C6
:101E0800266800F04BFF227B0146304604F0E6FBD3
:101E1800204606F05EFE2268536903F400535361BE
:101E280057E647F6F0731E423FF469AE4FEAC7091A
:101E3800A9EB07034FEA8308A0443609C6F30A0250
:101E4800D8F80812284604F0A9FFC6F30A06D8F8FD
:101E580008323344C8F80832D8F814321E44C8F897
:101E680014624CE6082204F57171284604F096FFC6
:101E7800C6F30A16FB00D91B8A002244D2F8143292
:101E88001E44C2F814623AE6204606F01CFE226898
:101E9800536903F0080353613DE60021204606F02C
:101EA80053FE2268536903F4801353613AE6002114
:101EB800204606F043FE2268536903F40013536179
:101EC80037E6204606F046FE2268536903F0804351
:101ED800536135E6204606F043FE3EE690F8BC33F3
:101EE800012B0DD010B50446012380F8BC3380F8CF
:101EF8003810006804F0C1FF002084F8BC0310BD4E
:101F080002207047F8B511F0800F28D101F00F06B4
:101F1800F500AF1BBC00274604F5FC7404440434E8
:101F28003E460644002586F8FD5101F00F01217058
:101F3800A260E370627802B1E180022B1ED090F8B3
:101F4800BC33012B1DD00546012380F8BC33214644
:101F5800006804F0E7FC002085F8BC03F8BD01F038
:101F68000F06F500AF1BBC00274638340444043480
:101F78003E460644012586F83D50D6E700232371E6
:101F8800DDE70220EAE738B511F0800F21D101F032
:101F98000F05EA00541BA3001C4603F5FC73034419
:101FA800043325460544002285F8FD2101F00F0180
:101FB800197090F8BC23012A1AD00446012280F82F
:101FC800BC231946006804F0F5FC002084F8BC0323
:101FD80038BD01F00F04E200151BAB001D46383375
:101FE800034404332C460444012284F83D20DDE7F1
:101FF8000220EDE770B501F00F05EE00711B8C00B3
:1020080004F5FC740444211D761BB4000444C4F890
:102018000822C4F810320023C4F8143284F8FD31C1
:1020280084F8FC510369012B06D065B1DAB2006867
:1020380004F0A8FD002070BDC5EBC506B40004443B
:10204800C4F80C22F1E7DAB2006804F0FBFCF1E70F
:1020580001F00F01C1EBC1018B001844D0F8140244
:10206800704770B501F00F05EE00711B8C00383415
:102078000444211D761BB4000444A2642365002394
:102088006365012384F83D3084F83C500369012BD3
:1020980006D05DB1DAB2006804F074FD002070BDAE
:1020A800C5EBC506B4000444E264F2E7DAB200689E
:1020B80004F0C8FCF2E738B501F00F0543689D420B
:1020C80036D811F0800F20D1CA00541AA3001C463C
:1020D80003F5FC730344043322460244002182F8CA
:1020E800FD1101229A701D7090F8BC23012A21D09D
:1020F8000446012280F8BC231946006804F062FEF9
:102108007DB1002084F8BC0313E0EA00511B8B006A
:1021180019463833034404330144012281F83D2031
:10212800DFE704F57172217C206804F01FFFE8E7FF
:10213800012038BD0220FCE710B501F00F04436808
:102148009C422CD811F0800F1DD1E3001A1B91007E
:102158000A4601F5FC71014404310244002382F867
:10216800FD3100238B700C7090F8BC33012B18D014
:102178000446012380F8BC33006804F050FE0020B8
:1021880084F8BC030CE0E3001A1B91000A463831BE
:10219800014404310244012382F83D30E1E7012083
:1021A80010BD0220FCE730B40468606A29B10D460E
:1021B800A36A00EB134000230CE040EA0240A0624F
:1021C80012E003F1400104EB8101496800EB114082
:1021D8000133DBB2691E8B42F3D340EA024005F1BA
:1021E8003F0104EB81014860002030BC7047036860
:1021F8005962002070470000024603680121C0F8B8
:10220800FC13002082F8F4039A6942F000629A6194
:10221800596D024A0A435A65704700BF030000100F
:1022280070470000124BDB6813F0040F07D1104B06
:10223800DB6803F00703834201D00120704710B523
:102248000B4AD36823F007031843D060FEF7FAF966
:102258000446074B5B6813F4005F07D1FEF7F2F9F9
:10226800001BB0F57A7FF4D9032000E0002010BDF0
:1022780000480258024AD36843F08073D36070471D
:1022880000480258002800F0CB8238B5044603689D
:1022980013F0010F25D0A94A136903F03803926A95
:1022A800102B15D0182B0FD06368B3F5803F3FD0A3
:1022B800002B53D1A14B1A6822F480321A601A6895
:1022C80022F480221A6038E002F00302022AEBD1DD
:1022D8009A4B1B6813F4003F03D06368002B00F08F
:1022E800A182236813F0020F00F08E80934A1369CD
:1022F800926A13F038035AD0182B55D0E368002B94
:1023080000F0C8808D490A6822F0190213430B6057
:10231800FEF798F90546894B1B6813F0040F40F047
:10232800A180FEF78FF9401B0228F4D903207EE232
:10233800824A136843F48033136063682BB3FEF753
:1023480081F905467D4B1B6813F4003FC9D1FEF7A0
:1023580079F9401B6428F5D9032068E2B3F5A02F6A
:1023680009D0764B1A6822F480321A601A6822F46F
:1023780080221A60E1E7714B1A6842F480221A60E1
:102388001A6842F480321A60D7E7FEF75BF905460F
:102398006A4B1B6813F4003FA3D0FEF753F9401BA8
:1023A8006428F5D9032042E212F0030FA6D1634B4B
:1023B8001B6813F0040F03D0E368002B00F034828D
:1023C8005E4A136823F01903E1680B431360FEF7B4
:1023D80039F90546594B1B6813F0040F06D1FEF76F
:1023E80031F9401B0228F5D9032020E2FEF744F911
:1023F80041F2030398422CD8504A536823F47C33A3
:10240800216943EA01335360236813F0100F71D038
:102418004A4A136903F03803926A082B52D0182BE2
:102428004CD0E369002B00F0A380444A136843F0C2
:1024380080031360FEF706F90546404B1B6813F44A
:10244800807F7DD1FEF7FEF8401B0228F5D90320D6
:10245800EDE13A4A536823F0FE43216943EA0163F8
:102468005360D1E7FEF708F941F20303984208D810
:10247800324A536823F47C33216943EA01335360B9
:10248800C2E72E4A536823F0FE43216943EA0163F9
:102498005360B9E7294A136823F001031360FEF774
:1024A800D1F80546254B1B6813F0040FACD0FEF796
:1024B800C9F8401B0228F5D90320B8E102F003024D
:1024C800012AAED11D4B1B6813F4807F04D0E36949
:1024D800802B01D00120AAE1FEF7CEF841F20303D8
:1024E800984222D8154A536823F0F843216A43EAF0
:1024F80081635360236813F0080F61D06369002B70
:102508004AD00E4A536F43F001035367FEF79AF817
:1025180005460A4B5B6F13F0020F51D1FEF792F894
:10252800401B0228F5D9032081E1044AD36823F02F
:102538007C53216A43EA0163D360DBE70044025815
:10254800FEF79AF841F20303984208D8AE4A536856
:1025580023F0F843216A43EA81635360CAE7AA4A31
:10256800D36823F07C53216A43EA0163D360C1E74F
:10257800A54A136823F080031360FEF763F8054645
:10258800A14B1B6813F4807FB4D0FEF75BF8401BA7
:102598000228F5D903204AE19B4A536F23F001032F
:1025A8005367FEF74FF80546974B5B6F13F0020F22
:1025B80006D0FEF747F8401B0228F5D9032036E17C
:1025C800236813F0200F29D0A3699BB18E4A1368A2
:1025D80043F480531360FEF735F805468A4B1B68B1
:1025E80013F4005F1AD1FEF72DF8401B0228F5D925
:1025F80003201CE1844A136823F480531360FEF718
:1026080021F80546804B1B6813F4005F06D0FEF7DF
:1026180019F8401B0228F5D9032008E1236813F0B4
:10262800040F21D1636A002B00F00081764A1269F9
:1026380002F03802182A00F0FB80022B75D0724A8B
:10264800136823F080731360FDF7FCFF04466E4B9C
:102658001B6813F0007F00F0E180FDF7F3FF001B1B
:102668000228F4D90320E2E0684A136843F480732F
:102678001360FDF7E7FF0546644B1B6813F4807F82
:1026880006D1FDF7DFFF401B6428F5D90320CEE013
:10269800A368012B0AD00BBB5B4B1A6F22F0010217
:1026A8001A671A6F22F004021A6704E0564A136F79
:1026B80043F001031367A36833B3FDF7C3FF05466F
:1026C800514B1B6F13F0020FACD1FDF7BBFF401B42
:1026D80041F288339842F3D90320A8E0052B09D0AA
:1026E800494B1A6F22F001021A671A6F22F004028E
:1026F8001A67E0E7444B1A6F42F004021A671A6F30
:1027080042F001021A67D6E7FDF79CFF05463E4BEB
:102718001B6F13F0020F85D0FDF794FF401B41F2A9
:1027280088339842F3D9032081E0374A136823F0AD
:1027380080731360FDF786FF0546334B1B6813F063
:10274800007F06D0FDF77EFF401B0228F5D9032045
:102758006DE02D4B996A2E4A0A40A16AE06A41EA67
:1027680000110A439A62226B013AC2F30802616BB4
:102778000139490289B20A43A16B0139090401F4FC
:10278800FE010A43E16B0139090601F0FE410A43E3
:102798001A63DA6A22F00102DA62596B1D4A0A40AA
:1027A800A16C42EAC1025A63DA6A22F00C02216C77
:1027B8000A43DA62DA6A22F00202616C0A43DA62D8
:1027C800DA6A42F48032DA62DA6A42F40032DA62B1
:1027D800DA6A42F48022DA62DA6A42F00102DA62E4
:1027E8001A6842F080721A60FDF72CFF0446064B07
:1027F8001B6813F0007F0FD1FDF724FF001B022890
:10280800F5D9032013E000BF0044025800480258DD
:102818000CFCFFFF0700FFFF002008E0002006E097
:1028280001207047012002E0012000E0002038BDAF
:102838000120FCE7724B1B6903F03803102B00F0F2
:10284800DB80182B10D00BB16E4870476C4B1B689F
:1028580013F0200F00F0D280694B1868C0F3C10054
:10286800694B23FA00F07047654A916A01F0030149
:10287800906AC0F30510D36A03F00103526BC2F3E8
:10288800CC0203FB02F307EE903AF8EE677A0028D1
:1028980000F0B580012966D0F9B1022900F08F80D7
:1028A80007EE100AF8EE476A9FED586A86EE267A18
:1028B800534B1B6BC3F3080306EE903AF8EE666AB7
:1028C8009FED536A67EE867A76EEA77AF7EE006A8E
:1028D80077EEA67A27EE277A61E0494B1B6813F05A
:1028E800200F23D046490A68C2F3C102464BD340A1
:1028F80007EE103AF8EE476A07EE100AB8EE476A94
:1029080086EE867A0B6BC3F3080306EE903AF8EE70
:10291800666A9FED3F6A67EE867A76EEA77AF7EEEB
:10292800006A77EEA67A27EE277A38E007EE100AD3
:10293800F8EE476A9FED376A86EE267A304B1B6BB6
:10294800C3F3080306EE903AF8EE666A9FED306A24
:1029580067EE867A76EEA77AF7EE006A77EEA67AC1
:1029680027EE277A1BE007EE100AF8EE476A9FED7C
:10297800276A86EE267A224B1B6BC3F3080306EE02
:10298800903AF8EE666A9FED226A67EE867A76EEEE
:10299800A77AF7EE006A77EEA67A27EE277A184B21
:1029A8001B6BC3F34623013307EE903AF8EE677AC0
:1029B800C7EE276AFCEEE67A17EE900A704707EE34
:1029C800100AF8EE476A9FED146A86EE267A0C4BD9
:1029D8001B6BC3F3080306EE903AF8EE666A9FEDA8
:1029E8000C6A67EE867A76EEA77AF7EE006A77EEDB
:1029F800A67A27EE277AD2E7084870470248704738
:102A08000044025800093D000090D0030024744A95
:102A1800000000390024744C0024F44A00127A00A3
:102A2800002800F02C810346974A126802F00F0232
:102A38008A420CD29448026822F00F020A430260CC
:102A4800026802F00F028A4201D00120704770B577
:102A58001A6812F0040F0CD018698C4A926902F0B7
:102A68007002904205D9894CA26922F07002104385
:102A7800A0611A6812F0080F0CD05869834AD2690D
:102A880002F07002904205D9804CE26922F070028F
:102A98001043E0611A6812F0100F0CD098697B4A55
:102AA800D26902F4E062904205D9784CE26922F4D6
:102AB800E0621043E0611A6812F0200F0CD0D86968
:102AC800724A126A02F07002904205D96F4C226A6B
:102AD80022F07002104320621A6812F0020F0CD024
:102AE800D8686A4A926902F00F02904205D9674C89
:102AF800A26922F00F021043A0611C460D461B6814
:102B080013F0010F41D0614A936923F47063A168FF
:102B18000B4393616368022B0AD0032B27D0012B48
:102B28002CD05A4A126812F0040F06D10120A5E0F1
:102B3800126812F4003F00F0A48054490A6922F098
:102B4800070213430B61FDF77DFD06464F4B1B69DA
:102B580003F038036268B3EBC20F16D0FDF772FDBD
:102B6800801B41F288339842F0D9032086E0474A17
:102B7800126812F0007FE0D101207FE0434A12681A
:102B880012F4807FD9D1012078E0236813F0020F76
:102B98000CD0E2683D4B9B6903F00F039A4205D2C3
:102BA8003A498B6923F00F031A438A61364B1B6835
:102BB80003F00F03AB420CD9334A136823F00F0319
:102BC8002B431360136803F00F03AB4201D00120BD
:102BD80054E0236813F0040F0CD022692B4B9B6937
:102BE80003F070039A4205D228498B6923F07003D9
:102BF8001A438A61236813F0080F0CD06269234BCB
:102C0800DB6903F070039A4205D22049CB6923F0AF
:102C180070031A43CA61236813F0100F0CD0A2691D
:102C28001A4BDB6903F4E0639A4205D21749CB6972
:102C380023F4E0631A43CA61236813F0200F0CD011
:102C4800E269124B1B6A03F070039A4205D20F49DE
:102C58000B6A23F070031A430A62FFF7EBFD0B4B74
:102C68009B69C3F303230A4AD35C03F01F03D840CC
:102C7800084B1860084B186805F096FD70BD0120D8
:102C880070470120FAE700BF0020005200440258B4
:102C9800C8900008180100200400002008B501F0C1
:102CA80013F8064B9B6903F00F03054AD35C03F046
:102CB8001F03D840034B186008BD00BF00440258EA
:102CC800C89000081C01002008B5FFF7E7FF054B76
:102CD800DB69C3F30213044AD35C03F01F03D84033
:102CE80008BD00BF00440258C890000808B5FFF7A7
:102CF800D5FF054BDB69C3F30223044AD35C03F019
:102D08001F03D84008BD00BF00440258C8900008FF
:102D18003F230360114B1A6902F0070242609A6967
:102D280002F4706282609A6902F00F02C2609A69C6
:102D380002F070020261DA6902F070024261DA6937
:102D480002F4E06282611B6A03F07003C361044B02
:102D58001B6803F00F030B60704700BF0044025864
:102D680000200052404B9B6A03F00303032B79D0E9
:102D780070B50E4604463C4A136823F0806313601E
:102D8800FDF760FC0546384B1B6813F0006F06D052
:102D9800FDF758FC401B0228F5D9032070BD324BC3
:102DA8009A6A22F47C32216842EA01329A626268A5
:102DB800013AC2F30802A1680139490289B20A43FB
:102DC800E1680139090401F4FE010A432169013966
:102DD800090601F0FE410A439A63DA6A22F0C0024A
:102DE80061690A43DA62DA6A22F02002A1690A43B9
:102DF800DA62DA6A22F01002DA62D96B1B4A0A40F8
:102E0800E16942EAC102DA63DA6A42F01002DA6280
:102E1800C6B91A46DB6A43F40023D362124A136820
:102E280043F080631360FDF70DFC04460E4B1B68EE
:102E380013F0006F14D1FDF705FC001B0228F5D92B
:102E48000320ABE7012E05D0074AD36A43F40013E9
:102E5800D362E3E7044AD36A43F48013D362DDE71D
:102E680000209BE701207047004402580700FFFF3D
:102E7800404B9B6A03F00303032B79D070B50E46D1
:102E880004463C4A136823F080531360FDF7DAFBCD
:102E98000546384B1B6813F0005F06D0FDF7D2FBE0
:102EA800401B0228F5D9032070BD324B9A6A22F0E4
:102EB8007C72216842EA01529A626268013AC2F35E
:102EC8000802A1680139490289B20A43E168013957
:102ED800090401F4FE010A4321690139090601F0D8
:102EE800FE410A431A64DA6A22F4406261690A43BD
:102EF800DA62DA6A22F40072A1690A43DA62DA6AEB
:102F080022F48072DA62596C1B4A0A40E16942EA8B
:102F1800C1025A64DA6A42F48072DA62C6B91A46A1
:102F2800DB6A43F48003D362124A136843F0805388
:102F38001360FDF787FB04460E4B1B6813F0005F18
:102F480014D1FDF77FFB001B0228F5D90320ABE75E
:102F5800012E05D0074AD36A43F08073D362E3E7B2
:102F6800044AD36A43F40003D362DDE700209BE7F9
:102F780001207047004402580700FFFFF8B50446D7
:102F8800036813F0006F2BD0436EB3F5801F18D081
:102F980007D9B3F5001F1DD0B3F5401F2ED100256A
:102FA80006E05BBB934AD36A43F40033D36200253F
:102FB800904A136D23F44013616E0B43136500268A
:102FC80010E002210430FFF7CDFE0546002DEFD0BA
:102FD8002E4607E002212430FFF74AFF0546F5E7B1
:102FE80000263546236813F4807F17D0636D042BC1
:102FF80032D8DFE803F006242A0B0B0001263546F9
:10300800F0E77C4AD36A43F40033D3623DBB794A84
:10301800136D23F00703616D0B431365236813F4E5
:10302800007F33D0A36D802B44D01AD80BB3402B2C
:103038001CD10021201DFFF795FE05461EE000214A
:10304800201DFFF78FFE0546E0E7002104F124006C
:10305800FFF70EFF0546D9E701263546DEE72E467F
:10306800DCE7C02B0AD0B3F5807F07D001263546B0
:103078000CE0604AD36A43F40033D3620DBB5D4A67
:10308800136D23F4E073A16D0B431365236813F4E8
:10309800806F2FD0D4F8A430B3F5800F3ED012D86B
:1030A800D3B1B3F5001F14D10021201DFFF75AFE3C
:1030B800054616E0002104F12400FFF7D9FE054675
:1030C800DCE72E46E2E7B3F5C00F0AD0B3F5000FF0
:1030D80007D0012635460DE0464AD36A43F400334B
:1030E800D36215BB434A936D23F46003D4F8A4104C
:1030F8000B439365236813F4006F2FD0D4F8A830DE
:10310800B3F1007F37D012D8D3B1B3F1807F14D197
:103118000021201DFFF726FE054616E0002104F1D8
:103128002400FFF7A5FE0546DBE72E46E2E7B3F1EC
:10313800407F0AD0B3F1806F07D0012635460DE0F5
:103148002C4AD36A43F40033D362DDB9294A936D1C
:1031580023F0E063D4F8A8100B439365236813F0B9
:10316800007F2AD0A36C102B12D00DD9202B1DD094
:10317800302B12D009E0002104F12400FFF778FE7B
:103188000546E2E72E46E9E73BB10126354614E05D
:10319800184AD36A43F40033D3626DB9154AD36C25
:1031A80023F03003A16C0B43D36406E00221201DF9
:1031B800FFF7D8FD0546F0E72E46236813F4805F35
:1031C80027D0E36DB3F5005F3ED009D8A3B1B3F5BE
:1031D800805F0BD10021201DFFF7C4FD054610E0DC
:1031E800B3F5405F0DD0B3F5804F0AD001263546C0
:1031F8000FE000BF00440258934AD36A43F40033F7
:10320800D36245BB904A136D23F4E043E16D0B4351
:103218001365236813F4005F33D0236EB3F5003FC2
:1032280027D01AD83BB1B3F5803F1FD10121201D0B
:10323800FFF798FD05461DBB834A136D23F4E02371
:10324800216E0B4313651CE0002104F12400FFF7F5
:103258000FFE0546D5E72E46DBE7B3F5802FEAD00B
:10326800B3F5A02FE7D0B3F5403FE4D001263546AB
:1032780007E0012104F12400FFF7FAFD0546DAE72B
:103288002E46236813F4804F2CD0D4F8AC30B3F119
:10329800005F1FD012D83BB1B3F1805F17D1012175
:1032A800201DFFF75FFD0546DDB9674A936D23F0E2
:1032B800E043D4F8AC100B43936513E0B3F1804FAF
:1032C800F2D0B3F1A04FEFD0B3F1405FECD00126BC
:1032D800354607E0012104F12400FFF7C9FD054642
:1032E800E2E72E46236813F4004F1FD0E36EB3F1D4
:1032F800805F06D0B3F1005F11D03BB1012635469F
:1033080014E0514AD36A43F40033D3626DB94E4A8C
:10331800136D23F04053E16E0B43136506E0012162
:10332800201DFFF71FFD0546F0E72E46236813F022
:10333800807F1ED0636C032B17D8DFE803F00702E9
:103348001007414AD36A43F40033D36285B93E4A31
:10335800D36C23F00303616C0B43D36409E00221AF
:10336800201DFFF7FFFC0546F0E70126354600E083
:103378002E46236813F4800F1FD1236813F0010F22
:1033880000F09E80A36F282B00F29680DFE803F000
:1033980084949494949494947F949494949494940A
:1033A8008D949494949494948494949494949494EC
:1033B80084949494949494948400244A136843F4D1
:1033C80080731360FDF73EF90746204B1B6813F422
:1033D800807F05D1FDF736F9C01B6428F5D9032590
:1033E800002D50D1184B1B6FD4F8B020534013F464
:1033F800407F0CD0144B1A6F22F44072196F41F4BD
:1034080080311967196F21F4803119671A67D4F868
:10341800B030B3F5807F1BD0002D36D1D4F8B03052
:1034280003F44072B2F5407F23D0074A136923F4AE
:103438007C53136104490B6FD4F8B020C2F30B021C
:1034480013430B6799E700BF00440258004802582D
:10345800FDF7F8F80746AA4B1B6F13F0020FDBD1F4
:10346800FDF7F0F8C01B41F288339842F3D90325E1
:10347800D2E7A348026922F47C52A24901EA131355
:1034880013430361D6E72E4677E72E4675E70121F9
:10349800201DFFF767FC05468DB9994A536D23F047
:1034A8003803A16F0B4353650AE0012104F124009E
:1034B800FFF7DEFC0546EFE70126354600E02E461D
:1034C800236813F0020F20D0636F052B19D8DFE8AB
:1034D80003F00803110808080121201DFFF742FC2A
:1034E80005468DB9864A536D23F00703616F0B4378
:1034F80053650AE0012104F12400FFF7B9FC0546F1
:10350800EFE70126354600E02E46236813F0040F46
:1035180022D0D4F89030052B1AD8DFE803F008033E
:10352800120808080121201DFFF71CFC054695B963
:10353800734A936D23F00703D4F890100B439365F7
:103548000AE0012104F12400FFF792FC0546EEE7AA
:103558000126354600E02E46236813F0200F2CD0B4
:10356800D4F88C30B3F1005F1FD012D83BB1B3F15F
:10357800805F17D10021201DFFF7F4FB0546DDB958
:103588005F4A536D23F0E043D4F88C100B43536526
:1035980013E0B3F1804FF2D0B3F1A04FEFD0B3F105
:1035A800405FECD00126354607E0022104F12400F3
:1035B800FFF75EFC0546E2E72E46236813F0400F4E
:1035C8002CD0D4F89830B3F5006F1FD012D83BB187
:1035D800B3F5806F17D10021201DFFF7C3FB054607
:1035E800DDB9474A936D23F4E053D4F898100B43A0
:1035F800936513E0B3F5805FF2D0B3F5A05FEFD029
:10360800B3F5406FECD00126354607E0022104F1FE
:103618002400FFF72DFC0546E2E72E46236813F049
:10362800800F2CD0D4F89C30B3F5804F1FD012D81F
:103638003BB1B3F5005F17D10021201DFFF792FBC6
:103648000546DDB92E4A936D23F46043D4F89C10E7
:103658000B43936513E0B3F5004FF2D0B3F5204F59
:10366800EFD0B3F5C04FECD00126354607E0022174
:1036780004F12400FFF7FCFB0546E2E72E46236829
:1036880013F0080F0AD0D4F88030B3F5805F24D047
:103698001B494A6D22F4405213434B65236813F0CB
:1036A800100F0AD0D4F89430B3F5807F1ED0144997
:1036B8008A6D22F4407213438B65236813F4002F3C
:1036C80039D0D4F8A030B3F5803F2CD0B3F5003F03
:1036D8001FD0CBB1012635462DE0022104F124008C
:1036E800FFF7C6FB0028D9D00126D7E7022104F14D
:1036F8002400FFF7BDFB0028DFD00126DDE700BF6F
:1037080000440258CFFFFF000021201DFFF72AFBCD
:1037180005467DB9644A936D23F44033D4F8A0106C
:103728000B43936507E0022104F12400FFF7A0FB97
:103738000546EEE72E46236813F4802F24D0D4F8EC
:103748008430B3F5001F17D0B3F5401F0AD0B3F586
:10375800801F02D00126354616E0534AD36A43F447
:103768000033D3627DB9504A536D23F44013D4F823
:1037780084100B43536507E0012104F12400FFF78F
:1037880077FB0546EEE72E46236813F4803F14D0F6
:10379800E36C2BB1B3F5803F23D0012635460CE00E
:1037A800414AD36A43F40033D36205BB3E4AD36C23
:1037B80023F48033E16C0B43D364236813F0005F78
:1037C80017D1236813F4003F2DD0E36FB3F5807F42
:1037D8001BD017D9B3F5007F1CD0B3F5407F12D1A9
:1037E80018E00221201DFFF7BDFA0546DDE72E4649
:1037F800E3E7022104F12400FFF73AFB0028E0D0B8
:103808000126DEE733B101260DE0274AD36A43F4E7
:103818000033D362002D3DD1234A536D23F4407306
:10382800E16F0B435365236813F4801F06D01E4ACB
:10383800136D23F00043216F0B431365236813F0C6
:10384800805F07D0184A136923F48043D4F8B41072
:103858000B431361236813F4001F06D0124A136D3B
:1038680023F08073A16E0B431365236813F0804F18
:1038780009D00D4B1A6922F400421A611A69D4F86A
:10388800B8100A431A612368002B05DB06B101262C
:103898003046F8BD2E46C6E7034AD36C23F04053A2
:1038A800216D0B43D364F1E70044025808B5FFF7D4
:1038B800F5F9054B1B6AC3F30213044AD35C03F002
:1038C8001F03D84008BD00BF00440258C890000834
:1038D80010B478498C6A8A6AC2F30532CB6A03F05D
:1038E8001003C96BC1F3CC0103FB01F3002A00F0FC
:1038F800DB8004F0030407EE903AF8EE677A012CB7
:1039080066D0FCB1022C00F0B28007EE102AB8EEA7
:10391800477A9FED696AC6EE076A664B9B6BC3F3ED
:10392800080307EE103AB8EE477A9FED646A67EE2F
:10393800867A77EE277AB7EE007A77EE877A66EEA0
:10394800A76A61E05B4B1B6813F0200F23D0594C2A
:103958002168C1F3C1015A4BCB4007EE103AB8EECB
:10396800477A06EE902AB8EE666AC7EE066AA36B37
:10397800C3F3080307EE103AB8EE477A9FED4F6A93
:1039880067EE867A77EE277AB7EE007A77EE877A4F
:1039980066EEA76A38E007EE102AB8EE477A9FED80
:1039A800496AC6EE076A434B9B6BC3F3080307EEED
:1039B800103AB8EE477A9FED416A67EE867A77EE5D
:1039C800277AB7EE007A77EE877A66EEA76A1BE069
:1039D80007EE102AB8EE477A9FED376AC6EE076AF7
:1039E800344B9B6BC3F3080307EE103AB8EE477AE3
:1039F8009FED326A67EE867A77EE277AB7EE007A1D
:103A080077EE877A66EEA76A2A4A936BC3F3462352
:103A180007EE103AB8EE477AB7EE006A37EE067A44
:103A2800C6EE877AFCEEE77AC0ED007A936BC3F3B3
:103A3800064307EE103AB8EE477A37EE067AC6EE36
:103A4800877AFCEEE77AC0ED017A936BC3F30663DD
:103A580007EE903AF8EE677A77EE867A86EEA77ADE
:103A6800BCEEC77A80ED027A5DF8044B704707EE2A
:103A7800102AB8EE477A9FED146AC6EE076A0D4B16
:103A88009B6BC3F3080307EE103AB8EE477A9FED35
:103A98000B6A67EE867A77EE277AB7EE007A77EECA
:103AA800877A66EEA76AAFE7002303604360836006
:103AB800DAE700BF004402580024744A00000039C5
:103AC8000090D0030024744C0024F44A10B47849C0
:103AD8008C6A8A6AC2F30552CB6A03F48073496C14
:103AE800C1F3CC0103FB01F3002A00F0DB8004F0F2
:103AF800030407EE903AF8EE677A012C66D0FCB121
:103B0800022C00F0B28007EE102AB8EE477A9FED3B
:103B1800696AC6EE076A664B1B6CC3F3080307EEB7
:103B2800103AB8EE477A9FED646A67EE867A77EEC8
:103B3800277AB7EE007A77EE877A66EEA76A61E0B1
:103B48005B4B1B6813F0200F23D0594C2168C1F33D
:103B5800C1015A4BCB4007EE103AB8EE477A06EE51
:103B6800902AB8EE666AC7EE066A236CC3F30803A8
:103B780007EE103AB8EE477A9FED4F6A67EE867AFD
:103B880077EE277AB7EE007A77EE877A66EEA76A3D
:103B980038E007EE102AB8EE477A9FED496AC6EE7C
:103BA800076A434B1B6CC3F3080307EE103AB8EEE1
:103BB800477A9FED416A67EE867A77EE277AB7EE05
:103BC800007A77EE877A66EEA76A1BE007EE102A7E
:103BD800B8EE477A9FED376AC6EE076A344B1B6C1E
:103BE800C3F3080307EE103AB8EE477A9FED326A3E
:103BF80067EE867A77EE277AB7EE007A77EE877ADD
:103C080066EEA76A2A4A136CC3F3462307EE103AF6
:103C1800B8EE477AB7EE006A37EE067AC6EE877ACC
:103C2800FCEEE77AC0ED007A136CC3F3064307EEA7
:103C3800103AB8EE477A37EE067AC6EE877AFCEE87
:103C4800E77AC0ED017A136CC3F3066307EE903A86
:103C5800F8EE677A77EE867A86EEA77ABCEEC77AB0
:103C680080ED027A5DF8044B704707EE102AB8EE33
:103C7800477A9FED146AC6EE076A0D4B1B6CC3F3B7
:103C8800080307EE103AB8EE477A9FED0B6A67EE25
:103C9800867A77EE277AB7EE007A77EE877A66EE3D
:103CA800A76AAFE70023036043608360DAE700BFD9
:103CB800004402580024744A000000390090D003E0
:103CC8000024744C0024F44A08B5FEF7B3FD064BF3
:103CD8009B69C3F30323054AD35C03F01F03D84051
:103CE800034B186008BD00BF00440258C890000884
:103CF8001801002038B504460268D36823F0A003F1
:103D0800D360FCF79FFC05462368DB6813F0200F9F
:103D180007D1FCF797FC401BB0F57A7FF4D9032054
:103D280000E0002038BD38B50368DA6812F0400FAB
:103D380001D0002038BD04464FF0FF32DA60FCF7AE
:103D480081FC05462368DB6813F0400F07D1FCF7B8
:103D580079FC401BB0F57A7FF4D90320EAE700200C
:103D6800E8E70000002851D038B5044690F8213023
:103D7800002B3ED0022384F821302368CA225A62DD
:103D8800236853225A622046FFF7CDFF02460028D7
:103D980034D1216888681F4B03408B602068816894
:103DA800636825692B43A5692B430B43836023680C
:103DB800E168196121680B69A06843EA00430B6157
:103DC8002168CB6823F08003CB602168CB6C23F09B
:103DD8000303CB642068C36CE169656929430B431D
:103DE800C3642368FF215962012384F821301046F7
:103DF80038BD80F8203004F039FCBBE72368FF2287
:103E08005A62042384F821300122F0E70122104687
:103E1800704700BFBFFF8FFF002302E001330A385D
:103E2800C0B20928FAD81B01DBB21843704700005A
:103E3800F8B590F82030012B7ED00D4604460123BA
:103E480080F82030022380F82130002A46D1036808
:103E58009B6813F0400F01D10023CB702878FFF73F
:103E6800DBFF06046878FFF7D7FF46EA0026A87844
:103E7800FFF7D2FF0643E87846EA80562368CA224D
:103E88005A62236853225A622046FFF74CFF0746BE
:103E9800002835D12268294B334013602268936883
:103EA80023F48023936021688B68EA6828690243B9
:103EB80013438B602268D36823F08003D3602368A0
:103EC8009B6813F0200F27D02368FF225A62012332
:103ED80084F82130002384F820301BE003689B68B5
:103EE80013F0400F01D10023CB7028786E7836028A
:103EF80046EA0046A8780643E87846EA8056BDE7D1
:103F08002368FF225A62042384F82130002384F8AE
:103F1800203001273846F8BD2046FFF7EBFE002881
:103F2800D2D02368FF225A62042384F82130002368
:103F380084F820300127EDE70227EBE77F7F7F0039
:103F480070B590F82030012B6CD0012380F8203018
:103F5800022380F821303AB94B7813F0100F03D0C0
:103F680003F0EF030A334B700E460446002A32D1A1
:103F7800C878FFF751FF05047078FFF74DFF45EA51
:103F88000025B078FFF748FF0543307845EA40350B
:103F98002368CA225A62236853225A622046FFF7CE
:103FA800C2FE064610BB22681F4B2B405360226896
:103FB800D36823F08003D36023689B6813F0200F35
:103FC80020D02368FF225A62012384F8213000237D
:103FD80084F8203014E0C8784D782D0245EA004571
:103FE80088780543087845EA4035D1E72368FF22F9
:103FF8005A62042384F82130002384F820300126F3
:10400800304670BD2046FFF775FE0028D9D02368DA
:10401800FF225A62042384F82130002384F82030D8
:104028000126EDE70226EBE73FFFFF00C36B5B09C4
:10403800C0680830C00803FB00007047002800F083
:10404800978070B504460023836205684C4B4D4E3B
:104058009D4218BFB54214BF0126002607D0A3F51C
:1040680074439D4203D0C3680F2B00F2838020461F
:10407800FFF7DCFF26B1444B9D4201D008287BD8CE
:104088003F4A404B9D4218BF954203D003F58063D9
:104098009D4201D1102871D894F88130002B54D05A
:1040A800022384F881302268136823F00103136027
:1040B800A369B3F1806F4ED0E369A26A1343E26B40
:1040C8001343E16822680B439360636B626A13438E
:1040D800A26B1343A2691343226913436269134312
:1040E800226A134362681343E26C1343A2681343C2
:1040F800A26C1343A16D22680B43D36063686BB94C
:104108002268936823F4C05343F4006393602268E1
:10411800936823F4C06343F4806393602268136D4B
:1041280023F001031365636813F4800F06D0226837
:10413800D36823F00043616D0B43D3600020C4F8BB
:104148008400012384F8813070BD84F880302046D3
:1041580004F09CFAA4E76368B3F5800FACD1A36BB5
:10416800002BA9D12268136843F480531360A3E796
:10417800012070470120E7E70120E5E70120E3E798
:104188000030014000380040003C0040F0B4036AB1
:1041980023F001030362036A446885691E4A2A40C2
:1041A8000E68164323F002038D682B431B4A1C4DEF
:1041B800A84218BF90420CBF012200220CD005F57E
:1041C8008045A84214BF00250125164FB84203D0E8
:1041D80015B9154DA84205D123F00803CD682B4326
:1041E80023F004035AB9114A904214BF0022012255
:1041F8000C4DA84203D012B90B4A904205D124F4C1
:1042080040724C6914438A691443446086614A6861
:1042180042630362F0BC70478CFFFEFF0000014060
:1042280000040140004001400048014000440140B2
:1042380070B4036A23F480730362036A4468C26932
:1042480022F073020E68164323F400738A6843EA67
:104258000223164A164DA84218BF90420CBF0122ED
:10426800002206D123F40063CD6843EA052323F432
:1042780080635AB90F4A904214BF002201220E4DA2
:10428800A84203D012B90D4A904207D124F44054F1
:104298004A6944EA02148A6944EA02144460C6611D
:1042A8004A68C263036270BC704700BF00000140E7
:1042B8000004014000440140004001400048014022
:1042C80070B4036A23F480530362036A4468C269C2
:1042D80022F4E6420D6842EA052223F400538D6871
:1042E80043EA05330F4E104DA84218BFB0420DD017
:1042F80005F58045A84214BF0025012506F580462E
:10430800B04203D015B9094DA84204D124F4804421
:104318004D6944EA85144460C2614A6802640362D4
:1043280070BC704700000140000401400048014093
:1043380070B4036A23F480330362036A4268446DED
:1043480024F070040D682C4323F400338D6843EA8D
:104358000543104E104DA84218BFB0420DD005F5C8
:104368008045A84214BF0025012506F58046B042C5
:1043780003D015B9094DA84204D122F480324D6901
:1043880042EA0522426044654A688265036270BC5D
:10439800704700BF00000140000401400048014090
:1043A80070B4036A23F480130362036A4468426D9D
:1043B80022F4E0420D6842EA052223F400138D68D6
:1043C80043EA05530F4E104DA84218BFB0420DD016
:1043D80005F58045A84214BF0025012506F580464D
:1043E800B04203D015B9094DA84204D124F40034D1
:1043F8004D6944EA8524446042654A68C26503629F
:1044080070BC7047000001400004014000480140B2
:1044180010B4036A046A24F001040462846924F075
:10442800F00444EA021223F00A030B438261036298
:104438005DF8044B704710B4036A23F0100303625D
:104448008469036A24F4704444EA023223F0A00326
:1044580043EA0113826103625DF8044B7047000070
:104468008268034B1340194341F00701816070478C
:104478008FFFCFFF022380F83D3002689168084B18
:104488000B40062B18BFB3F5803F03D0136843F0E9
:1044980001031360012380F83D300020704700BFFE
:1044A800070001000268D36843F00103D360026883
:1044B8009168064B0B40062B18BFB3F5803F03D01D
:1044C800136843F0010313600020704707000100E0
:1044D8007047704770477047704710B504460368C7
:1044E8001A6912F0020F11D0DA6812F0020F0DD01B
:1044F8006FF002021A610123037703689B6913F0C6
:10450800030F79D0FFF7E6FF0023237723681A69A2
:1045180012F0040F12D0DA6812F0040F0ED06FF008
:1045280004021A610223237723689B6913F4407FEE
:1045380068D02046FFF7CEFF0023237723681A6947
:1045480012F0080F12D0DA6812F0080F0ED06FF0D0
:1045580008021A61042323772368DB6913F0030F29
:1045680057D02046FFF7B6FF0023237723681A6940
:1045780012F0100F12D0DA6812F0100F0ED06FF090
:1045880010021A61082323772368DB6913F4407F3C
:1045980046D02046FFF79EFF0023237723681A6939
:1045A80012F0010F03D0DA6812F0010F3FD123682F
:1045B8001A6912F0800F03D0DA6812F0800F3DD12B
:1045C80023681A6912F4807F03D0DA6812F0800F2A
:1045D8003BD123681A6912F0400F03D0DA6812F051
:1045E800400F39D123681A6912F0200F03D0DA6816
:1045F80012F0200F37D110BDFFF76BFF2046FFF7F1
:104608006AFF81E72046FFF764FF2046FFF763FF54
:1046180092E72046FFF75DFF2046FFF75CFFA3E720
:104628002046FFF756FF2046FFF755FFB4E76FF027
:1046380001021A61204603F0D9FBB8E76FF0800247
:104648001A61204600F00DFABAE76FF480721A6119
:10465800204600F007FABCE76FF040021A612046D6
:10466800FFF73AFFBEE76FF020021A61204600F01C
:10467800F7F9C0E770B40368374CA04214BF0024B0
:104688000124B0F1804F14BF224644F00102AAB9B8
:10469800324DA84214BF00250125314EB0420DD03D
:1046A80065B905F1804505F58235A84214BF002596
:1046B800012506F50066B04200D01DB123F0700355
:1046C8004D682B4312BB254A904214BF0022012299
:1046D800234DA8421AD0CAB902F1804202F58232AB
:1046E800904214BF0022012205F50065A8420DD0B2
:1046F80062B91C4A904214BF0022012205F59A357E
:10470800A84203D012B9184A904203D123F4407347
:10471800CA68134323F080034A69134303608A6815
:10472800C2620A688262114B984214BF234644F061
:1047380001035BB90B4B984214BF002301230C4AB9
:10474800904203D013B9084B984201D10B69036317
:104758000123436170BC704700000140000800401D
:1047680000040040004401400048014000040140AA
:1047780000400140A8B110B5044690F83D305BB147
:10478800022384F83D30211D2068FFF773FF0123C1
:1047980084F83D30002010BD80F83C3003F0B0FFB5
:1047A800EEE701207047A8B110B5044690F83D30F7
:1047B8005BB1022384F83D30211D2068FFF75AFFC2
:1047C800012384F83D30002010BD80F83C30FFF70D
:1047D8007FFEEEE70120704770B4036A23F01003F0
:1047E8000362036A446885691A4A2A400E6842EAE5
:1047F800062623F020038A6843EA0213164A174D57
:10480800A84218BF90420CBF0122002206D123F013
:104818008003CD6843EA051323F040035AB9104AD0
:10482800904214BF002201220E4DA84203D012B9B3
:104838000D4A904207D124F440644A6944EA82044C
:104848008A6944EA8204446086614A688263036232
:1048580070BC7047FF8CFFFE00000140000401405F
:1048680000440140004001400048014090F83C30BD
:10487800012B34D010B50446012380F83C300223C4
:1048880080F83D30142A0FD8DFE802F00B0E0E0E28
:10489800150E0E0E190E0E0E1D0E0E0E210E0E0EFC
:1048A80025000068FFF772FC012384F83D300020E2
:1048B80084F83C0010BD0068FFF78EFFF4E700683D
:1048C800FFF7B6FCF0E70068FFF7FAFCECE70068D2
:1048D800FFF72EFDE8E70068FFF762FDE4E7022036
:1048E800704710B4846824F47F4442EA03230B43DE
:1048F800234383605DF8044B7047000090F83C3018
:10490800012B74D010B50446012380F83C300223F3
:1049180080F83D3002689068364B034093600B681E
:10492800602B50D01DD9B3F1101F2ED035D8B3F558
:10493800005F3CD0B3F5801F27D0702B0AD1CB681D
:104948004A6889682068FFF7CCFF2268936843F0BB
:1049580077039360012384F83D30002084F83C00FD
:1049680010BD202B11D00DD9402B36D0502B11D192
:10497800CA6849682068FFF74BFD50212068FFF797
:104988006FFDE7E70BB1102BE4D119462068FFF75C
:1049980067FDDFE7302BDDD1F7E7174A9342F4D004
:1049A80010329342F1D0203A9342D3D1EDE7CB684D
:1049B8004A6889682068FFF794FF2268936843F47F
:1049C80080439360C6E7CA6849682068FFF733FDEB
:1049D80060212068FFF744FDBCE7CA684968206881
:1049E800FFF716FD40212068FFF73AFDB2E70220E5
:1049F800704700BF8800CEFF3000100090F83C30B0
:104A0800012B27D070B4012380F83C30022380F8B2
:104A18003D3003685A689D680F4E104CA34218BF7A
:104A2800B34203D122F470024C68224322F0700290
:104A38000C68224325F08004896821435A60036882
:104A48009960012380F83D30002380F83C301846F7
:104A580070BC70470220704700000140000401400C
:104A680070477047704700002DE9F04387B004464F
:104A7800016883680269134342691343C269134397
:104A8800426E13430868874A02401A430A60226844
:104A9800536823F44053E1680B435360A1692268CB
:104AA800814B9A4201D0236A194390687F4B034097
:104AB8000B4393602268D36A23F00F03616A0B43A8
:104AC800D36223687A4A93421FD07A4A934259D0D4
:104AD800794A934270D0794A934200F08780784AA5
:104AE800934200F09D80774A934200F0B380764A63
:104AF800934200F0F180754A934200F004816A4ABB
:104B0800934200F0178180252DE1714A526D02F021
:104B18003802282A34D8DFE812F02900330033009D
:104B280033003300330033003300250133003300F2
:104B3800330033003300330033002B0033003300DD
:104B4800330033003300330033002D0033003300CB
:104B5800330033003300330033002F0033003300B9
:104B68003300330033003300330031000125FAE00D
:104B78000825F8E01025F6E02025F4E04025F2E0CD
:104B88008025F0E0524A526D02F00702052A11D83A
:104B9800DFE812F00600370108000A000C000E00DA
:104BA8000025E0E00825DEE01025DCE02025DAE03D
:104BB8004025D8E08025D6E0454A526D02F007022C
:104BC800052A11D8DFE812F006001F0108000A00C4
:104BD8000C000E000025C6E00825C4E01025C2E040
:104BE8002025C0E04025BEE08025BCE0384A526D53
:104BF80002F00702052A11D8DFE812F006000701C3
:104C080008000A000C000E000025ACE00825AAE008
:104C18001025A8E02025A6E04025A4E08025A2E0F4
:104C28002B4A526D02F00702052A11D8DFE812F06C
:104C38000600EF0008000A000C000E00002592E0B4
:104C4800082590E010258EE020258CE040258AE09C
:104C5800802588E01E4A526D02F03802282A39D889
:104C6800DFE802F01538383838383838D738383867
:104C780038383838173838383838383819383838EC
:104C8800383838381B383838383838381D00012556
:104C980069E0082567E0102565E0202563E04025E8
:104CA80061E000BFF369FFCF000C0058FFF4FF116B
:104CB800001001400044004000480040004C004003
:104CC800005000400014014000780040007C004083
:104CD80000440258802546E0994A526D02F00702C6
:104CE800052A0ED8DFE802F003970507090B00250F
:104CF80039E0082537E0102535E0202533E0402548
:104D080031E080252FE08E4A526D02F00702052A15
:104D18000ED8DFE802F003820507090B002522E020
:104D2800082520E010251EE020251CE040251AE07B
:104D3800802518E002F50E32926D02F00702052A6E
:104D48000ED8DFE802F0036C0507090B02250AE01C
:104D5800082508E0102506E0202504E0402502E0AB
:104D6800802500E00425774A93425AD0E369B3F5D9
:104D7800004F00F01785402D01F2BB81DFE815F0E8
:104D88006C07FA07B909B9093808B909B909B9099D
:104D98007808B909B909B909B909B909B909B9093D
:104DA800B808B909B909B909B909B909B909B909ED
:104DB800B909B909B909B909B909B909B909B909DB
:104DC8003809B909B909B909B909B909B909B9094C
:104DD800B909B909B909B909B909B909B909B909BB
:104DE800B909B909B909B909B909B909B909B909AB
:104DF800B909B909B909B909B909B909B909B9099B
:104E080074090425AFE70425ADE70425ABE70425BD
:104E1800A9E70425A7E70425A5E70425A3E70425B2
:104E2800A1E7082D00F0A4800BD9202D00F03481D3
:104E3800402D00F04F81102D00F0D380012000F0AC
:104E48003DBF022D20D0042DF8D103A8FEF740FD68
:104E58000498636A002B6ED0012B75D0022B75D095
:104E6800032B75D0042B75D0052B75D0062B75D068
:104E7800072B75D0082B75D0092B75D00A2B75D048
:104E88000B2B55D0012357E0FEF710FD636AD3B111
:104E9800012B39D0022B39D0032B39D0042B39D030
:104EA800052B39D0062B39D0072B39D0082B39D010
:104EB800092B39D00A2B39D00B2B01D0012303E061
:104EC8004FF4807300E00123B0FBF3F0002801F0F9
:104ED8001381666806EB4603834201F20F81B0EB4B
:104EE800063F01F20D81082D00F0518240F26181E8
:104EF800202D00F08D83402D00F0EF83102D00F061
:104F08009F8201200023DEE10223DDE70423DBE7A3
:104F18000623D9E70823D7E70A23D5E70C23D3E7E5
:104F28001023D1E72023CFE74023CDE78023CBE729
:104F38004FF4807300E00123B0FBF3F0C6E700BF35
:104F480000440258000C00580223F5E70423F3E755
:104F58000623F1E70823EFE70A23EDE70C23EBE745
:104F68001023E9E72023E7E74023E5E78023E3E789
:104F78006846FEF7ABFD0198636AD3B1012B1CD0DC
:104F8800022B1CD0032B1CD0042B1CD0052B1CD0AF
:104F9800062B1CD0072B1CD0082B1CD0092B1CD08F
:104FA8000A2B1CD00B2B01D0012303E04FF4807394
:104FB80000E00123B0FBF3F088E70223FAE70423BB
:104FC800F8E70623F6E70823F4E70A23F2E70C23B9
:104FD800F0E71023EEE72023ECE74023EAE78023FD
:104FE800E8E79C4B1B6813F0200F3AD0994B1B68DD
:104FF800C3F3C1039848D840636AC3B1012B1AD0E0
:10500800022B1AD0032B1AD0042B1AD0052B1AD036
:10501800062B1AD0072B1AD0082B1AD0092B1AD016
:105028000A2B1AD00B2B1AD14FF4807300E00123FE
:10503800B0FBF3F04AE70223FAE70423F8E7062374
:10504800F6E70823F4E70A23F2E70C23F0E7102336
:10505800EEE72023ECE74023EAE78023E8E7012393
:10506800E6E7636A002B53D0012B53D0022B53D0B1
:10507800032B53D0042B53D0052B53D0062B53D0DE
:10508800072B53D0082B53D0092B53D00A2B53D0BE
:105098000B2B53D1714819E7636A002B50D0012BB1
:1050A80050D0022B50D0032B50D0042B50D0052BBE
:1050B80050D0062B50D0072B50D0082B50D0092B9E
:1050C80050D00A2B51D00B2B01D06548FEE643F691
:1050D8000950FBE6636A002B4AD0012B4BD0022B08
:1050E8004CD0032B4DD0042B4ED0052B4FD0062B84
:1050F80050D0072B51D0082B52D0092B53D00A2B54
:1051080054D00B2B02D04FF40040DFE68020DDE6C0
:105118005148DBE65348D9E65348D7E65348D5E625
:105128005348D3E65348D1E65348CFE64C48CDE63A
:105138005248CBE65248C9E65248C7E64648C5E653
:105148004748C3E64D48C1E64D48BFE64E48BDE670
:105158004C48BBE64D48B9E64D48B7E63F48B5E68A
:105168004C48B3E64FF22440B0E647F61220ADE6CD
:105178004FF40040AAE64FF48040A7E64FF40050F1
:10518800A4E641F25550A1E64FF480509EE640F661
:10519800CC409BE640F6AA2098E64FF4006095E6DE
:1051A8004FF4806092E64FF400708FE64FF4807001
:1051B8008CE6022D2FD0042D7FF4A3AE03A8FEF7B2
:1051C80087FB0498636A002B00F0A880012B00F08D
:1051D800BD80022B00F0BD80032B00F0BD80042BA6
:1051E80000F0BD80052B00F0BD80062B00F0BD80CF
:1051F800072B00F0BD80082B00F0BD80092B00F0C4
:10520800BD800A2B00F0BD800B2B40F0BD804FF411
:105218008072002384E0FEF749FB636AE3B3012B45
:105228005BD0022B5CD0032B5DD0042B5ED0052B0A
:105238005FD0062B60D0072B61D0082B62D0092BDA
:1052480063D00A2B64D00B2B65D14FF480720023F6
:1052580024E000BF004402580090D00390D003001F
:1052680000093D000048E8010024F400AAC2A20099
:1052780000127A0000A861005561510080841E0068
:1052880040420F0020A107002A2C0A00801A0600BD
:105298001516050048E80100012200230021FBF74C
:1052A80017F80F0247EA10670602626850080025DF
:1052B8002B4616EB000847F1000940464946FBF724
:1052C80007F803462846A3F54071C14A914200F207
:1052D80019872268D36000F0F1BC02220023DDE7C1
:1052E80004220023DAE706220023D7E70822002356
:1052F800D4E70A220023D1E70C220023CEE71022AC
:105308000023CBE720220023C8E740220023C5E77B
:1053180080220023C2E701220023BFE701220023E5
:105328000021FAF7D5FF0F0247EA10670602626804
:10533800500800252B4616EB000847F100094046A7
:105348004946FAF7C5FF03462846BCE70222002370
:10535800E6E704220023E3E706220023E0E7082229
:105368000023DDE70A220023DAE70C220023D7E72F
:1053780010220023D4E720220023D1E74022002373
:10538800CEE780220023CBE701220023C8E7684646
:10539800FEF79CFB0198636ACBB1012B2FD0022B3F
:1053A80030D0032B31D0042B32D0052B33D0062B31
:1053B80034D0072B35D0082B36D0092B37D00A2B01
:1053C80038D00B2B39D14FF48072002301E0012231
:1053D80000230021FAF77CFF0F0247EA1067060254
:1053E8006268500800252B4616EB000847F10009B3
:1053F80040464946FAF76CFF0346284663E702220F
:105408000023E6E704220023E3E706220023E0E77F
:1054180008220023DDE70A220023DAE70C22002312
:10542800D7E710220023D4E720220023D1E7402227
:105438000023CEE780220023CBE701220023C8E720
:10544800644B1B6813F0200F5CD0624B1B68C3F3DE
:10545800C1036148D840636ACBB1012B31D0022B1C
:1054680032D0032B33D0042B34D0052B35D0062B68
:1054780036D0072B37D0082B38D0092B39D00A2B38
:105488003AD00B2B3BD14FF48072002301E001226C
:1054980000230021FAF71CFF4FEA012949EA1069A5
:1054A8004FEA00287008002532462B4618EB000604
:1054B80049F1000730463946FAF70AFF03462846FD
:1054C80001E702220023E4E704220023E1E70622A1
:1054D8000023DEE708220023DBE70A220023D8E7BF
:1054E8000C220023D5E710220023D2E72022002334
:1054F800CFE740220023CCE780220023C9E701221E
:105508000023C6E7636AD3B1012B29D0022B2CD024
:10551800032B2FD0042B32D0052B35D0062B38D0B7
:10552800072B3BD0082B3ED0092B41D00A2B65D046
:105538000B2B68D1DFF8A0804FF0000903E0DFF8FB
:105548009C804FF003097708002532462B4618EB5C
:10555800070049F10001FAF7BBFE03462846B2E608
:10556800DFF87C804FF00109EDE7DFF878804FF035
:105578000009E8E70FF24809D9E90089E3E7DFF80D
:1055880068804FF00009DEE7DFF860804FF000091F
:10559800D9E70FF23409D9E90089D4E7DFF8508058
:1055A8004FF00009CFE7DFF84C804FF00009CAE759
:1055B800DFF844804FF00009C5E700BFAFF3008073
:1055C80000AAC2A2000000000055615100000000BE
:1055D800FFFC0F00004402580090D003000090D058
:1055E800000048E8000024F40000127A0000A861D6
:1055F8000000093D0080841E0040420FDFF8E88665
:105608004FF000099FE7DFF830874FF003099AE76A
:10561800636AD3B1012B29D0022B2CD0032B2FD0B6
:10562800042B32D0052B35D0062B38D0072B3BD096
:10563800082B3ED0092B41D00A2B44D00B2B47D145
:10564800DFF8C4864FF0000903E0DFF8F0864FF07A
:1056580000097708002532462B4618EB070049F168
:105668000001FAF735FE034628462CE6DFF8D08617
:105678004FF00009EDE7DFF8CC864FF00009E8E7C6
:105688000FF2A469D9E90089E3E7DFF85C864FF0F7
:105698000009DEE7DFF8B0864FF00009D9E70FF21E
:1056A8009069D9E90089D4E7DFF838864FF0000916
:1056B800CFE7DFF83C864FF00009CAE7DFF8388605
:1056C8004FF00009C5E7DFF83C864FF00009C0E756
:1056D800DFF868864FF00009BBE7636AD3B1012B96
:1056E80029D0022B2CD0032B2FD0042B32D0052B02
:1056F80035D0062B38D0072B3BD0082B3ED0092BB2
:1057080041D00A2B44D00B2B47D14FF400484FF01F
:10571800000903E04FF400084FF00009770800255E
:1057280032462B4618EB070049F10001FAF7D0FD85
:1057380003462846C7E54FF480084FF00009EDE717
:105748004FF400184FF00009E8E7DFF800864FF043
:105758000009E3E74FF480184FF00009DEE7DFF8AF
:10576800F0854FF00009D9E7DFF8E8854FF0000928
:10577800D4E74FF400284FF00009CFE74FF4802812
:105788004FF00009CAE74FF400384FF00009C5E7A9
:105798004FF480384FF00009C0E74FF400084FF08D
:1057A8000009BBE7402D00F25482DFE815F0410004
:1057B8008F0052025202CE005202520252020F01D0
:1057C8005202520252025202520252025202500134
:1057D8005202520252025202520252025202520221
:1057E8005202520252025202520252025202D10193
:1057F8005202520252025202520252025202520201
:1058080052025202520252025202520252025202F0
:1058180052025202520252025202520252025202E0
:1058280052025202520252025202520252020C0216
:10583800FDF74AFA636AC3B1012B31D0022B31D08C
:10584800032B31D0042B31D0052B31D0062B31D08E
:10585800072B31D0082B31D0092B31D00A2B31D06E
:105868000B2B31D14FF4807300E00123B0FBF3F030
:105878006268530803EB4003B3FBF2F39BB20020CA
:10588800A3F110014FF6EF72914200F23D849AB2F3
:1058980022F00F02C3F3420313432268D3600DE2E0
:1058A8000223E3E70423E1E70623DFE70823DDE734
:1058B8000A23DBE70C23D9E71023D7E72023D5E712
:1058C8004023D3E78023D1E70123CFE7FDF70EFA82
:1058D800636AC3B1012B22D0022B22D0032B22D022
:1058E800042B22D0052B22D0062B22D0072B22D026
:1058F800082B22D0092B22D00A2B22D00B2B22D105
:105908004FF4807300E00123B0FBF3F062685308A2
:1059180003EB4003B3FBF2F39BB20020B0E7022392
:10592800F2E70423F0E70623EEE70823ECE70A236F
:10593800EAE70C23E8E71023E6E72023E4E740231F
:10594800E2E78023E0E70123DEE703A8FDF7C0FFD5
:10595800049B626AC2B1012A22D0022A22D0032AF9
:1059680022D0042A22D0052A22D0062A22D0072AA9
:1059780022D0082A22D0092A22D00A2A22D00B2A89
:1059880022D14FF4807200E00122B3FBF2F2616889
:105998004B0803EB4203B3FBF1F39BB200206FE724
:1059A8000222F2E70422F0E70622EEE70822ECE7FB
:1059B8000A22EAE70C22E8E71022E6E72022E4E7D9
:1059C8004022E2E78022E0E70122DEE76846FEF7B0
:1059D8007DF8019B626AC2B1012A22D0022A22D034
:1059E800032A22D0042A22D0052A22D0062A22D02D
:1059F800072A22D0082A22D0092A22D00A2A22D00D
:105A08000B2A22D14FF4807200E00122B3FBF2F29C
:105A180061684B0803EB4203B3FBF1F39BB2002030
:105A28002EE70222F2E70422F0E70622EEE7082238
:105A3800ECE70A22EAE70C22E8E71022E6E7202250
:105A4800E4E74022E2E78022E0E70122DEE7A44B18
:105A58001B6813F0200F42D0A14B1A68C2F3C10291
:105A6800A04BD340626AD2B1012A24D0022A24D0A2
:105A7800032A24D0042A24D0052A24D0062A24D094
:105A8800072A24D0082A24D0092A24D00A2A24D074
:105A98000B2A01D0012203E04FF4807200E00122BA
:105AA800B3FBF2F261684B0803EB4203B3FBF1F37B
:105AB8009BB20020E4E60222F2E70422F0E7062285
:105AC800EEE70822ECE70A22EAE70C22E8E71022D0
