:020000040800F2
:10000000580E0020690200082F0B00089D0A000806
:100010002D0B0008AD030008652B00080000000050
:10002000000000000000000000000000B90E000801
:10003000A508000800000000390C0008810F000826
:10004000830200088302000883020008830200087C
:10005000830200088302000883020008830200086C
:10006000830200088302000883020008830200085C
:10007000830200088302000883020008830200084C
:10008000830200088302000883020008830200083C
:10009000830200088302000883020008830200082C
:1000A000830200088302000883020008830200081C
:1000B000830200088302000883020008830200080C
:1000C00083020008830200088302000883020008FC
:1000D00083020008830200088302000883020008EC
:1000E000A9080008830200088302000883020008B0
:1000F00083020008830200088302000883020008CC
:1001000083020008830200088302000883020008BB
:1001100083020008830200088302000883020008AB
:10012000830200088302000883020008830200089B
:10013000830200088302000883020008830200088B
:10014000830200088302000883020008830200087B
:10015000830200088302000883020008830200086B
:100160008302000883020008B50B0008A90B0008F1
:10017000CD0B0008C10B00088302000883020008B1
:10018000830200088302000800F002F800F05CF827
:100190000AA090E8000C82448344AAF10107DA45E2
:1001A00001D100F051F8AFF2090EBAE80F0013F0D8
:1001B000010F18BFFB1A43F001031847842A0000FF
:1001C000A42A00000A444FF0000C10F8013B13F081
:1001D000070408BF10F8014B1D1108BF10F8015BA0
:1001E000641E05D010F8016B641E01F8016BF9D193
:1001F00013F0080F1EBF10F8014BAD1C0C1B09D1EA
:100200006D1E58BF01F801CBFAD505E014F8016B5B
:1002100001F8016B6D1EF9D59142D6D370470000ED
:100220000023002400250026103A28BF78C1FBD8FF
:10023000520728BF30C148BF0B6070471FB502F09E
:10024000CBFC1FBD10B510BD00F06EF81146FFF7D6
:10025000F5FF02F09BFC00F09FF803B4FFF7F2FFFC
:1002600003BC02F080FC00000948804709480047B1
:10027000FEE7FEE7FEE7FEE7FEE7FEE7FEE7FEE756
:10028000FEE7FEE704480549054A064B70470000B3
:10029000DD0F00088901000858080020580E0020D2
:1002A000580A0020580A0020704700000FB4044983
:1002B00010B503AA029800F009F810BC5DF814FB11
:1002C000640000207047704770477047074B70B557
:1002D0000C467B4400F011F80546204600F020F85B
:1002E00010B14FF0FF3070BD284670BD932800005C
:1002F00001694A1C02610878704700B58FB0CDE9EA
:1003000001310021059105497944CDE903101146D9
:10031000684600F02EF80FB000BD0000E5FFFFFFBB
:10032000C06800F080007047754600F03BF8AE46AC
:1003300005006946534620F00700854618B020B5F1
:10034000FFF7A0FFBDE820404FF000064FF0000788
:100350004FF000084FF0000B21F00701AC46ACE86D
:10036000C009ACE8C009ACE8C009ACE8C0098D46DA
:1003700070472DE9F04106460024D6E90170F56882
:10038000804602E04146B847641C3046A847002832
:10039000F8D12046BDE8F0810446AFF30080204646
:1003A000FFF75BFF00487047F8070020FEE710B535
:1003B0000A460C0601F07F0303EB830100EBC10149
:1003C00002D501F58E7101E001F55D71D2090B7066
:1003D0004A7002F09AF9002010BD0A4610B50906CD
:1003E00002F07F0306D503EB830100EBC10101F5A9
:1003F0008E7105E002EB820100EBC10101F55D7138
:1004000000248C700B70D2094A7002F065F900204C
:1004100010BD10B50A0604D501F07F0102F096FA6E
:1004200001E002F075FA002010BD70B50C460E0612
:1004300001F07F0505EB850100EBC10102D501F557
:100440008E7101E001F55D71E4090D704C708A60F8
:10045000CB7000D0CD80022B01D100220A7102F0B6
:1004600005F9002070BD01F07F0C0CEB8C0100EB56
:10047000C10110B501F55D714B61CA6000238B614C
:100480004B7081F800C0C378012B00D10A611CF0C9
:10049000FF0F03D002F079F9002010BD02F07CF8C4
:1004A000FAE70069002261F30A1201681143016052
:1004B00070470A4610B5090602F07F0306D503EB24
:1004C000830100EBC10101F58E7105E002EB8201B1
:1004D00000EBC10101F55D7101248C700B70D20934
:1004E0004A7002F03AF9002010BD70B511F07F0497
:1004F00004EB840100EBC10101F58E714FF00105A1
:100500004D700C70CA600A614FF00002C1E90532FB
:1005100003D002F03AF9002070BD02F03DF8FAE78E
:100520002DE9F0410746002502F05AFA044655E04D
:10053000E00751D03869E9B20369426BCA4007EB62
:10054000810102F00102896943EAC2128E681640F5
:10055000F1071AD00126426B06FA05F18A4342637D
:1005600007EB8500806986601F48E9B20068426831
:1005700038469047F878012807D135B997F8110126
:10058000042802D1384602F05FF8300704D507EBA3
:100590008500082680698660F00604D507EB850093
:1005A000102680698660700604D507EB850040261A
:1005B00080698660B00704D507EB85000226806954
:1005C0008660300608D52946384600F030F907EB3A
:1005D00085018020896988606D1C6408002CA7D182
:1005E0000120BDE8F0810000A40000202DE9F047C3
:1005F0000746002502F0FAF90446DFF8989044E037
:10060000E00740D0E9B28846384602F0F5F90646E0
:10061000C00725D007EB85000126416D8E60F97873
:1006200001290CD1406D016905EB850007EBC00085
:10063000C1F31201D0F87C23511AC0F88C13D9F8F9
:1006400000004146026838469047F878012807D1F3
:1006500035B997F81101052802D1384601F0F4FFA9
:10066000B00704D507EB85000226406D8660300791
:1006700009D5D9F8000081683846884707EB85011D
:100680000820496D88606D1C6408002CB8D10120D9
:10069000BDE8F087A400002070B50546C0688169F8
:1006A00021F010018161E868066AC6F3030000EBDF
:1006B000800005EBC004C6F3434004F55D740728D1
:1006C00021D2DFE800F0202004202020150047F68A
:1006D000F070064217D0C6F30A1632462846E16883
:1006E00002F092F9E0683044E060A069304409E02B
:1006F000082205F2CC51284602F086F9A069C6F31B
:100700000A110844A061E868816941F01001816123
:10071000012070BD70B504460069002501264168BE
:1007200021F0010141602946204602F00FF9002026
:10073000FF2106E004EB800293699960526D91609D
:10074000401C62788242F5D821694FF0FF30886101
:100750002846216966F30F0066F31F40C8612169CE
:1007600045F00B0048612169C1F88400216945F01A
:100770000B000861216948642069016821F4FE6169
:100780000160204601F060FFE1684FF4805048614D
:1007900003480068016920468847012070BD0000B9
:1007A000A400002070B5044602F03EF901250022A5
:1007B00084F8125184F81421104640230EE000BF43
:1007C00000EB800104EBC10101F58E714D700870E2
:1007D000C880CA70C1E90232401C4A616178814216
:1007E000EED800200EE000BF00EB800104EBC10159
:1007F00001F55D714A700870C880CA70C1E90232A3
:10080000401C4A6161788142EED8204601F09EFE8C
:10081000204601F085FD0021204602F06BF92046BC
:1008200001F0BEFD2046BDE8704002F069B82DE938
:10083000F04707460E4601EB860007EBC00404F5BF
:100840008E74D4E90501401AA168814200D208469D
:10085000C01C850807EB860915E0A0EB0108A0681D
:10086000404500D2804608F1030085081FFA88F34E
:10087000F2B23846E16802F061F9E0684044E060B5
:10088000A0694044A061D9F81800806980B2A842EC
:1008900005D9D4E90501814201D20028DDD101202A
:1008A000BDE8F0877047000070B54FF4004528465A
:1008B00000F05CF800283ED01F4CD4F81801A8B313
:1008C000A07A10B394F8120104281ED11B490868BD
:1008D00020F006000860012000F04EFA312000F000
:1008E00029FA0028FAD0012000F04EFA392000F051
:1008F00021FA0028FAD0022000F04CFA00F034FA75
:100900000828FBD10C4802F00AF90B4801F0D6FB8D
:1009100094F813010A4984F812010120086009497A
:100920004FF6FF70088008A0FFF7C0FC2846BDE81E
:10093000704000F015B870BDC401002010ED00E05B
:1009400000000020660100203E20555342204465EF
:100950007669636520776F6B652075702E0A0000DD
:100960000149086070470000143C0140064A0146F6
:1009700000201268044B0A4014331B680B4202D05B
:10098000002A00D001207047003C014030B51B49CF
:100990008379026863B30B6893430B600A1D136885
:1009A0000468A343136002790A441368046823436C
:1009B0001360124A083213680468A3431360131DBE
:1009C0001C680568AC431C6090F805C0BCF1100FB2
:1009D00005D061440A68006802430A6030BD1168AE
:1009E000046821431160196800680143196030BD33
:1009F0000079084401689143016030BD003C01402A
:100A0000F0B5002201234FF0030C00BF0D6803FA7C
:100A100002F42540A5422DD1066854000CFA04F5D5
:100A2000AE4306600E790768A6403E4306600E7925
:100A3000012E01D0022E12D18668AE4386604D7918
:100A40008668A54035438560456803FA02F6B543DC
:100A5000456045688E799640B6B235434560C568B5
:100A600056000CFA06F7BD43C560CD79A540C468B1
:100A70002543C560521C102AC8D3F0BD4B07DB0EBE
:100A80009A40C90810B500EB8100016A0F249C4010
:100A9000A1430162016A1143016210BDFEE700003B
:100AA0001CB501210A2000F0C9F84FF42A4000903B
:100AB00000208DF804008DF8060003208DF8050055
:100AC00001208DF8070069460548FFF799FF4FF4AC
:100AD0000040009069460348FFF792FF00201CBDCC
:100AE000000C0240000402400E480168090401D4D1
:100AF000012070470168090501D4022070470A49A6
:100B00000968090401D4032070470168890401D4ED
:100B1000042070470068800501D40520704700203C
:100B200070470000100C024010040240FEE77047BE
:100B300070B50F21C478027801234FF0E026E4B1AC
:100B4000124C246804F4E064C4F5E064C4F30724A0
:100B5000C4F10405E1404478AC4085780D4025435C
:100B60000B4C29011155007800F01F018B40400902
:100B700006EB8000C0F8003170BD02F01F0083401A
:100B8000500906EB8000C0F8803170BD0CED00E02C
:100B900000E400E002490843024908607047000091
:100BA0000000FA050CED00E0014800F0ABBD0000CC
:100BB000C4010020014800F0E1BD0000C401002094
:100BC000014800F003BE0000C4010020174810B522
:100BD0000168012927D01648807AF0B115480168CC
:100BE00021F006010160012000F0C6F8312000F07C
:100BF000A1F80028FAD0012000F0C6F8392000F052
:100C000099F80028FAD0022000F0C4F800F0ACF8FF
:100C10000828FBD1064801F082FFBDE810404FF4E0
:100C20008010FFF79DBE00210160F6E70000002064
:100C3000C401002010ED00E070470000044A0029C4
:100C4000116801D0014300E081431160704700004A
:100C500030380240044A0029116801D0014300E005
:100C6000814311607047000040380240044A002967
:100C7000116801D0014300E081431160704700001A
:100C800020380240044A0029116801D0014300E0E5
:100C900081431160704700004438024030B5224B58
:100CA0001968224A11F00C0104D05510042903D010
:100CB000082903D002601DE005601BE01A49091FE6
:100CC0000C68C4F3805C0C68BCF1000F04F03F04B6
:100CD00002D0B5FBF4F201E0B2FBF4F20C68096853
:100CE000C4F388146243C1F30141491C4900B2FBBB
:100CF000F1F1016019680E4A01F0F0010909545C34
:100D00000168E14041601C6804F4E054A40A145DE9
:100D100021FA04F484601B6803F460435B0BD25C2B
:100D2000D140C16030BD0000083802400024F4000A
:100D3000B401002002460020510901290BD00229EC
:100D40000CD00849096802F01F02012393400B42AE
:100D500000D00120704703497439F3E70149091FA6
:100D6000F0E70000743802400248006800F00C0010
:100D70007047000008380240024900220A700870DB
:100D800070470000023802400149086670470000C1
:100D900000004742034A116821F00301014311603A
:100DA00070470000083802401CB504460E48012177
:100DB00050F82400FFF742FF0B4800210A3830F8B2
:100DC0001400009001208DF804008DF806108DF8B5
:100DD000070002208DF805000448694650F82400F9
:100DE000FFF70EFE1CBD0000242C00089801002017
:100DF000044951F820104A69034B33F8100042406F
:100E00004A617047980100201A2C000870B504460A
:100E100027480D4686B050F824000121FFF70EFF49
:100E200001218803FFF72EFF214800268DF810606E
:100E300038388DF8136030F8140003901D4803A96A
:100E400050F82400FFF7DCFD012D2ED1184826387C
:100E500030F81400C1B216482C3830F81400C0B273
:100E600000F02CF81248323830F8140000908DF859
:100E700004600CB10C2000E008208DF8050001256D
:100E80008DF806506846FFF781FD0948203830F894
:100E900014008DF808000F208DF809008DF80A0065
:100EA0008DF80B5002A8FFF743FE06B070BD00009E
:100EB000342C0008A80100207047000010B58A07F4
:100EC00021F003040649130F21440F220C689A40B5
:100ED00094430C600A68984002430A6010BD000009
:100EE00008380140224900200A6842F480320A6032
:100EF0004FF4A0630A6800F1010012F4003F01D131
:100F00009842F7D10868800331D51948403002680B
:100F100042F0805202601748026842F48042026048
:100F20001348083002680260026842F4004202601E
:100F3000026842F4A0520260031F0F4A1A600A6856
:100F400042F080720A600A689201FCD50B4A40F2B6
:100F500005611160016821F003010160016841F041
:100F6000020101600168C1F381010229FAD17047D1
:100F7000003802400070004008544007003C024026
:100F800070B500242546FFF7AFFD02280ED06FF0A4
:100F90000901032804D0042804D0052807D103E060
:100FA0000C4604E00A2402E00D4600E00A25094947
:100FB000002214F0FF000A704870EBB28B70CA7008
:100FC00001D1002B05D0BDE870400422024800F09A
:100FD0000EBB70BD04000020C4010020124810B5F3
:100FE000016841F4700101601048016841F001019D
:100FF00001600E4A00210832116002680C4B1A4051
:101000000260031D0B4A1A60026822F4802202600B
:1010100006480C300160FFF765FF03494FF00060A0
:101020008039086010BD000088ED00E00038024003
:10103000FFFFF6FE103000240029818902D041F420
:10104000005101E021F400518181704770B5012108
:1010500086B00846FFF7F2FD01210820FFF7EEFDFC
:1010600001214804FFF7F6FD234E072202213046F6
:10107000FFF704FD072206212048FFF7FFFC0221AD
:101080008DF8041000248DF8064004208DF805101A
:10109000009001258DF8075069463046FFF7B0FCF7
:1010A000402000908DF806508DF807406946304684
:1010B000FFF7A6FC4FF4E130ADF80C400290ADF81C
:1010C0000E40ADF81040ADF814400C200C4CADF8BB
:1010D000120002A9204600F035F8012240F2255105
:1010E000204600F016F801212046FFF7A5FF00F08A
:1010F00085F806B070BD000000000240000C024000
:10110000004400400246002012880A4200D001201C
:101110007047C1F3421301F01F0C012101FA0CF1D9
:10112000012B07D0022B07D01430002A026805D00B
:101130000A4304E00C30F8E71030F6E78A43026017
:10114000704700007FB50446008A0D4620F44051E8
:10115000E88808432082A08941F20C618843A9886D
:101160002A8911436A8902431143A181A08A20F48C
:101170004071A8890843A0826846FFF78FFD1D488B
:10118000844202D01C48844201D1039800E00298B6
:10119000A1890904002900EBC00101EB00102968B6
:1011A00002DA4FEA410101E04FEA8101B0FBF1F0C0
:1011B0006422B0FBF2F14FEA01114FEA11136FF014
:1011C00018056B4300EB8300A3891D044FF0320325
:1011D00006D503EBC000B0FBF2F000F0070005E01D
:1011E00003EB0010B0FBF2F000F00F000843208189
:1011F0007FBD0000001001400014014008B526200A
:101200008DF8000001208DF8010000218DF80210FA
:101210008DF803006846FFF78BFC08BDC1F3080199
:101220008180704710B5D0F8E425526890470020BF
:1012300010BD10B5134600240A462146FFF713F9E6
:10124000204610BD10B5134600240A462146FFF77C
:101250004CF9204610BD10B504468021FFF729F94E
:1012600000212046FFF725F92046BDE8104001F097
:10127000EBB970B504460025052084F811012B4612
:101280002A4629462046FFF7EEF8204601F0DCF911
:10129000284670BD10B5C0F83C210223C0F83821A3
:1012A00080F81131134600240A462146FFF71DF944
:1012B000204610BD70B504460025042084F81101B5
:1012C0002B462A4629462046FFF70FF9204601F013
:1012D000BBF9284670BD000070B5054641B1D5F890
:1012E000E40542698AB395F81201032846D047E025
:1012F00095F81101002605F58E74022833D1E169B5
:10130000A06881420FD9081AE061E878012803D16A
:10131000D4E902100844E060E069E16882B228463E
:10132000FFF790FF1FE0216AB1FBF0F200FB121201
:1013300062B981420AD3606A814207D20022114613
:101340002846FFF77FFF66620DE016E0D5F8E4055A
:10135000C16829B195F81201032801D128468847B0
:101360002846FFF786FF95F81601012808D10548A1
:1013700000682969486085F8166101E028469047B1
:10138000002070BDA800002010B5044641B1D4F87B
:10139000E4058269FAB194F8120103282AD02BE0FF
:1013A00094F8111104F55D70032925D18268C16993
:1013B000914211D9891AC161E178012902D1C1682C
:1013C0001144C160C169914200D311468AB2C1681B
:1013D0002046FFF72EFF0FE0D4F8E405016929B19C
:1013E00094F81201032801D1204688472046FFF7D0
:1013F00061FF01E020469047002010BD10B5044673
:10140000D0F8E80540698047012084F815010020E4
:1014100010BD10B50446D0F8E80580698047D4F8BF
:10142000E4050021426820469047002084F8150119
:1014300010BD000038B5044648880D46010A082949
:101440006AD2DFE801F06904142C69695567D4F8A1
:10145000EC15A0780A68694690470146E88840285C
:1014600003D094F81201012863D108204FE0D4F88A
:10147000E415A0788A6A694690470146A078012859
:1014800008D1227A012A05D1D4F8E415CA6A69463E
:101490009047014602204870C4F8F01549E0C0B2F8
:1014A000062839D2DFE800F003080D12171CD4F823
:1014B000EC15A0784A6817E0D4F8EC15A0788A6893
:1014C00012E0D4F8EC15A078CA680DE0D4F8EC1559
:1014D000A0780A6908E0D4F8EC15A0784A6903E01E
:1014E000D4F8EC15A0788A6969469047014620E057
:1014F000A07888B9D4F8E4158A6A694690471549F6
:10150000827B0A71C27B4A71007C88710A20ADF827
:10151000000012E0A07820B129462046FFF79BFE8C
:1015200038BDD4F8E415CA6A6946904707220146D7
:101530004270BDF800000028F2D0EA88002AEFD0FF
:1015400080B2824200D90246ADF800202046FFF763
:10155000A1FE38BD5800002070B5002500281FD01E
:101560000346002402E0641CE4B25B1C1E78002EDB
:10157000F9D1022303EB440313804B556D1CEAB2EF
:1015800003238B54521CD2B2002406E08B54521C0D
:10159000D2B2401C8C54521CD2B20378002BF5D12D
:1015A00070BD10B58121FEF734FF002010BD10B5CD
:1015B00004468121FEF7FBFE01212046FEF7F7FEDF
:1015C000002010BD2220088000487047E80000205D
:1015D00010B50446032304228121FEF726FF0323CE
:1015E000042201212046FEF720FF002010BD10B587
:1015F00090F81231032B04D113460A468121FEF7DD
:1016000074FF002010BD000070B50C78002214F0AB
:101610006005264C13461ED0202D44D14A78022A5C
:1016200015D0032A0BD00A2A0DD00B2A03D0FFF7BE
:1016300012FE022070BD4888C0B2606033E01B49D2
:101640000122091D26E04888000AA0602BE0174906
:10165000012208311EE04D78062D04D00A2D1CD041
:101660000B2D20D11CE04C882225B5EB142F06D180
:10167000CA884A2A00D94A220C4B3C3309E021256A
:10168000B5EB142F05D1094BCA883033092A00D98C
:1016900009221946FFF7FEFD05E001220349F9E79B
:1016A0004888C0B22060002070BD0000DC0000202F
:1016B0002DE9F0410446884617461D46069E00F077
:1016C00053FDC4F8E45504F5BD65414685E8C00006
:1016D0002046FFF767F82868006880472046BDE885
:1016E000F04100F00CBD10B5D0F8E415096A884748
:1016F000002010BD10B5D0F8E415496A88470020D5
:1017000010BD000070B505460069426C416BC1F325
:10171000400142EAC111EA6994680C40E1070CD02B
:10172000416B21F002014163E869012484601248A1
:1017300021460068426828469047A00702D5E8691C
:1017400002248460200702D5E86908248460E0064A
:1017500002D5E86910248460600602D5E869402457
:101760008460200606D501212846FFF760F8E96964
:1017700080208860012070BDA400002070B5044660
:10178000806D85682169D1F884100D40E90713D078
:1017900001258560E078012808D1A06D0069D4F8A2
:1017A000A413C0F31200081AC4F8B40306480121B8
:1017B0000068026820469047A80702D5A16D022064
:1017C0008860012070BD0000A40000202DE9F047D2
:1017D0000646002401F0F5F800287DD0304601F0DF
:1017E000FAF8050079D0280303D53046FEF7FEFE4F
:1017F0000446680303D53046FEF792FE0443A8076B
:101800004FF0000A02D5F168022048615F4F4FF0A7
:101810000109002D17DAB07A30B1D6F80C01D6F8EC
:101820000C1120F0030008603069416821F00101CB
:1018300041603868816930468847F1684FF0004060
:10184000486144F00104280529D5386896F81281CA
:1018500041693046884730698068F2684FF400611A
:101860005161B17AC9B1C00717D096F815010128A6
:1018700013D1B8F1030F10D1D6F80C01016841F073
:1018800001010160D6F80C01016841F0030101601B
:101890003F48016841F00601016044F00104280757
:1018A00008D53868C16830468847F1680820486123
:1018B00044F00104E80603D53046FEF7EDFE04438C
:1018C000E80403D53046FEF725FF0443A8041DD5E0
:1018D000304600F043FE01E04AE04AE0F068D0F80C
:1018E0000C80304601F054F8032844D086F802906A
:1018F000402128F47050B18000F5A050F168C86014
:10190000F1684FF40050486144F00104E80209D541
:101910003868C16930468847F1684FF480104861E3
:1019200044F00104A80209D53868016A30468847A6
:10193000F1684FF40010486144F00104680009D5D3
:101940003868416A30468847F1684FF08040486106
:1019500044F0010468070BD5F0684568680703D5B3
:101960003868816A30468847F068456044F0010471
:101970002046BDE8F08786F802A04FF4007128F4F5
:101980007050B18000F51050B8E70000A4000020AE
:1019900010ED00E090F8CC250A7090F8CD254A7043
:1019A00090F8CE2590F8CF3502EB03224A8090F8CC
:1019B000D02590F8D13502EB03228A8090F8D22509
:1019C00090F8D33502EB032292B2CA800121C0F80D
:1019D000402180F81111704710B5002304464022C1
:1019E0001946FEF722FD0023402280212046FEF703
:1019F0001CFD012084F81201D4F8E815A07849688C
:101A00008847002010BD10B50446D0F8E8050069ED
:101A10008047032084F81201002010BD10B5D0F8D3
:101A2000E415C96901B18847002010BD10B504460E
:101A3000D0F8E405026820469047D4F8E8058068AD
:101A40008047002010BD000070B504460846498854
:101A50001A4DC9B20129297005D894F81221022A19
:101A600007D0032A0CD001462046BDE87040FFF79E
:101A7000F2BBA1B184F81011032084F812010BE02D
:101A800091B194F81001884209D001462046FFF731
:101A9000C9FB297884F810112046FFF7C7FF2046BC
:101AA000BDE87040FFF706BC022084F8120184F8FC
:101AB00010112046FFF7B6FBF1E700006800002098
:101AC00010B504464888012201280FD0022831D1E0
:101AD000898811F0FF0F2DD120694068090A062975
:101AE0001FD2DFE801F01E0B0F13171BC4F81821DB
:101AF000D4F8E40582682046904716E020F0700094
:101B000010300EE020F0700020300AE020F070006D
:101B1000303006E020F07000403002E020F070002D
:101B200050300549086084F816212046BDE8104071
:101B3000FFF7C0BB10BD0000A80000201CB5044684
:101B40006946FFF727FF9DF8000010F01F010AD03B
:101B500001290DD0022910D000F080012046FEF7A7
:101B6000A8FC00201CBD6946204600F00BF8F8E7F1
:101B70006946204600F0EAF8F3E76946204600F09F
:101B800079F8EEE72DE9F0414A78002601270A2A84
:101B900042D2DFE802F03B554152410805412A2775
:101BA000FFF748FC61E004468888C8B9C888B8B91E
:101BB0004888C0F3060594F81201032810D084F871
:101BC000145129462046FEF76CFC2046FFF772FBB5
:101BD0001DB1022084F8120147E084F8127144E03C
:101BE000204619E0FFF730FF3FE0CA88012A13D1F1
:101BF00090F81221022A02D0032A0DD102E001221C
:101C00001B4917E0012200F5887113E090F81221BA
:101C1000022A04D0032A02D0FFF71DFB25E0144955
:101C20000839CF60D0F818210AB10322CA601049E0
:101C30000222091DFFF72EFB17E0FFF741FF14E01A
:101C4000044690F81201022801D00328C8D1488820
:101C500001280AD10020C4F81801D4F8E4058268EC
:101C6000204690472046FFF725FB3046BDE8F0812F
:101C70007000002070B5044688880D46C1B26878AF
:101C8000002658B3012816D0032831D194F8120148
:101C900002282FD0032827D1688828B921B18029AC
:101CA00002D02046FEF705FCD4F8E40529468268F8
:101CB000204690470EE094F8120102281AD003281B
:101CC00012D16888A0B929B1802903D02046FEF737
:101CD00084FBE9E72046FFF7EDFA09E094F81201EA
:101CE000022807D003280DD029462046FFF7B3FA73
:101CF000304670BD0029FBD08029F9D02046FEF780
:101D0000D8FBF5E710480D064FF000034FF0010235
:101D100008D501F07F0101EB810104EBC10191F8CD
:101D20001E1105E001EB810104EBC10191F876136E
:101D300009B1426000E0436003490222091D2046C8
:101D4000FFF7A8FAD4E700006800002070B5044649
:101D500090F8120100260D4603280ED1A888C0B2C3
:101D600001280AD8D4F8E405826820469047E8881C
:101D700030B92046FFF79EFA02E02046FFF76BFAE3
:101D8000304670BD10B500F588708178C1704FF095
:101D900004018170D0F8D804C0688047002010BDCD
:101DA00010B50A46024903A0FFF7D6FB004810BD54
:101DB000B807002048494420436F6E6669670000F9
:101DC00001A0FEF773BA00003E2048494420496E46
:101DD0007465726661636520737461727465642EE4
:101DE0000D0A000001A0FEF761BA00003E20555325
:101DF000422044657669636520436F6E6E65637447
:101E000065642E0D0A00000012200880004870470B
:101E10004400002001A0FEF749BA00003E205553BF
:101E2000422044657669636520446973636F6E6E12
:101E300065637465642E0D0A0000000018B1012866
:101E400003D003A002E00CA000E015A0FEF72EBA1C
:101E50002020202020555342204465766963652068
:101E60004C6962726172792076312E312E30205B9E
:101E70003F3F5D0D0A0000002020202020555342E6
:101E800020446576696365204C69627261727920CD
:101E900076312E312E30205B48535D0D0A00000054
:101EA0002020202020555342204465766963652018
:101EB0004C6962726172792076312E312E30205B4E
:101EC00046535D0D0A00000001A0FEF7EFB90000C7
:101ED0003E205553422044657669636520696E2033
:101EE00049646C65204D6F64652E0D0A000000008A
:101EF00001A0FEF7DBB900003E20555342204465A7
:101F00007669636520696E2053757370656E642011
:101F10004D6F64652E0D0A0010B50020FEF744FFDA
:101F20000120FEF741FF0220FEF73EFF0320FEF7EF
:101F30003BFFFEF7B5FD114830210068B0FBF1F022
:101F4000B0F1807F19D220F07F414FF0E020491E90
:101F500041610B4AF021117000218161072101616B
:101F6000FFF774F807A0FEF7A1F90DA0FEF79EF9A0
:101F7000BDE8104012A0FEF799B9FEE774010020F9
:101F800023ED00E020555342204F54472048532072
:101F9000484944204465766963650D0A00000000E5
:101FA0003E2055534220646576696365206C696202
:101FB0007261727920737461727465642E0D0A0007
:101FC00020202020205553422044657669636520F7
:101FD0004C6962726172792076312E312E300D0A91
:101FE0000000000010B50A46024903A0FFF7B4FA4A
:101FF000004810BDB807002048494420496E746568
:102000007266616365000000042008800048704724
:102010004000002010B50A46024903A0FFF79CFAD1
:10202000004810BDB807002053544D6963726F65B6
:102030006C656374726F6E69637300000A4610B555
:10204000044928B104A000BFFFF786FA014810BD7B
:1020500006A0F9E7B80700204A6F79737469636BCB
:1020600020696E204653204D6F6465004A6F797376
:102070007469636B20696E204853206D6F6465003E
:102080000A4610B5044928B104A000BFFFF764FA5E
:10209000014810BD05A0F9E7B80700203030303006
:1020A00030303030303131430000000030303030DB
:1020B00030303030303131420000000010B504467D
:1020C000D0F81801002819D020698068C00715D001
:1020D000A07A30B1D4F80C01D4F80C1120F0030030
:1020E00008602069416841F001014160052000F06D
:1020F00007F92069416821F00101416010BD38B540
:102100004FF4C0652846FEF745FD4D208DF80000D0
:1021100001248DF8014003208DF802008DF8034062
:102120006846FEF705FD2846FEF734FD4A208DF887
:1021300000008DF8014002208DF802008DF8034068
:102140006846FEF7F5FC2846FEF724FD4B208DF887
:1021500000008DF801408DF802408DF8034068467C
:10216000FEF7E6FC38BD00002DE9F04786B00121FE
:102170000720FEF763FD5F4F0A2203213846FEF772
:102180007DFC0A2205213846FEF778FCDFF86891CD
:102190000A2200214846FEF771FC0A220121484626
:1021A000FEF76CFC0A2205214846FEF767FC0A226E
:1021B00011464846FEF762FC0A220B214846FEF70C
:1021C0005DFC0A220C214846FEF758FC0A220D212C
:1021D0004846FEF753FCDFF824A10A2203215046AB
:1021E000FEF74CFC0A2202215046FEF747FC0A2269
:1021F00000215046FEF742FC2020032400908DF879
:10220000054002258DF8045069463846FEF7F8FB74
:102210008DF805408DF8045000264FF008088DF821
:102220000660CDF800808DF8076069463846FEF7F5
:10223000E7FB8DF8054043F623408DF804500090ED
:102240008DF806608DF8076069464846FEF7D8FBB2
:1022500001278DF8054000978DF8045069465046D7
:10226000FEF7CEFB8DF80540CDF800808DF80450C8
:1022700069465046FEF7C4FB042000908DF80540E7
:102280008DF8045069465046FEF7BAFB01216007FD
:10229000FEF7D4FC01210807FEF7E8FC012102202B
:1022A000FEF7B4FDEC042046FEF75AFB8DF80C60F7
:1022B0008DF80D8002948DF80E7002A8FEF766FB73
:1022C0002046FEF74DFB4C208DF810008DF8117064
:1022D00005208DF812008DF8137004A8FEF728FC75
:1022E0002046FEF73DFB6011FEF73AFB06B0BDE865
:1022F000F087000000000240000402400008024095
:102300004FF47A714843AFF30080C0EB0010002116
:10231000C0000722B0FBF2F0491C8142FCD9704793
:1023200070B50446017A0025C068012915D0C1683E
:1023300041F04001C160204600F0DCF8617A4FF4C2
:10234000502009B14FF4E810E16888631420FFF7CA
:10235000D7FFE078012819D020E0816B627A21F460
:1023600080310AB141F480118163E068C16821F0D5
:10237000401121F42021C160204600F0BBF8E07834
:1023800001280BD1E1682A208860E2E7E0688168D3
:1023900021F01E010A3141F020018160284670BD04
:1023A0002DE9F04104460027D0F80C013D462B46AC
:1023B00007602069016821F4C0510160E07AD8BB50
:1023C000207A01284ED00121204600F0F4FAE1687D
:1023D0004FF40070486280211E4661F31F4660F38F
:1023E0000F06E068866206EB164060F30F034FF4B9
:1023F000BA7060F31F43E068C0F8043103EB134088
:1024000060F30F03E06865F31F43C0F8083103EB86
:10241000134060F30F03E068C0F80C3103EB134086
:1024200060F30F03E068C0F8103103EB134060F372
:102430000F03E068C0F814311021204600F086FA3E
:10244000204600F065FA206905612069456121692F
:102450004FF0FF3088612069C56100214FF0904046
:10246000FF2313E00021AFE704EB8106D6F818C084
:10247000DCF80020002A01DA024600E02A46CCF807
:102480000020B2691561B2699360491C62788A4282
:10249000EAD8002212E000BF04EB8206D6F854C04E
:1024A000DCF80010002901DA014600E02946CCF8EA
:1024B0000010716D0D61716D8B60521C61789142DD
:1024C000EAD82069016941F480710161E07801284E
:1024D00009D10320402161F38A0040F4803061F388
:1024E000594021690863204600F0E2F93846BDE80A
:1024F000F0810000F8B50026054634460096124FDC
:102500000320FFF702FFE86800690090641CBC42EA
:1025100001D90020F8BD00980028F1DA00990020C8
:1025200041F0010100910099EA681161E9680A69C6
:102530000092401CB84202D8009AD207F7D103207B
:10254000FFF7E3FE3046F8BD400D0300C0680021F0
:10255000826822F0010282600846704710B5016966
:102560000022D1F808C083691968CCF341042CB16A
:10257000012C03D0022C04D0032C05D16FF30A01E7
:1025800002E06FF30A01C91C19600069416841F457
:1025900080714160104610BDF0B54A7800274C6943
:1025A000012A15D00A7800EB82035A6D156812696A
:1025B000002C8C6800D04C6164F306025B6D22F441
:1025C000C01202F500221A61C278012A2DD032E031
:1025D00083691E681A6934B18D68AC4206D965F307
:1025E00006024D6104E022F07F0201E064F306027E
:1025F00022F4C01202F500221A61C278012A05D124
:102600000C780A6900EB8404A469626146F0044214
:102610001A60C278B2B94A69A2B10A780069012188
:102620009140426B0A4342630CE00B780A6900EB6D
:1026300083035B6D5A61097845F0044200EB810029
:10264000406D02603846F0BD426D07491161C178A6
:10265000012908D1426D00F2CC515161406D0168F1
:102660004FF0802101607047180008C070B591F8E4
:1026700000C000254E78012303FA0CF32A4600EB34
:102680008C04012E17D0646D63F31F4223681E046F
:102690000DD48E6866F30A03CE7866F39343CE8832
:1026A00066F3995343F0805343F400432360097861
:1026B000012904D005E0A46963F30F02E6E7C17ABB
:1026C00029B10069C1691143C161284670BD006923
:1026D000C16B1143C163F8E710B502464C780B7823
:1026E000002002EB8302012C09D0526D1368C978D7
:1026F00023F40013032904D0022902D003E09269D5
:10270000F4E743F08053136010BD70B591F800C03A
:1027100000254E78012303FA0CF32A4600EB8C04C3
:10272000012E08D0666D144663F31F4432600978A9
:10273000012905D006E0A669144663F30F04F5E706
:10274000C17A29B10069C169A143C161284670BD40
:102750000069C16BA143C163F8E702464B78097871
:10276000002002EB8101012B05D0496D0A6842F47B
:1027700000120A6070478A691168002901DA41F085
:10278000804141F40011116070472DE9F0414D780E
:102790000A7801244B694FF0000800EB8202012DFA
:1027A00015D0566D35683269002B61D08C68234492
:1027B0005B1EB3FBF4F363F3DC42C2F3C943634330
:1027C00063F312023261C278012A57D05CE0966945
:1027D0003568326963B18F6863F312023B445B1E54
:1027E000B3FBF7F363F3DC42CB78012B05D008E0B1
:1027F0006FF3120264F3DC4203E022F0C04202F104
:1028000000523261C278012A0ED0CA78012A12D051
:102810004A69C2B10A7894400269536B23435363F7
:10282000CA78012A07D00EE00B780A6900EB83030F
:102830009B695A61F4E702699268C2F30D22D207DC
:102840000CD045F080550B7845F0044200EB830333
:102850009B691A60CA78012A03D026E045F000552A
:10286000F1E74A6993B20A78C96800F067F91CE099
:102870008B6863F3120264F3DC42A3E70B780A6906
:1028800000EB83035B6D5A61CA78012A06D14A794D
:1028900012B145F0005501E045F08055097845F04A
:1028A000044200EB8100406D02604046BDE8F081CB
:1028B00030B5C368002211469A61C4686FF0804346
:1028C0006361C568541E6C60C4686361C4680B4B67
:1028D000A361C37803B9102141F48721C06841F096
:1028E000081141F4401141F08041836941F0040135
:1028F0008B430B438361104630BD0000000800800D
:10290000C0680021826842F0010282600846704778
:1029100038B50024014620460094009A42F0100287
:102920000092009ACB681A61074AC9680B69009344
:10293000401C904202D8009BDB06F7D40320FFF72F
:10294000E4FC204638BD0000400D030038B50024EB
:10295000024620460094009B43F020030093009B16
:1029600061F38A1300930099D3681961074BD1680A
:102970000A690092401C984202D8009A9206F7D445
:102980000320FFF7C2FC204638BD0000400D0300C5
:102990000146002009698968C1F3410139B1012963
:1029A00003D0022905D0032900D10220704703205B
:1029B0007047012070470269106861F301001060E0
:1029C0007047C068406900F00100012801D0012073
:1029D000704700207047C0684169806908407047AF
:1029E00000698169C069084080B2704700698169E7
:1029F000C0690840000C704700EB8101496D89688F
:102A00000069406908407047034610B50846002138
:102A1000D21C9208D3F8D03003E01C6840F8044B75
:102A2000491C9142F9D310BD70B500220123C27038
:102A300040268370144615468680012901D061B175
:102A400017E0C3720821017004214FF0A0424170C9
:102A50009115C180022101720BE0C5720C21017039
:102A6000062141704FF4A061C1800372204AC370F7
:102A7000837202F50061C0E9032100210DE000BF6F
:102A800002EB411303F5106500EB810C03F5306395
:102A9000CCF81850491CCCF8543043788B42EFD80E
:102AA00002F5806141614031C0F8CC10002108E09E
:102AB00002EB411300EB810503F5A063491CC5F847
:102AC000903003788B42F3D8002108E002EB013309
:102AD00000EB810503F58053491CC5F8D03003781D
:102AE0008B42F3D802F56062C0F80C21204670BD1D
:102AF0000000044010B5C2680024D068012920F00D
:102B0000C04001D019B104E040F0005001E040F0B5
:102B10008040D0603220FFF7F3FB204610BD817A61
:102B200000290AD001698968C90706D0D0F80C11BC
:102B3000D0F80C0121F003010160704730B5C47872
:102B400000256CB900EB82000024DB1C9B08D0F848
:102B5000D00003E051F8042B0260641C9C42F9D3BE
:102B6000284630BDFEE7704770B5074D0446C1B238
:102B70002846FEF753FB40212846FEF7C3FA0028FB
:102B8000F9D0204670BD00000044004008B50E4852
:102B9000002400900D4B0E4A21460E48FEF788FD9A
:102BA0004FF480152046641CA842FBD10020FEF79C
:102BB0001FF90120FEF71CF90220FEF719F9032086
:102BC000FEF716F90024EDE708000020AC00002015
:102BD00024000020C40100204FF04070E1EE100AF4
:102BE00070470000000400080A000B0007000700FF
:102BF00000000400040000000400000001000020A8
:102C0000008001000020008000000200060000009B
:102C10000D000F00060028002800400000010002FF
:102C200080000000400000004000000000010000A3
:102C3000040000000100000004000000400000004B
:102C4000602C000800000020C4010000C40100083E
:102C5000882D0008C4010020940C00002002000808
:102C60008113191F14083D1E1408C11D1B08F1080B
:102C70001AC9041AE50C1A15082A09041A200C1995
:102C8000041A3D041A81041AA11C1AE5341704031E
:102C90000904120132021640830410572602010271
:102CA00003014B0A0614190B01151389131C08D9CB
:102CB0001250121B1C081D1A0C12191B0885541ADD
:102CC000070C13E7161B08F5041AFD24131314232D
:102CD0000878422013D1151B08AF041A091C811A69
:102CE000A31001101AC5142904C1140902221301EA
:102CF0000125E03209041501030102150921110122
:102D00001401224A1607058103041A0A24691231A4
:102D1000100A05010902A1010901A11008050919FC
:102D200001290315180F25019503750181029501ED
:102D30007505810120281730093109381581257F53
:102D4000750895038106C0093C05FF090129000E9D
:102D50001375019502B12275069501B101C01B7A68
:102D6000036E6110090102030406070809124812E4
:102D7000404B080204411A180829046A2014590813
:082D800029145938693C0000D8
:040000050800018965
:00000001FF
